:100200008231522A08000034813120007F08CE005C
:100210002700131D19298E31782681318E317F26D2
:10022000813104302800960088317E2081312700FA
:1002300013112000931842294D298E3185268131D2
:1002400088316B208131883186208131853171255B
:1002500081310230280096002100CE01CE0A88317B
:100260007E2081314B29883177208131CE018E313A
:1002700085268131013020009B009A0188315D2064
:1002800081314B2921004E08003A03191D29013AFA
:10029000031933294B2920009310911CCC292100EC
:1002A000A80A0319A90ABC298E317F2681312000B2
:1002B0000630AF0A2F020318AF012F08F000F1013A
:1002C0008731AA2781318731FB27813101309B009B
:1002D0002100C901C90ACA2988318B208131023025
:1002E00020009B002100C900CA29063020009B0085
:1002F00003302100C900883171208131CA29883139
:100300008620813188316B20813120002308A500AF
:100310002208A400A201A30138089B002100073095
:10032000C901F000F10120002408FE3EF200FF3078
:10033000253DF3008731DB27813171082100EA0078
:100340007008E9006A086904031DB829003020001C
:100350002502093003192402031CB8298E3178269E
:10036000813182315522813188315D208131CA2924
:10037000883161208131CA294908003A031954297A
:10038000013A03196C29033A03197529013A031933
:100390007F29CA292000911093199311911EEC29ED
:1003A00000302302D230031922020318EC29230063
:1003B00019082000CB0022081E3ECC002330031871
:1003C0002430CD004C0886004D0887004B08810082
:1003D000A20A0319A30A9A012100520B4E2A0B1DEF
:1003E0004E2A2000A80A0319A90A412A2000290838
:1003F000803ACB002708803A4B02031D012A2608C9
:100400002802031C4D2A21003F088231062A2000C1
:100410002908803ACB002708803A4B02031D122A94
:100420002608280203181D2A4D2AB601B60A262AD4
:10043000B60121003F0882311C2A20003608003A0C
:100440000319152A013A0319182A262A2000A8019F
:10045000A9014D2A20002908803ACB002708803ABC
:100460004B02031D352A26082802031C4D2A0130A1
:100470002100B600B7016430D10088316520813198
:100480004D2A21005108003A0319F629013A0319AF
:10049000072A033A03192A2A4D2A0B1120004E0875
:1004A000FF0009008801893132292100A00A0319BF
:1004B000A10A0319A20A0319A30A0730F000F101E7
:1004C00020002408FE3EF200FF30253DF300E1222B
:1004D00082317108A1007008A000B322823100307F
:1004E00021021E300319200203180800DD08031D35
:1004F000080024081D3E8F312F2782315C06031D22
:100500000800C901CA0121084A02031D892A2008DE
:1005100049020318AF2A4A08F1004908E3238E3143
:10052000F62682317108C8007008C700223E860096
:1005300023300318890A8700010AC4004708223EB5
:10054000C50023300318890AC600450886004608FE
:10055000870044088100C90A0319CA0A832A8C311A
:10056000A4248231062BDD01DC0125082100B10025
:10057000200024082100B000FE30B007FF30B13D5C
:10058000F001F101210031087102031DC92A300870
:10059000700270080318DD2A1E3E860023300318FF
:1005A0002430870001082000DC077008CF23823147
:1005B000DD06F00A0319F10AC22ACF232000DD0666
:1005C0000800F401F501710870040319012BF6010C
:1005D000F60AF11BEE2AF035F10DE82AF435F50D97
:1005E00071087302031DF62A70087202031CFD2AAB
:1005F0007008F2027108F33B7414F136F00CF60B3C
:10060000EE2A7508F1007408F0000800FB01FC01F7
:1006100020002108F1002008E3238E31F6268231E4
:1006200071087C02031D162B70087B02031808005A
:100630007B08243E8F312F278231503A0319CA2B71
:100640007B081F3E8F31362782315A06031D362B19
:100650007B08203E8F31362782315906031D362B09
:100660007B08CF2382315B060319CA2BF901FA01FB
:1006700020002E08F700F80178087A02031D422BAB
:100680007708790203189B2B79083E3E86000230DA
:1006900087007B081E3E8400233003182430850029
:1006A00000080106031D972B7908203E86007B0871
:1006B0001F3E840023300318890A850000080106C4
:1006C000031D972B7908A03E86007B08203ED72388
:1006D00082310106031D972B7908203E86000130E8
:1006E00087007B08243ED72382310106031D972B08
:1006F0002100CD01CD0ADD238231D72382310102D1
:10070000031C972B7908A03E86007B08213ED72347
:1007100082318100DD238231D72382318100790843
:10072000BE3E86007B08233ED72382318100F90A32
:100730000319FA0A382B2100CD08031DC82B7B08AA
:100740001F3E8F312F278231F0007B08203E8F31F2
:1007500036278231F1007B08213E8F3136278231E6
:10076000F2007B08223E8F3136278231F3007B086E
:10077000233E8F3136278231F4007B08243E8F31AF
:1007800036278231F5007B08CF238E318B268231CC
:100790002100CD010730FB070318FC0A082B1E3E81
:1007A00086002330031824308700010808008400E5
:1007B00023300318890A0008080079083E3E8600A5
:1007C0007B08223E0800F0000730F200F301080029
:1007D0003C0BEC2B3B0808002100E401E501E6019D
:1007E000E701E001E101E201E301E80120002E0858
:1007F000210068020318552C6808203E860001304D
:1008000087008108031D532C68083E3E860081083E
:10081000031D172C6808A03E86000108E40701307C
:100820000318E5070318E6070318E707532C6808C1
:10083000A03E8600013087000108D500D601680877
:100840003E3E8600692583317F2483315008210094
:10085000D80020004F082100D700BF24833155085D
:10086000DB00560861258331E4075C08E53D5D083F
:10087000E63D5E08E73D68083E3E860001308700A1
:10088000692583317F2483314F082100DB0020005C
:100890005008210061258331E0075C08E13D5D08D7
:1008A000E23D5E08E33DE80AF62B6308620461045A
:1008B0006004031D5D2C6408080063082000D2005A
:1008C000210062082000D100210061082000D00032
:1008D000210060082000CF00210067082000D6001A
:1008E000210066082000D500210065082000D40002
:1008F000210064082000D300DE244F080800D40142
:10090000D01F892CCF09D009CF0A0319D00AD401EE
:10091000D40AD21F922CD109D209D10A0319D20AC2
:100920000130D406D501D60150084F040319B22C6A
:10093000D301D30AD01B9F2CCF35D00D992CD535A0
:10094000D60D50085202031DA72C4F085102031C5C
:10095000AE2C4F08D1025008D23B5514D036CF0CE4
:10096000D30B9F2C54080319BA2CD509D609D50AE4
:100970000319D60A5608D0005508CF0008002000F9
:10098000D701D8012100551CCC2C57082000D707CF
:10099000210058082000D83D2100D735D80DD63683
:1009A000D50C56085504031DC22C20005808210000
:1009B000D600200057082100D50008002100D601EC
:1009C0002000D21FF12CCF09D009D109D209CF0ABA
:1009D0000319D00A0319D10A0319D20A2100D6013A
:1009E000D60A2000D61F022DD309D409D509D6096D
:1009F000D30A0319D40A0319D50A0319D60A0130F8
:100A00002100D6062100D701D801D901DA01200042
:100A10005208510450044F040319422D2100D501FE
:100A2000D50A2000D21B1A2DCF35D00DD10DD20DF5
:100A30002100102D2100D735D80DD90DDA0D200059
:100A400052085602031D2E2D51085502031D2E2D4E
:100A500050085402031D2E2D4F085302031C3A2D3B
:100A60004F08D3025008D43B5108D53B5208D63B1F
:100A7000210057142000D236D10CD00CCF0C21000D
:100A8000D50B1A2D210056080319512DD709D80965
:100A9000D909DA09D70A0319D80A0319D90A031997
:100AA000DA0A5A082000D200210059082000D1009B
:100AB000210058082000D000210057082000CF0056
:100AC0000800DC000030DC1BFF30DD00DE005B08CE
:100AD000080001082000CF001430D001D100D2015D
:100AE00008000030F601F7010038031D7B2D003AA5
:100AF0000319AB2D0030003A0319802D2000872DFB
:100B00000030003A0319CB2D20003D0BCB2D5B08A4
:100B10004D26853120005A084D2685312000590880
:100B20004D2685317D084D268531770820005B06EE
:100B30005A0659067D06323AF70000304D268531B7
:100B400032304D26853100304D2685318226853163
:100B50007D07323ECA2D20005B084D2685312000DE
:100B60005A084D268531200059084D268531200030
:100B70002A084D26853177087A2685314D2685311C
:100B800032304D26853140304D26853182268531E3
:100B90002A07723EF6000030003A0319F22D2000B9
:100BA000BD08031DF22D5B084D26853120005A0833
:100BB0004D268531200059084D26853120002A0810
:100BC0004D26853177087A2685314D26853132309C
:100BD0004D26853140304D268531822685312A07C4
:100BE000723EF600F80120002E0878020318482E05
:100BF0007808203E8600013087008108031D042EFE
:100C0000013000380319462E78083E3E8D26853186
:100C10004D2685317808203E8D2685314D2685313B
:100C20007808A03E86000230870001084D268531F5
:100C30007808203E552685317506740673067206BF
:100C400071060106F7067808A03E860001084D26C9
:100C5000853178083E3E882685314D2685317808D5
:100C6000203E552685317507740773077207710793
:100C70000107F6077808BE3E860001084D2685313B
:100C80007808203E882685314D268531F80AF32DD7
:100C900077084D26853176084D2EF0002000111E74
:100CA0004E2E700823009A0008008600013087004D
:100CB0007808BE3E8400013085000008F100780805
:100CC0003E3E84000008F2007808A03E8400000840
:100CD000F3007808A03E8400023085000008F4008C
:100CE0007808203E84000008F50078083E3E840025
:100CF0000008080020005B065A0659062A06723AC8
:100D0000F7000034760820005B075A0759070800EF
:100D10008600013087000108080086000230870045
:100D2000010808002000D400D408031D992EAB014F
:100D3000AD2E54081A300319A42E54020318A32E02
:100D4000AB01AB0AAD2E1A3054023330031CB12E66
:100D500054020318B02E0530AB00AC01AD010C2FCE
:100D6000333054024D30031CBB2E54020318BA2EEC
:100D70001530AC2E4D3054026630031CC52E540283
:100D80000318C42E5530AC2E663054028030031C3C
:100D9000D22E54020318D12E5530AB00AC01AC0A50
:100DA000AE2E803054029930031CDE2E54020318FC
:100DB000DD2E5530AB000530F32E99305402B330A0
:100DC000031CEA2E54020318E92E5530AB001530EF
:100DD000F32EB3305402CC30031CF62E5402031809
:100DE000F52E5530AB00AC00AE2ECC305402E630C0
:100DF000031C042F54020318032F5530AB00AC0022
:100E0000AD01AD0A0C2FE6305402031C0C2F5530F7
:100E1000AB00AC000530AD00112786313527863197
:100E2000552F240016140310240098278631031D23
:100E3000132FC0302400910003102400982786311E
:100E4000031D1C2F06302400910003102400982756
:100E50008631031D252F2B08240091000310240048
:100E600098278631031908002E2F2400161403102A
:100E700085278631031D372FC030240091000310D1
:100E800085278631031D3F2F073024009100031072
:100E900085278631031D472F2C082400910003105D
:100EA00085278631031908004F2F24001614712757
:100EB0008631031D572FC0302400910071278631E1
:100EC000031D5E2F08302400910071278631031D19
:100ED000652F2D0824009100712786310319080021
:100EE0006C2F03102400141903140030093D200056
:100EF000CF001F30D001240016052000D1004F0480
:100F0000D2005008D300520408002400141903141E
:100F10000030093D2000CF001F30D001240016050D
:100F20002000D1004F04D2005008D3005204080022
:100F3000141903140030093D2000CF001F30D001E8
:100F4000240016052000D1004F04D2005008D30021
:100F5000520408007008AA00CB2F22000E138E1333
:100F60000E12080022000E178E130E120800220027
:100F70000E138E170E12080022000E178E170E1277
:100F8000080022000E138E130E16080022000E1702
:100F90008E130E1608007108003A0319D02FDA2FAD
:100FA00070088400063004020318080088310435F4
:100FB0000C3E82000800710870040319F62FF4013A
:100FC000F40AF11BE62FF035F10DE02F71087302E2
:100FD000031DEC2F70087202031CF22F7008F2023E
:100FE0007108F33BF136F00CF40BE62F7308F100B7
:100FF0007208F000080021008D1220008D120800F8
:101000008B31672B8B316C2B8B31712B8B31762B8A
:101010008B317B2B8B31802B8731AD2F8731B22FDA
:101020008731B72F8731BC2F8731C12F8731C62F2A
:1010B4000034013400341C152100911408008B15F0
:1010C400270012150800D2018B122000A801A901E3
:1010D40008008D1322001D1123009E1608008D1692
:1010E40023001D1621009116080023009E122200E1
:1010F4001D1521008D170800280095019714171459
:10110400171521009314080023001D1221009112C9
:101114008B2821008D160800640080010131013004
:10112400FE020030FF3B7F087E04031900348F2841
:10113400F4282629003021002302031DAB280030A7
:101144002202031DAB2800302102031DAB281430FA
:101154002002031C080020003408003A0319B628B2
:10116400013A0319BF280229B401B40A2100A001DD
:10117400A101A201A3018B31192BB401123021006A
:10118400A000A101A201A30123296430CF00D00152
:10119400292188310321883150084F04031D080098
:1011A400D828B401B40ABD28B401C6283408003ACA
:1011B4000319D328013A0319D6280229D030CF00C5
:1011C4000730D000292188310321883150084F0489
:1011D400031D08003408003A0319D328013A0319FF
:1011E400D62802293308003A03199B28013A031927
:1011F4009C28033A0319C728013A0319E028022955
:10120400080050084F0403191E29D301D30AD01B28
:101214000E29CF35D00D082950085202031D142978
:101224004F085102031C1A294F08D1025008D23B1F
:10123400D036CF0CD30B0E295208D0005108CF0062
:10124400080022000E140800B3018B31192B210071
:101254002B082000D20021002A082000D100080019
:101264001E30840023308500D230FE000030FF01A0
:1012740088318E2089312030FD01840000308500C2
:101284001E30FE000030FF0188318E208931A030ED
:101294008400003085003530FE000030FF018831C5
:1012A4008E20893120308400013085003C30FE00DE
:1012B4000030FF0188318E208931A0308400013054
:1012C40085003C30FE000030FF0188318E208931DA
:1012D40020308400023085003C30FE000030FF01E5
:1012E40088318E208931A0308400023085001E3080
:1012F400FE000030FF0188318E208931DE30DC00B1
:10130400DD30DD0021000730E900DD30EA01EB00CB
:101314000130EC0020008E29703021009900640017
:101324002000B9012100C101E0302000CF001F30AE
:101334008A22893113082000DB00E130CF001F30FE
:101344008A22893113082000DA00E230CF001F30EE
:101354008A22893113082000D900D908031DD02915
:10136400DA08031DD029DB08031DD029EB30CF0098
:101374001C308A22893113082000DB00E930CF00B9
:101384001C308A22893113082000DA00E630CF00AD
:101394001C308A22893113082000D900BD01B30111
:1013A400B30AB1011C238931192389312000CF01EB
:1013B400D00164238931FD012000AE0195238931D8
:1013C40020009A0102309B009C141C141C139C12D4
:1013D4001C129C111C152100911423009D1722003E
:1013E4009D131D11230007309F108D128D131E15A0
:1013F4009F159B009C0120301E12210098002300A1
:101404000C1121000C158B1527001215D0238931DE
:10141400640099238931C0300B112000CF001F30A4
:101424008A2289311408223A03191B2A2100C10196
:101434001E2A2100C101C10AD0302000CF001F3074
:101444008A2289311308683A031D752A2000B001E5
:10145400B00AD130CF001F308A2289311308C0303E
:101464000319442A2000CF001F30D000D022893134
:10147400C0302000CF001130912489319F2289315E
:101484000100752A2000CF001F30D000D0228931FE
:10149400C0302000CF002230912489319F2289312D
:1014A400D1302000CF003F30D000FF30D1001F30BA
:1014B4009F228931D0302000CF003F30D0006830E7
:1014C400D1001F309F22893120005A08CF005908CB
:1014D400D0003230D101D201D20AD3007330D4000B
:1014E4005B08EC2289310B178B1763248931C930CF
:1014F40020003502031C872AB5010030003A031985
:10150400852A9D23893172248931D1238931772A0F
:10151400D0008B134F0823009100200050082300B3
:101524009200151395171514000000000000000028
:101534002300151095138B170800D2008B1323007A
:101544009517151515121513951620004F0823002D
:10155400910020005208230092002000510823002B
:101564009300200050082300940055309600AA30C0
:101574009600951400000000000000002300553080
:1015840095129600AA309600951400000000000001
:1015940000002300151195138B1708008B134F08B7
:1015A40023009100200050082300920055301513A9
:1015B4009517151615159600AA3096009514000077
:1015C40000000000000023001511151AE72A9513E6
:1015D4008B170800D5001E302E02031808000630B1
:1015E4005302031C08002E083E3E8600023087008A
:1015F400550881002E08203E86004F0881002E08E1
:10160400A03E860050083C27510881002E083E3E2B
:101614008600520881002E08BE3E860053088100D1
:101624002E08203E860054088100AE0A08002200DD
:101634000E10080023000E138E1321000E138E13B8
:101644000E1223008D120C118D1321008D160C1512
:101654008D1723000E108E1021000E108E10200006
:101664008E1023000D1321000D1320000D132300F1
:101674000D1221000D1220000D1223000E15210061
:101684000E1523008E1121008E1120008E112100D1
:101694008E1220008E1221008C1220008C12230046
:1016A4000C1221000C1220000C1223000C1021003B
:1016B4000C1020000C1023008C1021008C10200032
:1016C4008C1008004F08AA00852B22000E138E13DD
:1016D4000E12080022000E178E130E1208002200AC
:1016E4000E138E170E12080022000E178E170E12FC
:1016F400080022000E138E130E16080022000E1787
:101704008E130E1608005008003A03198A2B942BE6
:101714004F08840006300402031808008831043599
:10172400003E820008008B152700121508001530B2
:10173400210097000800BD01D101D2012E08CF007D
:10174400D00150085202031DA92B4F08510203185F
:10175400080051083E3E86000230870001085B06FF
:10176400031DC22B5108203E860001085A06031DA2
:10177400C22B5108A03E8600010859060319CC2B40
:101784005108203E8600013087008108031DCC2BC0
:10179400BD01BD0AD10A0319D20AA02B752CDB2383
:1017A40089317F275708B700370807390F3EB8003B
:1017B4000800023021002902BD3003192802031C4D
:1017C4000800A801A9012000D1012E085102031824
:1017D40008005108BE3E860001308700810351088D
:1017E400BE3E8600053001020318FD2B5108CF00D0
:1017F400D001FF238931D10AE72BAE034F083E3EC7
:101804008600023087002E083E3E840002308500A8
:10181400000881004F08203E86002E08203E8400E8
:10182400000881004F08A03E86002E08A03E8400D8
:10183400000881004F08A03E8600013087002E0872
:10184400A03E840001308500000881004F083E3E20
:1018540086002E083E3E8400000881004F08BE3EEC
:1018640086002E08BE3E8400000881004F08203EFA
:1018740086002E08203E8400000881002E083E3E8B
:101884008600023087007A3081002E08203E8600D0
:101894007A3081002E08A03E86007A303C277A30C8
:1018A40081002E083E3E86007A3081002E08BE3E1E
:1018B40086007A3081002E08203E86007A3081002E
:1018C40008002000B908031964002100AA0A0319BA
:1018D400AB0A2000B50A33080319080088319A2896
:1018E400892489318E2C21000D160D173230921166
:1018F40024009200FF3095169515151195101510BA
:1019040093001417941720009111921108000030CD
:101914008331E823FD0008007D088631922ED00033
:101924001430D1001F34502789315B268931C030EF
:10193400F0001130F1001430F2001F30332664003F
:1019440001000800C001C10121084102031DAC2CA3
:1019540020084002031808004108F10040088331C0
:10196400E3238931F6267108C3007008C20083316D
:10197400CF2389315B06031DFA2C42081F3E2F2713
:1019840089315A06031DFA2C4208203E3627893134
:101994005906031DFA2C4208243E36278931713A30
:1019A400031DFA2CB008031DFA2C4208223E8600BF
:1019B40023300318890A010BFA2CB001B00A50270E
:1019C40089315B2689314327893133268931D030E7
:1019D400F0003F30F1006830F2001F3033268931C7
:1019E400D1304A278931332602302000B300010068
:1019F400200042088331CF2389315B06031D352D36
:101A040042081F3E2F2789315A06031D352D4208EF
:101A1400203E362789315906031D352D4208243EC0
:101A240036278931903A031D352DBA08031D352D0B
:101A34004208223E860023300318890A010B352D03
:101A4400BA01BA0A502789315B2689314327893183
:101A540033268931D1304A27893133268931D03030
:101A64004A2789313326200042088331CF23893124
:101A74005B06031D5B2D42081F3E2F2789315A0642
:101A8400031D5B2D4208203E362789315906031D6C
:101A94005B2D4208213E362789317D3A031D5B2D9B
:101AA4004208243E36278931623A03193108031962
:101AB4007E2D42088331CF2389313D3A031DBB2D4E
:101AC40042081F3E2F278931223A031DBB2D4208AD
:101AD400203E36278931183A031DBB2D4208213E8A
:101AE40036278931DF3A031DBB2D4208243E3627B1
:101AF4008931A13A031DBB2DB101B10AAE01FD012B
:101B0400AB01AC01AD01B9268931D82689315527FD
:101B14008931782689317F268931852689312800C3
:101B24001E112500930128009D019C0121009D01A7
:101B34002700131120009310911093110B138B1392
:101B4400240095122000BE01BF0120003F08803A06
:101B5400FF0087307F02031DB12DD0303E020318F1
:101B6400B92D2000BE0A0319BF0A6400A72D9524CD
:101B7400893120004208243E2F2789316F3A031D02
:101B8400D72DB208031DD72D5A08F0005908F100CB
:101B9400C830F201F20AF301F30AF4006F30F500E1
:101BA4005B088B268931B201B20A4208243E2F27F2
:101BB4008931753A031DEE2DB2015030F700420809
:101BC400243EF80023300318890AF90078088600B7
:101BD400790887007708810042088331CF2389314F
:101BE4005B06031D2E2E42081F3E2F2789315A06FD
:101BF400031D2E2E4208203E362789315906031D27
:101C04002E2E4208243E36278931863A031D122E91
:101C14004208213E36278931BB00BC01BC0A2E2E66
:101C24004208243E2F278931893A031D1B2EBC010B
:101C34002E2E4208243E2F278931873A031D252E54
:101C44000B2789312E2E4208243E2F278931883ACA
:101C5400031D2E2E752689312000C00A0319C10ADE
:101C6400A62CF3008B13951715151512151395163D
:101C74007008910073089200720893007108940030
:101C840055309600AA30960095140000000000001C
:101C940000002300553095129600AA309600951442
:101CA40000000000000000002300151195138B179D
:101CB40008008B13700823009100710892005530BE
:101CC40015139517151615159600AA309600951438
:101CD400000000000000000023001511151A702EEA
:101CE40095138B170800B301B30A080020001C11D8
:101CF4002100911020009A0108008B112700121175
:101D040021000C15080028009501171121009310DB
:101D14000800F6001E3020002E02031808000630CA
:101D24007402031C08002E083E3E86000230870021
:101D3400760881002E08203E8600700881002E0857
:101D4400A03E860071083C27720881002E083E3EA2
:101D54008600730881002E08BE3E86007408810048
:101D64002E08203E860075088100AE0A0800240073
:101D74001614031020278931031DBB2EC030910097
:101D8400031020278931031DC22E06309100031051
:101D940020278931031DC92E20002B08240091001F
:101DA40003102027893103190800D22E16140310BA
:101DB40011278931031DD92EC0309100031011273A
:101DC4008931031DE02E073091000310112789315A
:101DD400031DE72E20002C08240091000310112776
:101DE400893103190800F02EF401F501701CFE2E50
:101DF4007208F4077308F53DF235F30DF136F00C73
:101E040071087004031DF82E7508F1007408F000C1
:101E14000800B3010E27080022000E14080014194C
:101E240003140030093DF0001F30F1011605F200E3
:101E34007004F3007108F400730408001419031407
:101E44000030093DF0001F30F1011605F200700466
:101E5400F3007108F40073040800860023300318AB
:101E6400890A870001080800860023300318890ABC
:101E74000108080081002E08A03E8600013087007A
:101E84000800C030F0002230F1001430F2001F349A
:101E9400F0003F30F1001F30F2010800C030F000C4
:101EA4001F30F100080016146F278931031D562FC7
:101EB400C03091006F278931031D5C2F08309100D9
:101EC4006F278931031D622F20002D082400910003
:101ED4006F278931031908006A2F0310141903149A
:101EE4000030093DF0001F30F1011605F2007004C6
:101EF400F3007108F400730408002100CA08031DEC
:101F0400892F2000CF01CF0AD001BD2789312708AE
:101F14002000D200210026082000D100210025083D
:101F24002000D000210024082000CF004130D6003A
:101F3400C630D5004E30D4006D30D300C9273930B7
:101F44004F072100A40030302000503D2100A5009F
:101F540000302000513D2100A60000302000523DF9
:101F64002100A70027082000D8002100260820000F
:101F7400D700D81308004F082100A40020005008FF
:101F84002100A500A601A701CA01CA0A0800210070
:101F9400D501D601D701D80120004F1CE02F5308EA
:101FA4002100D507200054082100D63D2000550803
:101FB4002100D73D200056082100D83D2000D3350C
:101FC400D40DD50DD60DD236D10CD00CCF0C520871
:101FD400510450044F04031DCE2F21005808200043
:101FE400D200210057082000D1002100560820000B
:0C1FF400D000210055082000CF0008009C
:020000040001F9
:02000E00DCCF45
:00000001FF
