:0402000082314F2ACE
:10020800813120007F08CE002700131D19298B316A
:10021800422381318B3149238131043028009600F3
:100228008631E426813127001311200093184229D2
:100238004D298B314F238131873100278131863118
:10024800DC2681318331DB2381310230280096009E
:100258002100CC01CC0A8631E42681314B29863134
:10026800EC268131CC018B314F23813101302000C4
:100278009B009A0187310F2781314B2921004C08B7
:10028800003A03191D29013A031933294B29200083
:100298009310911CCC292100A80A0319A90ABC298A
:1002A8008B314923813120000630AE0A2E02031813
:1002B800AE012E08F000F1018631672681318731C1
:1002C8000627813101309B002100C701C70ACA29CE
:1002D8008631E1268131023020009B002100C700D1
:1002E800CA29063020009B0003302100C700863150
:1002F800FA268131CA298631DC26813187310027E7
:10030800813120002308A7002208A600A201A3012A
:1003180037089B0021000730C701F000F1012000D9
:100328002608FE3EF200FF30273DF300863198266E
:10033800813171082100E7007008E600670866044B
:10034800031DB829003020002702093003192602AE
:10035800031CB8298B314223813189310D21813128
:1003680087310F278131CA2987310B278131CA2963
:100378004708003A03195429013A03196C29033A2A
:1003880003197529013A03197F29CA2920009110F8
:1003980093199311911EEC2900302302D2300319CE
:1003A80022020318EC29230019082000CB00220898
:1003B8001E3ECC00233003182430CD004C088600A4
:1003C8004D0887004B088100A20A0319A30A9A0165
:1003D80021004F0B4B2A0B1D4B2A2000AA0A031998
:1003E800AB0A3F2A2B08803ACB002908803A4B02F7
:1003F800031D002A28082A02031C4A2A21003D0856
:100408008231052A2B08803ACB002908803A4B0212
:10041800031D102A28082A0203181B2A4A2AB50194
:10042800B50A242AB50121003D0882311A2A200084
:100438003508003A0319132A013A0319162A242AFF
:100448002000AA01AB014A2A2B08803ACB002908D0
:10045800803A4B02031D322A28082A02031C4A2A22
:1004680001302100B400B50164302000BD008631A0
:10047800F32681314A2A3D08003A0319F629013A40
:100488000319062A033A0319282A4A2A0B112000BD
:100498004E08FF00090088018C31182C3B0B562AA6
:1004A8003A0808002100E101E201E301E401DD016D
:1004B800DE01DF01E001E50120002D0821006502D1
:1004C8000318BF2A6508203E86000130870081088E
:1004D800031DBD2A65083E3E86008108031D812A4A
:1004E8006508A03E86000108E10701300318E2070D
:1004F8000318E3070318E407BD2A6508A03E860031
:10050800013087000108D200D30165083E3E86000D
:10051800D3238231E922823150082100D5002000FE
:100528004F082100D400292382315208D8005308EB
:10053800CB238231E1075908E23D5A08E33D5B08C5
:10054800E43D65083E3E860001308700D3238231B2
:10055800E92282314F082100D800200050082100EC
:10056800CB238231DD075908DE3D5A08DF3D5B08A1
:10057800E03DE50A602A60085F045E045D04031D2F
:10058800C72A6108080060082000D20021005F081F
:100598002000D10021005E082000D00021005D0865
:1005A8002000CF00210064082000D6002100630845
:1005B8002000D500210062082000D4002100610835
:1005C8002000D30048234F080800D401D01FF32A85
:1005D800CF09D009CF0A0319D00AD401D40AD21FEF
:1005E800FC2AD109D209D10A0319D20A0130D4064A
:1005F800D501D60150084F0403191C2BD301D30A87
:10060800D01B092BCF35D00D032BD535D60D50086F
:100618005202031D112B4F085102031C182B4F08BF
:10062800D1025008D23B5514D036CF0CD30B092B2E
:1006380054080319242BD509D609D50A0319D60A53
:100648005608D0005508CF0008002000D701D8016F
:100658002100521C362B54082000D70721005508CA
:100668002000D83D2100D435D50DD336D20C5308FF
:100678005204031D2C2B200058082100D300200011
:1006880057082100D20008002100D3012000D21F02
:100698005B2BCF09D009D109D209CF0A0319D00A97
:1006A8000319D10A0319D20A2100D301D30A200061
:1006B800D61F6C2BD309D409D509D609D30A031937
:1006C800D40A0319D50A0319D60A01302100D30622
:1006D8002100D401D501D601D701200052085104C8
:1006E80050044F040319AC2B2100D201D20A200078
:1006F800D21B842BCF35D00DD10DD20D21007A2BF2
:100708002100D435D50DD60DD70D2000520856023C
:10071800031D982B51085502031D982B50085402AD
:10072800031D982B4F085302031CA42B4F08D30218
:100738005008D43B5108D53B5208D63B21005414ED
:100748002000D236D10CD00CCF0C2100D20B842B38
:10075800210053080319BB2BD409D509D609D70999
:10076800D40A0319D50A0319D60A0319D70A570850
:100778002000D200210056082000D1002100550891
:100788002000D000210054082000CF000800D90024
:100798000030D91BFF30DA00DB00580808000108D8
:1007A8002000CF001430D001D100D2010800003061
:1007B800F601F7010038031DE52B003A0319152C43
:1007C8000030003A0319EA2B2000F12B0030003AE0
:1007D8000319352C20003C0B352C5B08B3248331DE
:1007E80020005A08B324833120005908B3248331E8
:1007F8007D08B3248331770820005B065A06590622
:100808007D06323AF7000030B32483313230B32406
:1008180083310030B3248331E82483317D07323EAD
:10082800342C20005B08B324833120005A08B324F9
:10083800833120005908B324833120002C08B324C5
:1008480083317708E0248331B32483313230B324F1
:1008580083314030B3248331E82483312C07723E3E
:10086800F6000030003A03195C2C2000BC08031D78
:100878005C2C5B08B324833120005A08B3248331ED
:1008880020005908B324833120002C08B324833175
:100898007708E0248331B32483313230B3248331A1
:1008A8004030B3248331E82483312C07723EF600AC
:1008B800F80120002D0878020318AE2C7808203E95
:1008C80086000130870081080319003078083E3E11
:1008D800EE248331B32483317808203EEE2483311B
:1008E800B32483317808A03E8600023087000108CF
:1008F800B32483317808203EBB24833175067406FF
:100908007306720671060106F7067808A03E86008F
:100918000108B324833178083E3EF3248331B3249D
:1009280083317808203EBB24833175077407730729
:10093800720771070107F6077808BE3E86000108AE
:10094800B32483317808203EF3248331B3248331E0
:10095800F80A5D2C7708B32483317608B32CF000AD
:100968002000111EB42C700823009A00080086008D
:10097800013087007808BE3E8400013085000008F9
:10098800F10078083E3E84000008F2007808A03E96
:1009980084000008F3007808A03E84000230850037
:1009A8000008F4007808203E84000008F500780864
:1009B8003E3E84000008080020005B065A065906DF
:1009C8002C06723AF7000034760820005B075A07B5
:1009D80059070800860002308700010808008600D1
:1009E8000130870001080800FB01FC0120002108F4
:1009F800F1002008D0258B318323843171087C02D3
:100A0800031D082D70087B02031808007B08243E8C
:100A18008B31F1238431503A0319BF2D7B081F3ED7
:100A28008B31F82384315A06031D292D7B08203E7B
:100A38008B31F82384315906031D292D7B088B310E
:100A4800FE2384315B060319BF2DF901FA0120004A
:100A58002D08F700F80178087A02031D352D77086C
:100A6800790203188E2D79083E3E860002308700F1
:100A78007B081E3E840023300318243085000008BC
:100A88000106031D8A2D7908203E86007B081F3E3B
:100A9800840023300318890A850000080106031D15
:100AA8008A2D7908A03E86007B08203EC425843123
:100AB8000106031D8A2D7908203E86000130870033
:100AC8007B08243EC42584310106031D8A2D21009C
:100AD800CB01CB0ACA258431C42584310102031C09
:100AE8008A2D7908A03E86007B08213EC4258431E2
:100AF8008100CA258431C425843181007908BE3E2D
:100B080086007B08233EC42584318100F90A031935
:100B1800FA0A2B2D2100CB08031DBD2D7B081F3E93
:100B28008B31F1238431F0007B08203E8B31F82390
:100B38008431F1007B08213E8B31F8238431F200A7
:100B48007B08223E8B31F8238431F3007B08233E57
:100B58008B31F8238431F4007B08243E8B31F82351
:100B68008431F5007B088B31FE2384318B3155238A
:100B780084312100CB010730FB070318FC0AFA2C4B
:100B8800840023300318890A0008080079083E3ECB
:100B980086007B08223E0800F0000730F200F301CF
:100BA8000800302E5F2E003021002302031DE62DA1
:100BB80000302202031DE62D00302102031DE62D20
:100BC80014302002031C080020003308003A0319DF
:100BD800F12D013A0319FA2D3E2EB301B30A210073
:100BE800A001A101A201A3018D31FF2DB301123093
:100BF8002100A000A101A201A3018F31612F64305F
:100C0800CF00D001622685313F26853150084F0438
:100C1800031D0800142EB301B30AF82DB301012EE9
:100C28003308003A03190F2E013A0319122E3E2EEB
:100C3800D030CF000730D000622685313F2685317D
:100C480050084F04031D08003308003A03190F2EFB
:100C5800013A0319122E3E2E3208003A0319D62DF6
:100C6800013A0319D72D033A0319032E013A031940
:100C78001C2E3E2E080050084F0403195A2ED3018B
:100C8800D30AD01B4A2ECF35D00D442E500852021D
:100C9800031D502E4F085102031C562E4F08D10237
:100CA8005008D23BD036CF0CD30B4A2E5208D00076
:100CB8005108CF000800B2018D31FF2D2508D20060
:100CC8002408D10008007008AC00882E22000E13FA
:100CD8008E130E12080022000E178E130E12080033
:100CE80022000E138E170E12080022000E178E1700
:100CF8000E12080022000E138E130E160800220092
:100D08000E178E130E1608007108003A03198D2E5F
:100D1800972E7008840006300402031808008631F4
:100D28000435D03E82000800710870040319B32E00
:100D3800F401F40AF11BA32EF035F10D9D2E710874
:100D48007302031DA92E70087202031CAF2E7008CF
:100D5800F2027108F33BF136F00CF40BA32E730882
:100D6800F1007208F00008006400800101310130D0
:100D7800FE020030FF3B7F087E0403190034B92EC1
:100D88008E314D2E8E31522E8E31572E8E315C2E55
:100D98008E31612E8E31662E86316A2E86316F2E07
:100DA8008631742E8631792E86317E2E8631832EB9
:100DB80023001D1221009112E12E21008D1608003A
:100DC800280095019714171417152100931408008B
:100DD80023009E1222001D1521008D1708002100F6
:100DE800CF018B122000AA01AB0108008D16230049
:100DF8001D162100911608008D1322001D112300D5
:100E08009E16080021008D1220008D1208008B15F7
:100E18002700121508001C15210091140800003441
:080E280008000034003400341E
:10121A002100A00A0319A10A0319A20A0319A30AA1
:10122A000730F000F10120002608FE3EF200FF30F0
:10123A00273DF300C62389317108A1007008A00078
:10124A0098238931003021021E3003192002031825
:10125A000800DD08031D080026081D3EF123893118
:10126A005C06031D0800C901CA0121084A02031DC0
:10127A00402920084902031867294A08F100490849
:10128A008531D0258931832389317108C8007008D6
:10129A00C700223E860023300318890A8700010A04
:1012AA00C4004708223EC50023300318890AC60035
:1012BA00450886004608870044088100C90A0319C0
:1012CA00CA0A3A2979218431F82C13248931252331
:1012DA008931C030F0001130F1001430F2001F30B3
:1012EA00FD22640001000800C001C1012108410279
:1012FA00031D812920084002031808004108F10053
:10130A0040088531D0258931832389317108C3008A
:10131A007008C200FE2389315B06031DD0294208EA
:10132A001F3EF12389315A06031DD0294208203E67
:10133A00F82389315906031DD0294208243EF8238F
:10134A008931713A031DD029AF08031DD0294208FB
:10135A00223E860023300318890A010BD029AF01E7
:10136A00AF0A132489312523893106248931FD22C4
:10137A008931D030F0003F30F1006830F2001F3080
:10138A00FD228931D1300D248931FD228931023083
:10139A002000B200010020004208FE2389315B06CA
:1013AA00031D0B2A42081F3EF12389315A06031DE9
:1013BA000B2A4208203EF82389315906031D0B2ABD
:1013CA004208243EF8238931903A031D0B2AB908B2
:1013DA00031D0B2A4208223E860023300318890A7D
:1013EA00010B0B2AB901B90A132489312523893142
:1013FA0006248931FD228931D1300D248931FD221B
:10140A008931D0300D248931FD22893120004208EA
:10141A00FE2389315B06031D302A42081F3EF12351
:10142A0089315A06031D302A4208203EF8238931A1
:10143A005906031D302A4208213EF82389317D3A94
:10144A00031D302A4208243EF8238931623A0319DF
:10145A0030080319522A4208FE2389313D3A031DF6
:10146A00862A42081F3EF1238931223A031D862A21
:10147A004208203EF8238931183A031D862A420879
:10148A00213EF8238931DF3A031D862A4208243E89
:10149A00F8238931A13A031D862AB001B00AAD01A9
:1014AA00FD0142238931492389314F23893128009B
:1014BA001E112500930128009D019C0121009D0118
:1014CA002700131120009310911093110B138B1303
:1014DA00240095122000BE01BF0120003F08803A77
:1014EA00FF0087307F02031D7C2AD0303E0203189A
:1014FA00842A2000BE0A0319BF0A6400722A6A21DC
:10150A00893120004208243EF12389316F3A031DB4
:10151A00A22AB108031DA22A5A08F0005908F100AC
:10152A00C830F201F20AF301F30AF4006F30F50051
:10153A005B0855238931B101B10A4208243EF123DF
:10154A008931753A031DB92AB1015030F7004208B2
:10155A00243EF80023300318890AF9007808860027
:10156A0079088700770881004208FE2389315B06E3
:10157A00031DF82A42081F3EF12389315A06031D2A
:10158A00F82A4208203EF82389315906031DF82A11
:10159A004208243EF8238931863A031DDC2A420890
:1015AA00213EF8238931BA00BB01BB0AF82A420856
:1015BA00243EF1238931893A031DE52ABB01F82A21
:1015CA004208243EF1238931873A031DEF2AEB238F
:1015DA008931F82A4208243EF1238931883A031DC9
:1015EA00F82A3F2389312000C00A0319C10A7B293E
:1015FA00F3008B1395171515151215139516700808
:10160A009100730892007208930071089400553093
:10161A009600AA3096009514000000000000000011
:10162A002300553095129600AA30960095140000B2
:10163A000000000000002300151195138B17080005
:10164A008B1370082300910071089200553015130E
:10165A009517151615159600AA30960095140000D0
:10166A0000000000000023001511151A3A2B9513EB
:10167A008B170800B201B20A080020001C112100D1
:10168A00911020009A0108008B11270012112100E5
:10169A000C15080028009501171121009310080065
:1016AA00F6001E3020002D020318080006307402CE
:1016BA00031C08002D083E3E86000230870076088B
:1016CA0081002D08203E8600700881002D08A03E6A
:1016DA00860071087427720881002D083E3E860034
:1016EA00730881002D08BE3E8600740881002D080B
:1016FA00203E860075088100AD0A0800F401F50154
:10170A00701C8B2B7208F4077308F53DF235F30D44
:10171A00F136F00C71087004031D852B7508F10071
:10172A007408F0000800DD01DC0127082100AF0081
:10173A00200026082100AE00FE30AE07FF30AF3D84
:10174A00F001F10121002F087102031DAE2B2E08B2
:10175A00700270080318C22B1E3E8600233003183D
:10176A002430870001082000DC077008FE23893135
:10177A00DD06F00A0319F10AA72BFE232000DD0675
:10178A000800F401F501710870040319E62BF6014B
:10179A00F60AF11BD32BF035F10DCD2BF435F50DEF
:1017AA0071087302031DDB2B70087202031CE22B03
:1017BA007008F2027108F33B7414F136F00CF60B60
:1017CA00D32B7508F1007408F0000800B201EE236B
:1017DA00080022000E140800860023300318890A24
:1017EA00870001080800860023300318890A0108C7
:1017FA0008001E3E860023300318243087000108A3
:10180A000800C030F0002230F1001430F2001F341A
:10181A00F0003F30F1001F30F2010800C030F00044
:10182A001F30F10008001E30840023308500D230BA
:10183A00FE000030FF018631B82689312030FD01D3
:10184A008400003085001E30FE000030FF01863122
:10185A00B8268931A0308400003085003230FE007D
:10186A000030FF018631B8268931203084000130EA
:10187A0085003C30FE000030FF018631B8268931F0
:10188A00A0308400013085003C30FE000030FF01AA
:10189A008631B826893120308400023085003C30F8
:1018AA00FE000030FF018631B8268931A03084005D
:1018BA00023085001E30FE000030FF018631B82656
:1018CA008931DE30DC00DD30DD0021000730E60042
:1018DA00DD30E701E8000130E9002000742C7030A7
:1018EA002100990064002000B8012100BF01E03006
:1018FA002000CF001F307025893113082000DB003B
:10190A00E130CF001F307025893113082000DA003A
:10191A00E230CF001F307025893113082000D9002A
:10192A00D908031DB62CDA08031DB62CDB08031DE3
:10193A00B62CEB30CF001C307025893113082000FB
:10194A00DB00E930CF001C307025893113082000F4
:10195A00DA00E630CF001C307025893113082000E8
:10196A00D900BC01B201B20AB00102268931FF25B1
:10197A0089312000CF01D0014A268931FD0120009A
:10198A00AD017B26893120009A0102309B009C140C
:10199A001C141C139C121C129C111C15210091145E
:1019AA0023009D1722009D131D11230007309F104D
:1019BA008D128D131E159F159B009C0120301E123F
:1019CA002100980023000C1121000C158B1527000B
:1019DA001215B626893164007F268931C0300B1171
:1019EA002000CF001F30702589311408223A0319CC
:1019FA00012D2100BF01042D2100BF01BF0AD030F3
:101A0A002000CF001F30702589311308683A031D62
:101A1A005B2D2000AF01AF0AD130CF001F307025F7
:101A2A0089311308C03003192A2D2000CF001F3036
:101A3A00D000B6258931C0302000CF0011307B2775
:101A4A0089318525893101005B2D2000CF001F30A7
:101A5A00D000B6258931C0302000CF0022307B2744
:101A6A00893185258931D1302000CF003F30D0001F
:101A7A00FF30D1001F3085258931D0302000CF00BA
:101A8A003F30D0006830D1001F30852589312000D1
:101A9A005A08CF005908D0003230D101D201D20AF7
:101AAA00D3007330D4005B08D22589310B178B170A
:101ABA0049278931C93020003402031C6D2DB40135
:101ACA000030003A03196B2D832689316427893146
:101ADA00B72689315D2DD0008B134F082300910062
:101AEA0020005008230092001513951715140000C2
:101AFA000000000000002300151095138B17080042
:101B0A00D2008B1323009517151515121513951668
:101B1A0020004F0823009100200052082300920061
:101B2A00200051082300930020005008230094004D
:101B3A0055309600AA309600951400000000000067
:101B4A0000002300553095129600AA30960095148D
:101B5A0000000000000000002300151195138B17E8
:101B6A0008008B134F08230091002000500823001F
:101B7A009200553015139517151615159600AA30AB
:101B8A0096009514000000000000000023001511C3
:101B9A00151ACD2D95138B170800D5001E302D026E
:101BAA000318080006305302031C08002D083E3EA5
:101BBA00860002308700550881002D08203E8600E5
:101BCA004F0881002D08A03E86005008742751084E
:101BDA0081002D083E3E8600520881002D08BE3E37
:101BEA008600530881002D08203E86005408810093
:101BFA00AD0A080022000E10080023000E138E13EF
:101C0A0021000E138E130E1223008D120C118D1348
:101C1A0021008D160C158D1723000E108E10210031
:101C2A000E108E1020008E1023000D1321000D13AC
:101C3A0020000D1323000D1221000D1220000D1299
:101C4A0023000E1521000E1523008E1121008E117E
:101C5A0020008E1121008E1220008E1221008C127B
:101C6A0020008C1223000C1221000C1220000C12EE
:101C7A0023000C1021000C1020000C1023008C10E3
:101C8A0021008C1020008C1008004F08AC006B2E2D
:101C9A0022000E138E130E12080022000E178E1346
:101CAA000E12080022000E138E170E1208002200D0
:101CBA000E178E170E12080022000E138E130E1620
:101CCA00080022000E178E130E1608005008003A5C
:101CDA000319702E7A2E4F08840006300402031866
:101CEA00080086310435C43E820008008B1527009F
:101CFA00121508001530210097000800BC01D10117
:101D0A00D2012D08CF00D00150085202031D8F2E98
:101D1A004F0851020318080051083E3E860002305F
:101D2A00870001085B06031DA82E5108203E860085
:101D3A0001085A06031DA82E5108A03E8600010874
:101D4A0059060319B22E5108203E86000130870039
:101D5A008108031DB22EBC01BC0AD10A0319D20A9A
:101D6A00862E652FC12689317F275708B600360887
:101D7A0007390F3EB7000800023021002902BD30A2
:101D8A0003192802031C0800A801A9012000D10197
:101D9A002D085102031808005108BE3E8600013082
:101DAA00870081035108BE3E8600053001020318F0
:101DBA00E32E5108CF00D001E5268931D10ACD2E74
:101DCA00AD034F083E3E8600023087002D083E3E96
:101DDA00840002308500000881004F08203E8600FA
:101DEA002D08203E8400000881004F08A03E86008E
:101DFA002D08A03E8400000881004F08A03E8600FE
:101E0A00013087002D08A03E8400013085000008BB
:101E1A0081004F083E3E86002D083E3E84000008A1
:101E2A0081004F08BE3E86002D08BE3E8400000891
:101E3A0081004F08203E86002D08203E84000008BD
:101E4A0081002D083E3E8600023087007A308100EC
:101E5A002D08203E86007A3081002D08A03E86009B
:101E6A007A3074277A3081002D083E3E86007A3017
:101E7A0081002D08BE3E86007A3081002D08203E62
:101E8A0086007A30810008002000B808031964002F
:101E9A002000A40A0319A50AB40A2508033AE8305F
:101EAA0003192406031D5B2F61278931200032089C
:101EBA00031908008531D52D22000E1408006F2F52
:101ECA00193021009D009E131E179E161E129E1089
:101EDA001E100800003082315222FD0008008100E5
:101EEA002D08A03E8600013087000800D00014307B
:101EFA00D1001F342100C808031D892F2000CF01FB
:101F0A00CF0AD001BD27893127082000D20021003D
:101F1A0026082000D100210025082000D000210039
:101F2A0024082000CF004130D600C630D5004E30FC
:101F3A00D4006D30D300C92739304F072100A400DF
:101F4A0030302000503D2100A50000302000513DD6
:101F5A002100A60000302000523D2100A7002708DA
:101F6A002000D800210026082000D700D813080036
:101F7A004F082100A400200050082100A500A60156
:101F8A00A701C801C80A08002100D201D301D4015F
:101F9A00D50120004F1CE02F53082100D207200052
:101FAA0054082100D33D200055082100D43D2000CB
:101FBA0056082100D53D2000D335D40DD50DD60DB8
:101FCA00D236D10CD00CCF0C5208510450044F0415
:101FDA00031DCE2F210055082000D20021005408ED
:101FEA002000D100210053082000D000210052080F
:061FFA002000CF000800EA
:020000040001F9
:02000E00DCCF45
:00000001FF
