:040200008231472AD6
:10020800813120007F08DC002700131D19298B315C
:10021800642381318B316B238131043028009600AF
:100228008531622581312700131120009318432955
:100238004D298B3171238131853178258131853183
:100248005A25813182314A228131023028009600B4
:100258002000C601C60A8531622581314B298531C6
:10026800712581312000C6018B3171238131013024
:1002780020009B009A0185318C2581314B29460845
:10028800003A03191D29013A031933294B29200083
:100298009310911CC7292100C60A0319C70AB62959
:1002A8008B316B23813120000630B10A31020318EB
:1002B800B1013108F000F1018431E5248131853143
:1002C8007E25813101309B00BE01BE0AC5298531DA
:1002D8005F258131023020009B00BE00C529063011
:1002E8009B000330BE0085316A258131C5298531DF
:1002F8005A25813185317825813120002308A700CE
:100308002208A600A201A30142089B000730BE01F3
:10031800F000F1012608FE3EF200FF30273DF30011
:1003280085311625813171082100ED007008EC0037
:100338006D086C04031DB229003020002702093023
:1003480003192602031CB2298B31642381318931B8
:100358002D21813185318C258131C529853188252B
:100368008131C52920003E08003A03195429013A71
:1003780003196B29033A03197329013A03197B29D5
:10038800C5292000911093199311911EE729003077
:100398002302D230031922020318E729230019087F
:1003A8002000D90022081E3EDA002330031824302A
:1003B800DB005A0886005B08870059088100A20AFA
:1003C8000319A30A9A01490B432A0B1D432AAA0AB7
:1003D8000319AB0A372A2B08803AD9002908803A32
:1003E8005902031DF92928082A02031C422A200061
:1003F80030088131FE292B08803AD9002908803A33
:100408005902031D092A28082A020318132A422A16
:10041800BB01BB0A1C2ABB0130088231122A20000A
:100428003B08003A03190C2A013A03190F2A1C2A1F
:100438002000AA01AB01422A2B08803AD9002908DA
:10044800803A5902031D2A2A28082A02031C422A34
:1004580001302100D200D30164302000C80085316A
:1004680083258131422A4808003A0319EF29013AC5
:100478000319FF29033A0319202A422A0B112000E5
:100488005C08FF00090088018C31382C0030F60127
:10049800F7010038031D542A003A0319852A003051
:1004A800003A0319592A2000602A0030003A03193B
:1004B800A52A2000470BA52A5F08252382312000A2
:1004C8005E082523823120005D0825238231200023
:1004D8002F0825238231770820005F065E065D0617
:1004E8002F06323AF7000030252382313230252397
:1004F80082310030252382315B2382312F07323E3F
:10050800A42A20005F082523823120005E082523C5
:10051800823120005D082523823120002D08252303
:1005280082317708532382312523823132302523C3
:1005380082314030252382315B2382312D07723E80
:10054800F6000030003A0319CC2A2000C708031D22
:10055800CC2A5F082523823120005E0825238231BA
:1005680020005D082523823120002D0825238231B3
:100578007708532382312523823132302523823173
:100588004030252382315B2382312D07723EF600ED
:10059800F8017D0878020318202B78083E3E860073
:1005A800013087008108031DDD2A00300038031957
:1005B8001E2B7808203E6B23823125238231780850
:1005C800BE3E61238231252382317808A03E612313
:1005D80082312523823178083E3E2D2382317506EB
:1005E80074067306720671060106F7067808203E3F
:1005F800662382312523823178083E3E6623823184
:100608002523823178083E3E2D23823175077407F1
:100618007307720771070107F6077808A03E86007E
:10062800870101082523823178083E3E6B238231F9
:1006380025238231F80ACD2A7708252382317608C6
:10064800252BF0002000111E262B700823009A008D
:1006580008008600013087007808A03E84008501E4
:100668000008F10078083E3E84000230850000084A
:10067800F2007808203E84000008F3007808A03EC5
:100688008400013085000008F4007808BE3E84002C
:100698000008F5007808203E8400000808002000C3
:1006A8005F065E065D062D06723AF700003476088E
:1006B80020005F075E075D0708008600013087009D
:1006C800010808008600023087000108080086003B
:1006D8000130870001080800FB01FC012108F10036
:1006E800200844248B317723833171087C02031D51
:1006F8007F2B70087B02031808007B08243E8C318E
:1007080011248331503A0319392C7B081F3E8C3150
:10071800182483315E06031DA02B7B08203E8C31F4
:10072800182483315D06031DA02B7B088C311E2401
:1007380083315F060319392CF901FA017D08F700A6
:10074800F80178087A02031DAB2B770879020318A1
:100758000A2C7908203E8600013087007B081E3E5F
:100768008400233003182430850000080106031D87
:10077800062C7908BE3E86007B081F3E8400233085
:100788000318890A850000080106031D062C79084C
:10079800A03E86007B08203E3E2483310106031DCF
:1007A800062C79083E3E86007B08243E3E24833191
:1007B8000106031D062CC401C40A79083E3E8600C2
:1007C800023087007B08223E3E2483310102031C4D
:1007D800062C7908203E86007B08213E3E24833182
:1007E800810079083E3E86007B08223E3E24833104
:1007F80081007908A03E860087017B08233E3E24BD
:1008080083318100F90A0319FA0AA22BC408031DCF
:10081800382C7B081F3E8C3111248331F0007B0873
:10082800203E8C3118248331F1007B08213E8C3125
:1008380018248331F2007B08223E8C31182483313E
:10084800F3007B08233E8C3118248331F4007B08A5
:10085800243E8C3118248331F5007B088C311E240A
:1008680083318B31DF238331C4010730FB07031841
:10087800FC0A722B840023300318890A0008080038
:10088800F0000730F200F3010800A72CD92C003043
:1008980021004102031D5A2C00304002031D5A2C2E
:1008A80000303F02031D5A2C14303E02031C08007E
:1008B80020003808003A0319652C013A03196E2CF8
:1008C800B52CB801B80A2100BE01BF01C001C101A1
:1008D8008E31192EB80112302100BE00BF01C001AF
:1008E800C101D62C64302100E200E301DC2484310C
:1008F800B624843163086204031D0800882CB801FB
:10090800B80A6C2CB801752C20003808003A031975
:10091800832C013A0319862CB52CD0302100E20033
:100928000730E300DC248431B62484316308620490
:10093800031D080020003808003A0319832C013AE7
:100948000319862CB52C3708003A03194A2C013AAA
:1009580003194B2C033A0319762C013A0319912CED
:10096800B52C0800630862040319D12CE601E60AD5
:10097800E31BC12CE235E30DBB2C63086502031DA4
:10098800C72C62086402031CCD2C6208E4026308C9
:10099800E53BE336E20CE60BC12C6508E30064088E
:1009A800E200080022000E140800B7018E31192E4B
:1009B800200025082100E500200024082100E4008B
:1009C80008007008AD00062D22000E138E130E12BB
:1009D800080022000E178E130E12080022000E13B4
:1009E8008E170E12080022000E178E170E1208001E
:1009F80022000E138E130E16080022000E178E13F7
:100A08000E1608007108003A03190B2D152D7008F1
:100A180084000630040203180800853104354E3E70
:100A280082000800710870040319312DF401F40ADA
:100A3800F11B212DF035F10D1B2D71087302031DDB
:100A4800272D70087202031C2D2D7008F202710800
:100A5800F33BF136F00CF40B212D7308F10072080A
:100A6800F00008006400800101310130FE0200300E
:100A7800FF3B7F087E0403190034372D8E31682E22
:100A88008E316D2E8E31722E8E31772E8E317C2ED8
:100A98008E31812E8431E82C8431ED2C8431F22C76
:100AA8008431F72C8431FC2C8531012D23001D1253
:100AB800210091125F2D21008D1608002800950154
:100AC80097141714171521009314080021008D1688
:100AD80023001D1621009116080023009E122200F3
:100AE8001D1521008D1708008D1322001D112300EC
:100AF8009E16080021008D1220008D120800C901E1
:100B08008B12AA01AB0108008B15270012150800EB
:100B18001C15210091140800003408000800003456
:040B28000034003461
:10125A002100BE0A0319BF0A0319C00A0319C10AE9
:10126A000730F000F10120002608FE3EF200FF30B0
:10127A00273DF300BA2389317108A1007008A00044
:10128A008C238931003021021E30031920020318F1
:10129A000800E108031D080026081D3E11248931B3
:1012AA006006031D0800D701D80121085802031D52
:1012BA00602920085702031887295808F10057089F
:1012CA00843144248931772389317108D600700822
:1012DA00D500223E860023300318890A8700010AB6
:1012EA00D2005508223ED30023300318890AD400BD
:1012FA00530886005408870052088100D70A031948
:10130A00D80A5A2999218331702B332489314723EA
:10131A008931C030F0001130F1001430F2001F3072
:10132A001F23640001000800CE01CF0121084F02EB
:10133A00031DA12920084E02031808004F08F100D6
:10134A004E08843144248931772389317108D100C8
:10135A007008D0001E2489315F06031DF029500849
:10136A001F3E112489315E06031DF0295008203ED4
:10137A00182489315D06031DF0295008243E1824DB
:10138A008931713A031DF029B208031DF02950086A
:10139A00223E860023300318890A010BF029B20184
:1013AA00B20A3324893147238931262489311F23FC
:1013BA008931D030F0003F30F1006830F2001F3040
:1013CA001F238931D1302D2489311F2389310230DD
:1013DA002000B7000100200050081E2489315F0652
:1013EA00031D2B2A50081F3E112489315E06031D56
:1013FA002B2A5008203E182489315D06031D2B2A0A
:10140A005008243E18248931903A031D2B2AC50816
:10141A00031D2B2A5008223E860023300318890A0E
:10142A00010B2B2AC501C50A332489314723893187
:10143A00262489311F238931D1302D2489311F2354
:10144A008931D0302D2489311F2389312000500859
:10145A001E2489315F06031D502A50081F3E11249D
:10146A0089315E06031D502A5008203E182489310E
:10147A005D06031D502A5008213E182489317D3A01
:10148A00031D502A5008243E18248931623A031950
:10149A0033080319722A50081E2489313D3A031D64
:1014AA00A62A50081F3E11248931223A031DA62A72
:1014BA005008203E18248931183A031DA62A5008DC
:1014CA00213E18248931DF3A031DA62A5008243EFA
:1014DA0018248931A13A031DA62AB301B30AFD01D2
:1014EA00AF01642389316B23893171238931280043
:1014FA001E112500930128009D019C0121009D01D8
:10150A002700131120009310911093110B138B13C2
:10151A00240095122000CC01CD0120004D08803A0C
:10152A00FF0087307F02031D9C2AD0304C0203182B
:10153A00A42A2000CC0A0319CD0A6400922A8A211F
:10154A00893120005008243E112489316F3A031D45
:10155A00C22AB508031DC22A5E08F0005D08F10020
:10156A00C830F201F20AF301F30AF4006F30F50011
:10157A005F08DF238931B501B50A5008243E1124DA
:10158A008931753A031DD92AB5015030F700500840
:10159A00243EF80023300318890AF90078088600E7
:1015AA00790887007708810050081E2489315F0670
:1015BA00031D1A2B50081F3E112489315E06031D94
:1015CA001A2B5008203E182489315D06031D1A2B58
:1015DA005008243E18248931863A031DFD2A5008F2
:1015EA00213E182489312100DE00DF01DF0A1A2B8F
:1015FA005008243E11248931893A031D072B210002
:10160A00DF011A2B5008243E11248931873A031D21
:10161A00112B0B2489311A2B5008243E11248931AD
:10162A00883A031D1A2B612389312000CE0A031937
:10163A00CF0A9B29F3008B1395171515151215134D
:10164A009516700891007308920072089300710849
:10165A00940055309600AA309600951400000000B8
:10166A00000000002300553095129600AA3096001B
:10167A0095140000000000000000230015119513C6
:10168A008B1708008B1370082300910071089200D1
:10169A00553015139517151615159600AA3096008C
:1016AA009514000000000000000023001511151A0F
:1016BA005C2B95138B170800B701B70A08002000A6
:1016CA001C112100911020009A0108008B1127009B
:1016DA00121121000C15080028009501171121008C
:1016EA0093100800F401F501701C7F2B7208F407AF
:1016FA007308F53DF235F30DF136F00C71087004FC
:10170A00031D792B7508F1007408F0000800E10147
:10171A00E00127082100CD00200026082100CC0086
:10172A00FE30CC07FF30CD3DF001F10121004D081C
:10173A007102031DA22B4C08700270080318B62B05
:10174A001E3E86002330031824308700010820003B
:10175A00E00770081E248931E106F00A0319F10A2C
:10176A009B2B1E242000E1060800F401F5017108F4
:10177A0070040319DA2BF601F60AF11BC72BF035B0
:10178A00F10DC12BF435F50D71087302031DCF2B32
:10179A0070087202031CD62B7008F2027108F33B20
:1017AA007414F136F00CF60BC72B7508F1007408A7
:1017BA00F0000800F6001E307D020318080006300B
:1017CA007402031C08007D08203E86000130870051
:1017DA00760881007D08BE3E8600700881007D087B
:1017EA00A03E8600710879278931720881007D0838
:1017FA003E3E8600730881007D08A03E8600870170
:10180A007408802775088100FD0A0800B7010E24B4
:10181A00080022000E140800860023300318890AE3
:10182A00870001080800860023300318890A010886
:10183A0008001E3E86002330031824308700010862
:10184A000800C030F0002230F1001430F2001F34DA
:10185A00F0003F30F1001F30F2010800C030F00004
:10186A001F30F10008001E30840023308500D2307A
:10187A00FE000030FF018531362589312030FD0117
:10188A008400003085002C30FE000030FF018531D5
:10189A0036258931A0308400003085004230FE00B0
:1018AA000030FF018531362589312030840001302E
:1018BA0085003C30FE000030FF0185313625893134
:1018CA00A0308400013085003C30FE000030FF016A
:1018DA0085313625893120308400023085003C303C
:1018EA00FE000030FF01853136258931DE30E00007
:1018FA00DD30E10021000730EC00DD30ED01EE00C3
:10190A000130EF002000892C70302100990064001A
:10191A002000C3012100DA01E030E2001F308A25ED
:10192A00893113082000DF00E1302100E2001F3076
:10193A008A25893113082000DE00E2302100E20006
:10194A001F308A25893113082000DD00DD08031DB8
:10195A00CF2CDE08031DCF2CDF08031DCF2CEB3064
:10196A002100E2001C308A25893113082000DF009B
:10197A00E9302100E2001C308A2589311308200051
:10198A00DE00E6302100E2001C308A258931130886
:10199A002000DD00C701B701B70AB3011C2689314F
:1019AA00192689312100E201E301642689312000E8
:1019BA00AF01FD019726893120009A0102309B0070
:1019CA009C141C141C139C121C129C111C15210023
:1019DA00911423009D1722009D131D112300073027
:1019EA009F108D128D131E159F159B009C01203090
:1019FA001E122100980023000C1121000C158B15D2
:101A0A002700121564009B268931C0300B11E200B1
:101A1A001F308A2589311408223A0319172D21000B
:101A2A00DA011A2D2100DA01DA0AD030E2001F3079
:101A3A008A2589311308683A031D752D2000B201E1
:101A4A00B20AD1302100E2001F308A2589311308F9
:101A5A00C0300319402D2100E2001F30E300D025D9
:101A6A008931C0302100E20011308D2789319F254C
:101A7A0089310100752D2100E2001F30E300D025D5
:101A8A008931C0302100E20022308D2789319F251B
:101A9A008931D1302100E2003F30E300FF30E40019
:101AAA001F309F258931D0302100E2003F30E3000A
:101ABA006830E4001F309F25893120005E0821002C
:101ACA00E20020005D082100E3003230E401E50174
:101ADA00E50AE6007330E70020005F08EC2589314B
:101AEA000B178B176A278931C93020003A02031C69
:101AFA00872DBA010030003A0319852D9F268931B6
:101B0A00DB268931DC268931772DE3008B136208C5
:101B1A0023009100210063082300920015139517F2
:101B2A001514000000000000000023001510951392
:101B3A008B170800E5008B1323009517151515124E
:101B4A0015139516210062082300910021006508EB
:101B5A0023009200210064082300930021006308F7
:101B6A002300940055309600AA3096009514000080
:101B7A000000000000002300553095129600AA309C
:101B8A0096009514000000000000000023001511C3
:101B9A0095138B1708008B1362082300910021000C
:101BAA00630823009200553015139517151615155D
:101BBA009600AA309600951400000000000000006C
:101BCA0023001511151AE72D95138B17080021000C
:101BDA00E8001E307D020318080006306602031C66
:101BEA0008007D08203E86000130870068088100D1
:101BFA007D08BE3E8600620881007D08A03E860000
:101C0A00630879278931640881007D083E3E860091
:101C1A00650881007D08A03E860087016608802746
:101C2A0067088100FD0A080022000E100800230040
:101C3A000E138E1321000E138E130E1223008D1213
:101C4A000C118D1321008D160C158D1723000E1003
:101C5A008E1021000E108E1020008E1023000D13FE
:101C6A0021000D1320000D1323000D1221000D1267
:101C7A0020000D1223000E1521000E1523008E11CF
:101C8A0021008E1120008E1121008E1220008E124A
:101C9A0021008C1220008C1223000C1221000C123D
:101CAA0020000C1223000C1021000C1020000C1034
:101CBA0023008C1021008C1020008C100800620870
:101CCA002000AD00862E22000E138E130E1208007D
:101CDA0022000E178E130E12080022000E138E1702
:101CEA000E12080022000E178E170E12080022008C
:101CFA000E138E130E16080022000E178E130E16E0
:101D0A00080021006308003A03198C2E962E6208F7
:101D1A008400063004020318080085310435423E67
:101D2A00820008008B1527001215080015302100C3
:101D3A0097000800C7012100E401E5017D08E200DF
:101D4A00E30163086502031DAC2E620864020318EE
:101D5A0008006408203E8600013087000108200040
:101D6A005F06031DCA2E21006408BE3E86000108D4
:101D7A0020005E06031DCA2E21006408A03E8600CC
:101D8A00010820005D060319D62E210064083E3E94
:101D9A008600013087008108031DD62E2000C70166
:101DAA00C70A2100E40A0319E50AA32E782FE726B9
:101DBA00893191276A082000C100410807390F3E7E
:101DCA00C2000800023021004702BD300319460252
:101DDA00031C0800C601C701E4017D086402031858
:101DEA0008006408A03E8600870181036408A03EBB
:101DFA008600053001020318072F6408E200E30198
:101E0A0009278931E40AF22EFD036208203E860082
:101E1A00013087007D08203E872789316208BE3E4F
:101E2A0086007D08BE3E8400000881006208A03E4C
:101E3A0086007D08A03E8400000881006208203EDA
:101E4A008600023087007D08203E8400023085002B
:101E5A000008810062083E3E86007D083E3E8400FE
:101E6A00000881006208A03E860087017D08A03E26
:101E7A00840085010008810062083E3E8600013028
:101E8A0087007D083E3E872789317D08203E8600EF
:101E9A007A3081007D08BE3E86007A3081007D0856
:101EAA00A03E86007A30792789317A3081007D0810
:101EBA003E3E86007A3081007D08A03E86007A3058
:101ECA00870180277A30810008002000C30803199F
:101EDA0064002000A40A0319A50ABA0A37080319DC
:101EEA0008008431492C080081007D08203E8600C4
:101EFA0002308700080081007D083E3E86000130DE
:101F0A00870008008400013085000008810008006D
:101F1A00E3001430E4001F342000BF08031D9B2F88
:101F2A002100E201E20AE301BF27893121004508C5
:101F3A00E5004408E4004308E3004208E2004130B7
:101F4A00E900C630E8004E30E7006D30E600C927E8
:101F5A0039306207C2003030633DC3000030643D4F
:101F6A00C4000030653DC5004508EB004408EA009E
:101F7A00EB1308006208C2006308C300C401C5016C
:101F8A002000BF01BF0A08002200DC01DD01DE01DA
:101F9A00DF012100621CE02F66082200DC07210015
:101FAA0067082200DD3D210068082200DE3D21008D
:101FBA0069082200DF3D2100E635E70DE80DE90D4D
:101FCA00E536E40CE30CE20C65086404630462047D
:101FDA00031DCE2F22005F082100E50022005E08C3
:101FEA002100E40022005D082100E30022005C08D1
:061FFA002100E2000800D6
:020000040001F9
:02000E00DCCF45
:00000001FF
