:040200008231472AD6
:10020800813120007F08DC002700131D19298B315C
:10021800462381318B314D238131043028009600EB
:100228008531632581312700131120009318432954
:100238004D298B31532381318531792581318531A0
:100248005B25813182314A228131023028009600B3
:100258002000C401C40A8531632581314B298531C9
:10026800722581312000C4018B3153238131013043
:1002780020009B009A0185318D2581314B29440846
:10028800003A03191D29013A031933294B29200083
:100298009310911CC7292100C60A0319C70AB62959
:1002A8008B314D23813120000630B10A3102031809
:1002B800B1013108F000F1018431E6248131853142
:1002C8007F25813101309B00BC01BC0AC5298531DD
:1002D80060258131023020009B00BC00C529063012
:1002E8009B000330BC0085316B258131C5298531E0
:1002F8005B25813185317925813120002308A700CC
:100308002208A600A201A30140089B000730BC01F7
:10031800F000F1012608FE3EF200FF30273DF30011
:1003280085311725813171082100ED007008EC0036
:100338006D086C04031DB229003020002702093023
:1003480003192602031CB2298B31462381318931D6
:100358001121813185318D258131C5298531892545
:100368008131C52920003C08003A03195429013A73
:1003780003196B29033A03197329013A03197B29D5
:10038800C5292000911093199311911EE729003077
:100398002302D230031922020318E729230019087F
:1003A8002000D90022081E3EDA002330031824302A
:1003B800DB005A0886005B08870059088100A20AFA
:1003C8000319A30A9A01490B432A0B1D432AAA0AB7
:1003D8000319AB0A372A2B08803AD9002908803A32
:1003E8005902031DF92928082A02031C422A200061
:1003F80030088131FE292B08803AD9002908803A33
:100408005902031D092A28082A020318132A422A16
:10041800B901B90A1C2AB90130088231122A200010
:100428003908003A03190C2A013A03190F2A1C2A21
:100438002000AA01AB01422A2B08803AD9002908DA
:10044800803A5902031D2A2A28082A02031C422A34
:1004580001302100D200D30164302000C80085316A
:1004680084258131422A4808003A0319EF29013AC4
:100478000319FF29033A0319202A422A0B112000E5
:100488005C08FF00090088018C311A2C0130F60144
:10049800F7010038031D542A0030003A0319862A50
:1004A8000130003A03195A2A2000612A0030003A24
:1004B8000319A62A2000470BA62A5F0826238231A3
:1004C80020005E082623823120005D082623823121
:1004D80020002F0826238231770820005F065E0659
:1004E8005D062F06323AF70000302623823132307B
:1004F800262382310030262382315C2382312F0764
:10050800323EA52A20005F082623823120005E089B
:100518002623823120005D082623823120002D0801
:1005280026238231770854238231262382313230C0
:10053800262382314030262382315C2382312D07E5
:10054800723EF6000030003A0319CD2A2000C70891
:10055800031DCD2A5F082623823120005E0826234A
:10056800823120005D082623823120002D082623B1
:100578008231770854238231262382313230262370
:1005880082314030262382315C2382312D07723E2E
:10059800F600F8017D0878020318212B78083E3E02
:1005A8008600013087008108031DDE2A00300038EC
:1005B80003191F2B7808203E6223823126238231BB
:1005C8007808BE3E67238231262382317808A03E10
:1005D800672382312623823178083E3E2E238231DA
:1005E800750674067306720671060106F706780822
:1005F800203E6C2382312623823178083E3E6C23CC
:1006080082312623823178083E3E2E2382317507B7
:1006180074077307720771070107F6077808A03E89
:100628008600870101082623823178083E3E62232E
:10063800823126238231F80ACE2A7708262382318E
:100648007608262BF0002000111E272B70082300A7
:100658009A0008008600013087007808A03E8400D0
:1006680085010008F10078083E3E840002308500CC
:100678000008F2007808203E84000008F30078089B
:10068800A03E8400013085000008F4007808BE3ED2
:1006980084000008F5007808203E8400000808005F
:1006A80020005F065E065D062D06723AF7000034EC
:1006B800760820005F075E075D07080086000130A6
:1006C800870001080800860001308700010808003B
:1006D80086000230870001080800FB01FC012108A0
:1006E800F100200845248B315923833171087C029D
:1006F800031D802B70087B02031808007B08243E2A
:100708008B31F3238331503A03193A2C7B081F3E6F
:100718008B31FA2383315E06031DA12B7B08203E13
:100728008B31FA2383315D06031DA12B7B088C31A5
:10073800002483315F0603193A2CF901FA017D0878
:10074800F700F80178087A02031DAC2B77087902C4
:1007580003180B2C7908203E8600013087007B089F
:100768001E3E84002330031824308500000801064B
:10077800031D072C7908BE3E86007B081F3E8400B7
:1007880023300318890A850000080106031D072C79
:100798007908A03E86007B08203E3F24833101066D
:1007A800031D072C79083E3E86007B08243E3F2423
:1007B80083310106031D072CC201C20A79083E3E97
:1007C8008600023087007B08223E3F2483310102E5
:1007D800031C072C7908203E86007B08213E3F2415
:1007E8008331810079083E3E86007B08223E3F2403
:1007F800833181007908A03E860087017B08233E6B
:100808003F2483318100F90A0319FA0AA32BC2088D
:10081800031D392C7B081F3E8B31F3238331F000F5
:100828007B08203E8B31FA238331F1007B08213E7F
:100838008B31FA238331F2007B08223E8B31FA2375
:100848008331F3007B08233E8B31FA238331F40094
:100858007B08243E8B31FA238331F5007B088C31E9
:10086800002483318B31C1238331C2010730FB0758
:100878000318FC0A732B840023300318890A000824
:100888000800F0000730F200F3010800A82CDA2C69
:10089800003021004102031D5B2C00304002031D83
:1008A8005B2C00303F02031D5B2C14303E02031CFE
:1008B800080020003708003A0319662C013A03198A
:1008C8006F2CB62CB701B70A2100BE01BF01C001C9
:1008D800C1018D31FD2DB70112302100BE00BF01CD
:1008E800C001C101D72C64302100E200E301DD24FE
:1008F8008431B724843163086204031D0800892CFD
:10090800B701B70A6D2CB701762C20003708003ADA
:100918000319842C013A0319872CB62CD0302100F6
:10092800E2000730E300DD248431B7248431630812
:100938006204031D080020003708003A0319842CBC
:10094800013A0319872CB62C3608003A03194B2CA8
:10095800013A03194C2C033A0319772C013A03196D
:10096800922CB62C0800630862040319D22CE60105
:10097800E60AE31BC22CE235E30DBC2C63086502D2
:10098800031DC82C62086402031CCE2C6208E40212
:100998006308E53BE336E20CE60BC22C6508E3008E
:1009A8006408E200080022000E140800B6018D3128
:1009B800FD2D200025082100E50020002408210045
:1009C800E40008007008AD00072D22000E138E13F6
:1009D8000E12080022000E178E130E1208002200B5
:1009E8000E138E170E12080022000E178E170E1205
:1009F800080022000E138E130E16080022000E1790
:100A08008E130E1608007108003A03190C2D162DC6
:100A18007008840006300402031808008531043584
:100A28004F3E82000800710870040319322DF4014A
:100A3800F40AF11B222DF035F10D1C2D71087302FB
:100A4800031D282D70087202031C2E2D7008F20257
:100A58007108F33BF136F00CF40B222D7308F1000A
:100A68007208F00008006400800101310130FE02C4
:100A78000030FF3B7F087E0403190034382D8E3187
:100A88004C2E8E31512E8E31562E8E315B2E8E315C
:100A9800602E8E31652E8431E92C8431EE2C843120
:100AA800F32C8431F82C8431FD2C8531022D230060
:100AB8001D1221009112602D21008D1608002800BA
:100AC8009501971417141715210093140800210095
:100AD8008D1623001D1621009116080023009E1272
:100AE80022001D1521008D1708008D1322001D11ED
:100AF80023009E16080021008D1220008D12080088
:100B0800C9018B12AA01AB0108008B152700121529
:100B180008001C1521009114080000340800003456
:040B28000034013460
:101222002100BE0A0319BF0A0319C00A0319C10A21
:101232000730F000F10120002608FE3EF200FF30E8
:10124200273DF3009C2389317108A1007008A0009A
:101252006E238931003021021E3003192002031847
:101262000800E108031D080026081D3EF32389310A
:101272006006031D0800D701D80121085802031D8A
:1012820044292008570203186B295808F10057080F
:10129200843145248931592389317108D600700877
:1012A200D500223E860023300318890A8700010AEE
:1012B200D2005508223ED30023300318890AD400F5
:1012C200530886005408870052088100D70A031980
:1012D200D80A3E297D218331712B15248931292396
:1012E2008931C030F0001130F1001430F2001F30AB
:1012F2000123640001000800CE01CF0121084F0242
:10130200031D852920084E02031808004F08F1002A
:101312004E08843145248931592389317108D1001D
:101322007008D000002489315F06031DD4295008BB
:101332001F3EF32389315E06031DD4295008203E47
:10134200FA2389315D06031DD4295008243EFA236D
:101352008931713A031DD429B208031DD4295008DA
:10136200223E860023300318890A010BD429B201D8
:10137200B20A1524893129238931082489310123AC
:101382008931D030F0003F30F1006830F2001F3078
:1013920001238931D1300F2489310123893102306F
:1013A2002000B600010020005008002489315F06A9
:1013B200031D0F2A50081F3EF32389315E06031DC9
:1013C2000F2A5008203EFA2389315D06031D0F2A99
:1013D2005008243EFA238931903A031D0F2AC3088C
:1013E200031D0F2A5008223E860023300318890A63
:1013F200010B0F2AC301C30A15248931292389311C
:101402000824893101238931D1300F248931012304
:101412008931D0300F2489310123893120005008CD
:10142200002489315F06031D342A50081F3EF3232E
:1014320089315E06031D342A5008203EFA23893181
:101442005D06031D342A5008213EFA2389317D3A74
:10145200031D342A5008243EFA238931623A0319C3
:1014620033080319562A5008002489313D3A031DD6
:101472008A2A50081F3EF3238931223A031D8A2A01
:101482005008203EFA238931183A031D8A2A50084F
:10149200213EFA238931DF3A031D8A2A5008243E6D
:1014A200FA238931A13A031D8A2AB301B30AFD0145
:1014B200AF01462389314D238931532389312800D5
:1014C2001E112500930128009D019C0121009D0110
:1014D2002700131120009310911093110B138B13FB
:1014E200240095122000CC01CD0120004D08803A45
:1014F200FF0087307F02031D802AD0304C02031880
:10150200882A2000CC0A0319CD0A6400762A6E21AB
:10151200893120005008243EF32389316F3A031D9C
:10152200A62AB508031DA62A5E08F0005D08F10090
:10153200C830F201F20AF301F30AF4006F30F50049
:101542005F08C1238931B501B50A5008243EF3234F
:101552008931753A031DBD2AB5015030F700500894
:10156200243EF80023300318890AF900780886001F
:1015720079088700770881005008002489315F06C6
:10158200031DFC2A50081F3EF32389315E06031D0A
:10159200FC2A5008203EFA2389315D06031DFC2AED
:1015A2005008243EFA238931863A031DE02A500866
:1015B200213EFA238931C500C601C60AFC2A500819
:1015C200243EF3238931893A031DE92AC601FC2A04
:1015D2005008243EF3238931873A031DF32AED2371
:1015E2008931FC2A5008243EF3238931883A031DAD
:1015F200FC2A432389312000CE0A0319CF0A7F290E
:10160200F3008B13951715151512151395167008FF
:10161200910073089200720893007108940055308B
:101622009600AA3096009514000000000000000009
:101632002300553095129600AA30960095140000AA
:101642000000000000002300151195138B170800FD
:101652008B13700823009100710892005530151306
:101662009517151615159600AA30960095140000C8
:1016720000000000000023001511151A3E2B9513DF
:101682008B170800B601B60A080020001C112100C1
:10169200911020009A0108008B11270012112100DD
:1016A2000C1508002800950117112100931008005D
:1016B200F401F501701C612B7208F4077308F53D03
:1016C200F235F30DF136F00C71087004031D5B2B3B
:1016D2007508F1007408F0000800E101E001270834
:1016E2002100CD00200026082100CC00FE30CC07CE
:1016F200FF30CD3DF001F10121004D087102031DC3
:10170200842B4C08700270080318982B1E3E86002A
:10171200233003182430870001082000E0077008F6
:1017220000248931E106F00A0319F10A7D2B002415
:101732002000E1060800F401F501710870040319A4
:10174200BC2BF601F60AF11BA92BF035F10DA32BE8
:10175200F435F50D71087302031DB12B7008720286
:10176200031CB82B7008F2027108F33B7414F136B3
:10177200F00CF60BA92B7508F1007408F0000800B4
:10178200F6001E307D020318080006307402031CA6
:1017920008007D08203E860001308700760881001F
:1017A2007D08BE3E8600700881007D08A03E86004E
:1017B200710879278931720881007D083E3E8600D2
:1017C200730881007D08A03E860087017408802787
:1017D20075088100FD0A0800B601F0230800220006
:1017E2000E140800860023300318890A87000108B6
:1017F2000800860023300318890A010808001E3EEB
:101802008600233003182430870001080800C03006
:10181200F0002230F1001430F2001F34F0003F30AB
:10182200F1001F30F2010800C030F0001F30F1005B
:1018320008001E30840023308500D230FE000030C4
:10184200FF018531372589312030FD0184000030C8
:1018520085002C30FE000030FF01853137258931AB
:10186200A0308400003085004230FE000030FF01CD
:1018720085313725893120308400013085003C30A4
:10188200FE000030FF01853137258931A030840008
:10189200013085003C30FE000030FF0185313725E4
:1018A200893120308400023085003C30FE00003057
:1018B200FF01853137258931DE30E000DD30E1007E
:1018C20021000730EC00DD30ED01EE000130EF00C9
:1018D20020006B2C70302100990064002000C101AF
:1018E2002100DA01E030E2001F306E258931130851
:1018F2002000DF00E1302100E2001F306E25893137
:1019020013082000DE00E2302100E2001F306E25C5
:10191200893113082000DD00DD08031DB12CDE082B
:10192200031DB12CDF08031DB12CEB302100E200B6
:101932001C306E25893113082000DF00E9302100B8
:10194200E2001C306E25893113082000DE00E630EB
:101952002100E2001C306E25893113082000DD00D1
:10196200C701B601B60AB30100268931FD258931C6
:101972002100E201E301482689312000AF01FD0187
:101982007B26893120009A0102309B009C141C1492
:101992001C139C121C129C111C1521009114230073
:1019A2009D1722009D131D11230007309F108D12D9
:1019B2008D131E159F159B009C0120301E122100C5
:1019C200980023000C1121000C158B15270012150D
:1019D200BF26893164007F268931C0300B11E200B5
:1019E2001F306E2589311408223A0319FB2C21007D
:1019F200DA01FE2C2100DA01DA0AD030E2001F30CF
:101A02006E2589311308683A031D592D2000B20151
:101A1200B20AD1302100E2001F306E25893113084D
:101A2200C0300319242D2100E2001F30E300B42549
:101A32008931C0302100E20011308D2789318325A0
:101A420089310100592D2100E2001F30E300B42545
:101A52008931C0302100E20022308D27893183256F
:101A62008931D1302100E2003F30E300FF30E40051
:101A72001F3083258931D0302100E2003F30E3005E
:101A82006830E4001F308325893120005E08210080
:101A9200E20020005D082100E3003230E401E501AC
:101AA200E50AE6007330E70020005F08D02589319F
:101AB2000B178B174F278931C93020003802031CBE
:101AC2006B2DB8010030003A0319692D8326893144
:101AD2004E278931C02689315B2DE3008B136208C2
:101AE200230091002100630823009200151395172B
:101AF20015140000000000000000230015109513CB
:101B02008B170800E5008B13230095171515151286
:101B12001513951621006208230091002100650823
:101B2200230092002100640823009300210063082F
:101B32002300940055309600AA30960095140000B8
:101B42000000000000002300553095129600AA30D4
:101B520096009514000000000000000023001511FB
:101B620095138B1708008B13620823009100210044
:101B72006308230092005530151395171516151595
:101B82009600AA30960095140000000000000000A4
:101B920023001511151ACB2D95138B170800210060
:101BA200E8001E307D020318080006306602031C9E
:101BB20008007D08203E8600013087006808810009
:101BC2007D08BE3E8600620881007D08A03E860038
:101BD200630879278931640881007D083E3E8600CA
:101BE200650881007D08A03E86008701660880277F
:101BF20067088100FD0A080022000E100800230079
:101C02000E138E1321000E138E130E1223008D124B
:101C12000C118D1321008D160C158D1723000E103B
:101C22008E1021000E108E1020008E1023000D1336
:101C320021000D1320000D1323000D1221000D129F
:101C420020000D1223000E1521000E1523008E1107
:101C520021008E1120008E1121008E1220008E1282
:101C620021008C1220008C1223000C1221000C1275
:101C720020000C1223000C1021000C1020000C106C
:101C820023008C1021008C1020008C1008006208A8
:101C92002000AD006A2E22000E138E130E120800D1
:101CA20022000E178E130E12080022000E138E173A
:101CB2000E12080022000E178E170E1208002200C4
:101CC2000E138E130E16080022000E178E130E1618
:101CD200080021006308003A0319702E7A2E620868
:101CE2008400063004020318080085310435433E9F
:101CF200820008008B1527001215080015302100FC
:101D020097000800C7012100E401E5017D08E20017
:101D1200E30163086502031D902E62086402031842
:101D220008006408203E8600013087000108200078
:101D32005F06031DAE2E21006408BE3E8600010828
:101D420020005E06031DAE2E21006408A03E860020
:101D5200010820005D060319BA2E210064083E3EE8
:101D62008600013087008108031DBA2E2000C701BA
:101D7200C70A2100E40A0319E50A872E5D2FCB2644
:101D8200893191276A082000BF003F0807390F3EBA
:101D9200C0000800023021004702BD30031946028C
:101DA200031C0800C601C701E4017D086402031890
:101DB20008006408A03E8600870181036408A03EF3
:101DC2008600053001020318EB2E6408E200E301ED
:101DD200ED268931E40AD62EFD036208203E8600F4
:101DE200013087007D08203E872789316208BE3E88
:101DF20086007D08BE3E8400000881006208A03E85
:101E020086007D08A03E8400000881006208203E12
:101E12008600023087007D08203E84000230850063
:101E22000008810062083E3E86007D083E3E840036
:101E3200000881006208A03E860087017D08A03E5E
:101E4200840085010008810062083E3E8600013060
:101E520087007D083E3E872789317D08203E860027
:101E62007A3081007D08BE3E86007A3081007D088E
:101E7200A03E86007A30792789317A3081007D0848
:101E82003E3E86007A3081007D08A03E86007A3090
:101E9200870180277A3081000800672F2000C1085F
:101EA200031964002000A40A0319A50AB80A360817
:101EB2000319080084314A2C193021009D009E1319
:101EC2001E179E161E129E101E1008006B27200061
:101ED200AF0008002000460B702F450808002100C3
:101EE2001C082000AE002E082100E2009D1408000C
:101EF20081007D08203E86000230870008008100B4
:101F02007D083E3E860001308700080084000130D3
:101F12008500000881000800E3001430E4001F344B
:101F22002000BD08031D9B2F2100E201E20AE3010C
:101F3200BF27893121004508E5004408E400430831
:101F4200E3004208E2004130E900C630E8004E30CA
:101F5200E7006D30E600C92739306207C200303031
:101F6200633DC3000030643DC4000030653DC500E0
:101F72004508EB004408EA00EB1308006208C200BF
:101F82006308C300C401C5012000BD01BD0A0800E9
:101F92002200DC01DD01DE01DF012100621CE02FF5
:101FA20066082200DC07210067082200DD3D2100CF
:101FB20068082200DE3D210069082200DF3D210081
:101FC200E635E70DE80DE90DE536E40CE30CE20C2D
:101FD2006508640463046204031DCE2F22005F08B7
:101FE2002100E50022005E082100E40022005D08D5
:0E1FF2002100E30022005C082100E20008004C
:020000040001F9
:02000E00DCCF45
:00000001FF
