:100200008231472A00340034813120007F08DB002E
:100210002700131D192984318124813184318824D8
:1002200081310430280096008831B92081312700BF
:1002300013112000931843294D2984318E248131D4
:100240008831A52081318831C12081318531BD259A
:1002500081310230280096002000C501C50A88318E
:10026000B92081314B298831AB2081312000C50173
:1002700084318E248131013020009B009A01883125
:10028000932081314B294508003A03191D29013A71
:10029000031933294B2920009310911CC7292100F1
:1002A000AA0A0319AB0AB6298431882481312000B7
:1002B0000630B40A34020318B4013408F000F10126
:1002C0008731C12781318831A020813101309B00E5
:1002D000BE01BE0AC5298831C62081310230200006
:1002E0009B00BE00C52906309B000330BE0088314C
:1002F000B2208131C5298831C12081318831A520C2
:10030000813120002708AB002608AA00A601A7011A
:1003100041089B000730BE01F000F1012A08FE3EB3
:10032000F200FF302B3DF3008831D5208131710878
:100330002100E0007008DF0060085F04031DB2299F
:10034000003020002B02093003192A02031CB229B5
:1003500084318124813182314A2281318831932054
:100360008131C529883197208131C52920003E0877
:10037000003A03195429013A03196B29033A031966
:100380007329013A03197B29C5292000911093197B
:100390009311911EE72900302702D230031926025B
:1003A0000318E729230019082000D80026081E3E5C
:1003B000D900233003182430DA00590886005A087F
:1003C000870058088100A60A0319A70A9A014A0B58
:1003D000432A0B1D432AAE0A0319AF0A372A2F08F6
:1003E000803AD8002D08803A5802031DF9292C08BC
:1003F0002E02031C422A200033088131FE292F08D7
:10040000803AD8002D08803A5802031D092A2C088A
:100410002E020318132A422ABC01BC0A1C2ABC0162
:1004200033088231122A20003C08003A03190C2AB2
:10043000013A03190F2A1C2A2000AE01AF01422AFB
:100440002F08803AD8002D08803A5802031D2A2A26
:100450002C082E02031C422A01302100B600B701ED
:1004600064302000C90088319B208131422A49082C
:10047000003A0319EF29013A0319FF29033A031936
:10048000202A422A0B1120005B08FF000900880186
:10049000893135292100A00A0319A10A0319A20AEA
:1004A0000319A30A0730F000F10120002A08FE3EDC
:1004B000F200FF302B3DF300022582317108A500C8
:1004C0007008A400D4248231003025021E300319A4
:1004D000240203180800E008031D08002A081D3E36
:1004E0002D2582315F06031D0800D601D70125089E
:1004F0005702031D7D2A240856020318A42A570810
:10050000F10056088731BC278231BF24823171083F
:10051000D5007008D400223E860023300318890AD3
:100520008700010AD1005408223ED200233003186C
:10053000890AD300520886005308870051088100B9
:10054000D60A0319D70A772AB6228631E32E5D250B
:10055000823164248231C030F0001130F100143057
:10056000F2001F303C24640001000800CD01CE01E0
:1005700025084E02031DBE2A24084D020318080058
:100580004E08F1004D088731BC278231BF248231EB
:100590007108D0007008CF003A2582315E06031D35
:1005A0000D2B4F081F3E2D2582315D06031D0D2B9F
:1005B0004F08203E342582315C06031D0D2B4F0869
:1005C000243E34258231713A031D0D2BB508031DDD
:1005D0000D2B4F08223E860023300318890A010B99
:1005E0000D2BB501B50A5D25823164248231502579
:1005F00082313C248231D030F0003F30F10068304D
:10060000F2001F303C248231D130572582313C2406
:10061000823102302000B900010020004F083A2545
:1006200082315E06031D482B4F081F3E2D25823167
:100630005D06031D482B4F08203E342582315C06A1
:10064000031D482B4F08243E34258231903A031D68
:10065000482BC408031D482B4F08223E8600233038
:100660000318890A010B482BC401C40A5D25823195
:1006700064248231502582313C248231D130572587
:1006800082313C248231D030572582313C24823162
:1006900020004F083A2582315E06031D6D2B4F085E
:1006A0001F3E2D2582315D06031D6D2B4F08203E18
:1006B000342582315C06031D6D2B4F08213E342505
:1006C00082317D3A031D6D2B4F08243E3425823143
:1006D000623A0319360803198F2B4F083A258231E5
:1006E0003D3A031DC52B4F081F3E2D258231223A6E
:1006F000031DC52B4F08203E34258231183A031DB7
:10070000C52B4F08213E34258231DF3A031DC52B0E
:100710004F08243E34258231A13A031DC52BB60172
:10072000B60AFD01B201622582318124823188241A
:1007300082318E24823128001E1125009301280069
:100740009D019C0121009D012700131120009310A1
:10075000911093110B138B13240095122000CB01E1
:10076000CC0120004C08803AFF0087307F02031D37
:10077000BB2BD0304B020318C32B2000CB0A03192C
:10078000CC0A6400B12BA722823120004F08243EFE
:100790002D2582316F3A031DE12BB708031DE12B94
:1007A0005D08F0005C08F100C830F201F20AF301C4
:1007B000F30AF4006F30F5005E0894248231B7012B
:1007C000B70A4F08243E2D258231753A031DF82BB8
:1007D000B7015030FA004F08243EFB0023300318C5
:1007E000890AFC007B0886007C0887007A08810063
:1007F0004F083A2582315E06031D372C4F081F3EF5
:100800002D2582315D06031D372C4F08203E3425EF
:1008100082315C06031D372C4F08243E342582317B
:10082000863A031D1B2C4F08213E34258231C60019
:10083000C701C70A372C4F08243E2D258231893A3B
:10084000031D242CC701372C4F08243E2D2582314F
:10085000873A031D2E2C27258231372C4F08243E42
:100860002D258231883A031D372C7E2482312000C9
:10087000CD0A0319CE0AB82AF3008B139517151564
:1008800015121513951670089100730892007208DE
:1008900093007108940055309600AA309600951484
:1008A0000000000000000000230055309512960063
:1008B000AA309600951400000000000000002300FC
:1008C000151195138B1708008B13700823009100E6
:1008D00071089200553015139517151615159600C9
:1008E000AA309600951400000000000000002300CC
:1008F0001511151A792C95138B170800B901B90A2F
:10090000080020001C112100911020009A0108000D
:100910008B112700121121000C15080028009501E9
:100920001711210093100800F6001E307D020318F5
:10093000080006307402031C08007D08BE3E8600D5
:1009400001308700760881007D08A03E860070088F
:1009500042258231710881007D08C03E8600720800
:1009600081007D083E3E8600730849257408810099
:100970007D08203E860075088100FD0A0800F4010C
:10098000F501701CC72C7208F4077308F53DF235A9
:10099000F30DF136F00C71087004031DC12C7508BD
:1009A000F1007408F0000800E001DF012B082100CD
:1009B000B10020002A082100B000FE30B007FF304F
:1009C000B13DF001F101210031087102031DEA2C53
:1009D0003008700270080318FE2C1E3E860023307B
:1009E00003182430870001082000DF0770083A252B
:1009F0008231E006F00A0319F10AE32C3A252000BF
:100A0000E0060800F401F501710870040319222DB5
:100A1000F601F60AF11B0F2DF035F10D092DF43515
:100A2000F50D71087302031D172D70087202031C67
:100A30001E2D7008F2027108F33B7414F136F00CAD
:100A4000F60B0F2D7508F1007408F0000800B901CD
:100A50002A25080022000E140800860023300318FF
:100A6000890A870001080800860023300318890AD4
:100A7000010808001E3E860023300318243087003A
:100A80000108080081007D08203E860002308700B2
:100A9000080081007D083E3E860001308700080086
:100AA000C030F0002230F1001430F2001F34F000AA
:100AB0003F30F1001F30F2010800C030F0001F305D
:100AC000F10008002730792582318D258231F80028
:100AD0002630792582318D25F9007808F600F70156
:100AE00076082000A300A2017908A2070318A30A30
:100AF0000800F50024001614AD258231031D7C2D5D
:100B0000B4309100AD258231031D822D750891000E
:100B1000AD25823103190800882D9F258231B5301B
:100B20009100A32582319615141C942D1108F00014
:100B300096161616161A9A2DA9257008080016146E
:100B4000161C0800A02D1419A32D161F0800A92596
:100B500008001615161D0800AA2D031014190314F9
:100B60000030093DF0001F30F1011605F20070045D
:100B7000F3007108F400730408000130F601F70176
:100B80000038031DC72D0030003A0319F92D01303C
:100B9000003A0319CD2D2000D42D0030003A03195E
:100BA000192E2000480B192E5E089C268531200046
:100BB0005D089C26853120005C089C26853120003C
:100BC00032089C268531770820005E065D065C06AB
:100BD0003206323AF70000309C26853132309C26AE
:100BE000853100309C268531D32685313207323E4F
:100BF000182E20005E089C26853120005D089C266A
:100C0000853120005C089C268531200030089C2618
:100C100085317708CB2685319C26853132309C265C
:100C2000853140309C268531D32685313007723E90
:100C3000F6000030003A0319402E2000C808031DBA
:100C4000402E5E089C26853120005D089C2685315B
:100C500020005C089C268531200030089C268531C8
:100C60007708CB2685319C26853132309C2685310C
:100C700040309C268531D32685313007723EF60000
:100C8000F8017D0878020318972E7808203E860028
:100C9000013087008108031D512E003000380319F0
:100CA000952E7808BE3ED92685319C268531780858
:100CB000A03ED92685319C2685317808203EDE2647
:100CC00085319C2685317808203EA426853175061D
:100CD00074067306720671060106F7067808C03EB0
:100CE00086000230870001089C26853178083E3E48
:100CF000DE2685319C2685317808203EA426853164
:100D0000750774077307720771070107F6077808FC
:100D10003E3E860001089C2685317808203E8600EC
:100D20000130870001089C268531F80A412E77089A
:100D30009C26853176089C2EF0002000111E9D2EE9
:100D4000700823009A0008008600013087007808A8
:100D50003E3E8400013085000008F10078083E3EE8
:100D60008400023085000008F2007808C03E84004C
:100D70000008F3007808203E84000008F40078089A
:100D8000A03E8400013085000008F5007808BE3ED2
:100D900084000008080020005E065D065C06300640
:100DA000723AF7000034760820005E075D075C07A2
:100DB0000800860001308700010808008600023024
:100DC000870001080800FB01FC012508F100240848
:100DD000BC278431BF24863171087C02031DF22EAA
:100DE00070087B02031808007B08243E85312D25FE
:100DF0008631503A0319B12F7B081F3E85313425C7
:100E000086315D06031D132F7B08203E8531342576
:100E100086315C06031D132F7B0885313A25863108
:100E20005E060319B12FF901FA017D08F700F801F8
:100E300078087A02031D1E2F770879020318822F83
:100E40007908BE3E8600013087007B081E3E840084
:100E5000233003182430850000080106031D7E2F6F
:100E60007908A03E86007B081F3E840023300318CB
:100E7000890A850000080106031D7E2F7908203E9F
:100E80008600023087007B08203EB62786310106A7
:100E9000031D7E2F7908203E8600013087007B08E5
:100EA000243EB62786310106031D7E2FC301C30AE7
:100EB00079083E3E8600023087007B08223EB62736
:100EC00086310102031C7E2F7908C03E86007B0814
:100ED000213EB6278631810079083E3E86007B0898
:100EE000223EB6278631810079083E3E86000130D9
:100EF00087007B08233EB62786318100F90A031953
:100F0000FA0A152FC308031DB02F7B081F3E853139
:100F10002D258631F0007B08203E85313425863131
:100F2000F1007B08213E853134258631F2007B08B3
:100F3000223E853134258631F3007B08233E8531FE
:100F400034258631F4007B08243E853134258631F2
:100F5000F5007B0885313A25863184319424863129
:100F6000C3010730FB070318FC0AE52E8400233079
:100F70000318890A00080800F0000730F200F301A6
:100F800008007008B000E22F22000E138E130E121C
:100F9000080022000E178E130E12080022000E13F6
:100FA0008E170E12080022000E178E170E12080060
:100FB00022000E138E130E16080022000E178E1339
:100FC0000E1608007108003A0319E72FF12F700878
:100FD00084000630040203180800883104350C3EF2
:100FE000820008006400800101310130FE020030FF
:100FF000FF3B7F087E0403190034F32F0034080000
:101000008B31982B8B319D2B8B31A22B8B31A72BC6
:101010008B31AC2B8B31B12B8731C42F8731C92F4A
:101020008731CE2F8731D32F8731D82F8731DD2FCE
:1011240001341C152100911408008B152700121599
:101134000800CA018B12AE01AF01080021008D1214
:1011440020008D1208008D1322001D1123009E160D
:10115400080023009E1222001D1521008D1708008F
:1011640021008D1623001D16210091160800280069
:1011740095019714171417152100931408002300E0
:101184001D1221009112C62821008D160800FE00B0
:1011940012001E000130FE020030FF3B7F087E0477
:1011A40003190034CA28710870040319F028F401E3
:1011B400F40AF11BE028F035F10DDA287108730206
:1011C400031DE62870087202031CEC287008F20262
:1011D4007108F33BF136F00CF40BE0287308F100CE
:1011E4007208F0000800003400343B3400346034EA
:1011F40000347B34003490340034A2340034B134ED
:101204000034BE340034CA340034D4340034DE3400
:101214000034E6340034EE340034F6340034FD3463
:101224000034033401344A3401344A3402344A3435
:1012340003344A3404344A3405344A3406344A34D0
:1012440007344A3408344A3409344A340A344A34B0
:101254000B344A340C344A340D344A340E344A3490
:101264000F344A3410341E30840023308500D230C9
:10127400FE000030FF018731F22789312030FD0163
:101284008400003085002B30FE000030FF008731E1
:10129400F2278931A0308400003085002C30FE0014
:1012A4000030FF008731F22789312030840001307B
:1012B40085003C30FE000030FF008731F227893181
:1012C400A0308400013085003C30FE000030FF0077
:1012D4008731F227893120308400023085003C3088
:1012E400FE000030FF008731F2278931C0308400CE
:1012F400023085001E30FE000030FF008731F227E7
:101304008931DE30DF00DD30E0002100F430DB0025
:101314000130DC00A030DD000F30DE000730DF00DC
:101324000030E000DD30E1000130E20015308400DF
:1013340089308500A0308600023087000030FF002D
:1013440020308831C9208931F53084008830850007
:1013540020308600033087000030FF0020308831C1
:10136400C92089312000B629703021009900640019
:101374002000C2012100C001E030CC001F30B9229E
:10138400893113082000DE00E1302100CC001F3039
:10139400B922893113082000DD00E2302100CC009D
:1013A4001F30B922893113082000DC00DC08031D3A
:1013B400FC29DD08031DFC29DE08031DFC29EB3094
:1013C4002100CC001C30B922893113082000DE0032
:1013D400E9302100CC001C30B922893113082000E7
:1013E400DD00E6302100CC001C30B922893113081D
:1013F4002000DC00C801B901B90AB6014C238931C7
:10140400492389312100CC01CD0194238931200065
:10141400B201FD01C723893120009A0102309B00EB
:101424009C141C141C139C121C129C111C152100CE
:10143400911423009D1722009D131D1123000730D2
:101444009F108D128D131E159F159B009C0120303B
:101454001E122100980023000C1121000C158B157D
:1014640027001215A22489316400CB238931C030AE
:101474000B11CC001F30B92289311408223A031908
:10148400462A2100C001492A2100C001C00AD030E7
:10149400CC001F30B92289311308683A031DA42AED
:1014A4002000B501B50AD1302100CC001F30B9228B
:1014B40089311308C03003196F2A2100CC001F3072
:1014C400CD00FF228931C0302100CC0011306227C9
:1014D4008931CE2289310100A42A2100CC001F3099
:1014E400CD00FF228931C0302100CC002230622798
:1014F4008931CE228931D1302100CC003F30CD005A
:10150400FF30CE001F30CE228931D0302100CC00F4
:101514003F30CD006830CE001F30CE22893120000C
:101524005D082100CC0020005C082100CD00323091
:10153400CE01CF01CF0AD0007330D10020005E0865
:101544001B2389310B178B17C5268931C93020001D
:101554003B02031CB62ABB010030003A0319B42A2B
:10156400CF238931A12489310D248931A62ACD00C4
:101574008B134C082300910021004D082300920096
:101584001513951715140000000000000000230037
:10159400151095138B170800CF008B132300951794
:1015A400151515121513951621004C0823009100EA
:1015B40021004F082300920021004E0823009300CD
:1015C40021004D082300940055309600AA3096005F
:1015D400951400000000000000002300553095120F
:1015E4009600AA3096009514000000000000000048
:1015F4002300151195138B1708008B134C08230037
:10160400910021004D0823009200553015139517C1
:10161400151615159600AA309600951400000000C2
:101624000000000023001511151A162B95138B17B3
:1016340008002100D2001E307D0203180800063085
:101644005002031C08007D08BE3E8600013087005E
:10165400520881007D08A03E86004C088531422551
:1016640089314D0881007D08C03E86004E08810006
:101674007D083E3E86004F0885314925500881008B
:101684007D08203E860051088100FD0A08002200E2
:101694000E10080023000E138E1321000E138E1358
:1016A4000E1223008D120C118D1321008D160C15B2
:1016B4008D1723000E108E1021000E108E102000A6
:1016C4008E1023000D1321000D1320000D13230091
:1016D4000D1221000D1220000D1223000E15210001
:1016E4000E1523008E1121008E1120008E11210071
:1016F4008E1220008E1221008C1220008C122300E6
:101704000C1221000C1220000C1223000C102100DA
:101714000C1020000C1023008C1021008C102000D1
:101724008C1008004C082000B000B62B22000E13C9
:101734008E130E12080022000E178E130E120800CC
:1017440022000E138E170E12080022000E178E1799
:101754000E12080022000E138E130E16080022002B
:101764000E178E130E16080021004D08003A0319B7
:10177400BC2BC62B4C088400063004020318080056
:1017840088310435003E820008008B1527001215AD
:1017940008001530210097000800C8012100CE017F
:1017A400CF017D08CC00CD014D084F02031DDC2B79
:1017B4004C084E02031808004E08BE3E8600013055
:1017C4008700010820005E06031DFC2B21004E0843
:1017D400A03E8600010820005D06031DFC2B2100AD
:1017E4004E08203E860002308700010820005C0677
:1017F4000319082C21004E08203E86000130870082
:101804008108031D082C2000C801C80A2100CE0A43
:101814000319CF0AD32B18248931D2265808200063
:10182400C000400807390F3EC10008000230210003
:101834002B02BD3003192A02031C0800AA01AB01C4
:10184400CE017D084E02031808004E083E3E860075
:101854000130870081034E083E3E860005300102B8
:101864000318392C4E08CC00CD013B248931CE0A13
:10187400232CFD034C08BE3E8600013087007D0802
:10188400BE3E840001308500000881004C08A03E63
:1018940086007D08A03E8400000881004C08203E9C
:1018A4008600023087007D08203E840002308500D7
:1018B400000881004C08C03E86007D08C03E8400BC
:1018C400000881004C083E3E86007D083E3E8400B0
:1018D400000881004C083E3E8600013087007D08E8
:1018E4003E3E840001308500000881004C08203E03
:1018F40086007D08203E8400000881007D08BE3EED
:1019040086007A3081007D08A03E86007A308531D9
:10191400422589317A3081007D08C03E86007A30C4
:1019240081007D083E3E86007A30853149257A3033
:1019340081007D08203E86007A30810008002F2F28
:10194400A72489317E258931BD2E21000D160D175E
:101954000E30921124009200FF3095169515151142
:1019640095101510930014179417200091119211DB
:1019740008002000470BC02C46080800B80A0230B3
:101984003802031CE12CB8010C258931F324893178
:10199400220A0319230A0319DD2CB108031DE32CC1
:1019A400210821005E02031DDB2C200020082100F9
:1019B4005D020318E32C5F258931E12CBD26320832
:1019C40008002000310BF22C21005C0820002102C9
:1019D400031DF02C21005B0820002002031CE02CD6
:1019E400112E2530252589313C258931D400243018
:1019F400252589313C25D5005408D200D30152084D
:101A04002000A100A001210055082000A007031810
:101A1400A10A08002730252589313C258931D400C5
:101A24002630252589313C25D5005408D200D30120
:101A340052082000A300A201210055082000A2079B
:101A44000318A30A08002100D10024001614422719
:101A54008931031D292DB430240091004227893196
:101A6400031D302D510824009100422789310319A8
:101A74000800372D51258931B5309100562589311B
:101A84009615141C432D11082100CC002400961631
:101A94001616161A4B2D5B2521004C08080024004D
:101AA4001614161C0800532D1419562D161F080061
:101AB4005B2D1615161D08005C2D2100D301D401E1
:101AC40067252000B101B10A080000305402063035
:101AD40003195302031C712D0530D300D40154089B
:101AE400A9005308A8002808CC001730E82589313C
:101AF400AB30CC001830E82D21001830CC01CC0AD2
:101B0400E82589311730CC000730E82589310F30BA
:101B1400CC00E82589311030CC01E82589315030DA
:101B2400CC000830E82589315030CC000930E82554
:101B340089315030CC000A30E82589310330CC009B
:101B44001730E8258931AB30CC001830E8258931CD
:101B54001730CC01CC0AE8258931A130CC001830EB
:101B6400E82589311730CC01E8258931AE30CC0025
:101B74001830E82589313030CC001730E825893118
:101B8400BD30CC001830E82589310330CC00173043
:101B9400E8258931BE30CC001830E825893117306A
:101BA400CC01E8258931BF30CC001830E8258931D3
:101BB4002130CC001730E8258931A130CC00183011
:101BC400E82589310F30CC001830E82DD2002400EC
:101BD400161403105627893133278931031DEB2D41
:101BE400B4302400910003105627893133278931FA
:101BF400031DF52D52082400910003105627893146
:101C040033278931031DFF2D4C0824009100031054
:101C1400562789313327893103190800092E2308EF
:101C24002100DA00200022082100D9002000310818
:101C34000319252E56302100D907FF30DA3DD93556
:101C4400DA0DD935DA0D2100D701D801D501D60135
:101C54005A0825002102031D332E210059082500AE
:101C64002002031C382E2100D701472E21005A08D8
:101C740025003F02031D422E2100590825003E0283
:101C84000318492EFF302100D700D801A62E2100C9
:101C9400D4015435A23E5A2789315A085302031DF0
:101CA400552E59085202031C9A2E5435A03E5A2729
:101CB40089315A085302031D612E59085202031830
:101CC4009A2E5A08D6005908D5005435A03E5A27F2
:101CD40089315208D5025308D63B5435203E86003C
:101CE400033087005435223E840003308500403F92
:101CF4000002CC000131413F003BCD005608CF002B
:101D04005508CE00A82689314D08D8004C08D700C4
:101D14005808D700D8015435203E86000330870088
:101D2400403FD200413FD3005208D7075308D83D63
:101D34000F30D40A5402031C4B2E013058020030D9
:101D4400031957020318442E57080800D001D10183
:101D54004C1CB02E4E08D0074F08D13DCE35CF0DC8
:101D6400CD36CC0C4D084C04031DAA2E5108CD00D1
:101D74005008CC00080003302100D300D4016725AB
:101D84002000B10108002000C208031964002000EB
:101D9400A80A0319A90ABB0A390803190800662FFF
:101DA4002000BF08031DDC2E2100CC01CC0ACD018C
:101DB4000027893121002708CF002608CE002508F6
:101DC400CD002408CC004130D300C630D2004E30C0
:101DD400D1006D30D0000A2739304C07A4003030D0
:101DE4004D3DA50000304E3DA60000304F3DA700FC
:101DF4002708D9002608D800D91308004C08A400E5
:101E04004D08A500A601A7012000BF01BF0A0800D4
:101E1400D401D501D601D7014C1C182F5008D40782
:101E24005108D53D5208D63D5308D73DD035D10D84
:101E3400D20DD30DCF36CE0CCD0CCC0C4F084E04A6
:101E44004D044C04031D0E2F5708CF005608CE0036
:101E54005508CD005408CC000800BB242000B20073
:101E64000800093D2100CD001F30CE0124001605D5
:101E74002100CF004D04D0004E08D10050040800CA
:101E840003102400141903140030093D2100CC0070
:101E94001F30CD01240016052100CE004C04CF00D4
:101EA4004D08D0004F040800240014190314003412
:101EB400860002308700403FD200413FD300080033
:101EC400CD001430CE001F34C32FF52F0030210075
:101ED4002302031D772F00302202031D772F0030C9
:101EE4002102031D772F14302002031C0800200058
:101EF4003A08003A0319822F013A03198A2FD12F85
:101F0400BA01BA0A2100A001A101A201A301492B2F
:101F1400BA0112302100A000A101A201A301F22FF5
:101F240064302100CC00CD01F7278931D2278931D3
:101F34004D084C04031D0800A42FBA01BA0A892FC6
:101F4400BA01912F20003A08003A03199F2F013A51
:101F54000319A22FD12FD0302100CC000730CD009F
:101F6400F7278931D22789314D084C04031D080015
:101F740020003A08003A03199F2F013A0319A22FAF
:101F8400D12F3908003A0319672F013A0319682F32
:101F9400033A0319922F013A0319AD2FD12F0800E8
:101FA4004D084C040319ED2FD001D00ACD1BDD2FB1
:101FB400CC35CD0DD72F4D084F02031DE32F4C0810
:101FC4004E02031CE92F4C08CE024D08CF3BCD3600
:101FD400CC0CD00BDD2F4F08CD004E08CC000800F0
:101FE40022000E140800B901492B20002908210001
:0C1FF400CF00200028082100CE000800CB
:020000040001F9
:02000E00DCCF45
:00000001FF
