:0402000082314C2AD1
:10020800813120007F08CE002700131D19298B316A
:10021800A52381318B31AC2381310430280096002D
:1002280087316C2781312700131120009318422948
:100238004D298B31B2238131873181278131873133
:10024800642781318331D823813102302800960018
:100258002100CD01CD0A87316C2781314B298731A7
:1002680074278131CD018B31B223813101302000D7
:100278009B009A018731952781314B2921004D0830
:10028800003A03191D29013A031933294B29200083
:100298009310911CCC292100A80A0319A90ABC298A
:1002A8008B31AC23813120000630AD0A2D020318B2
:1002B800AD012D08F000F1018631EF26813187313B
:1002C8008727813101309B002100C801C80ACA294B
:1002D800873169278131023020009B002100C80046
:1002E800CA29063020009B0003302100C80087314E
:1002F8007B278131CA29873164278131873181275A
:10030800813120002308A5002208A400A201A3012E
:1003180036089B0021000730C801F000F1012000D9
:100328002408FE3EF200FF30253DF30087312027E8
:10033800813171082100E7007008E600670866044B
:10034800031DB829003020002502093003192402B2
:10035800031CB8298B31A523813189316A21813168
:10036800873195278131CA29873191278131CA2957
:100378004808003A03195429013A03196C29033A29
:1003880003197529013A03197F29CA2920009110F8
:1003980093199311911EEC2900302302D2300319CE
:1003A80022020318EC29230019082000CB00220898
:1003B8001E3ECC00233003182430CD004C088600A4
:1003C8004D0887004B088100A20A0319A30A9A0165
:1003D8003D0B482A0B1D482AA80A0319A90A3C2ADA
:1003E8002908803ACB002708803A4B02031DFE29D2
:1003F80026082802031C472A20002C088231032AD9
:100408002908803ACB002708803A4B02031D0E2AA0
:10041800260828020318182A472AB401B40A212AF0
:10042800B4012C088231172A20003408003A031935
:10043800112A013A0319142A212A2000A801A90126
:10044800472A2908803ACB002708803A4B02031D27
:100458002F2A26082802031C472A01302100B6004B
:10046800B70164302000BC0087318C278131472ACE
:100478003C08003A0319F429013A0319042A033AFB
:100488000319252A472A0B1120004E08FF000900EE
:1004980088018C317B2C3A0B532A3908080021003B
:1004A800E101E201E301E401DD01DE01DF01E00138
:1004B800E50120002B08210065020318BC2A650805
:1004C800203E8600013087008108031DBA2A65088E
:1004D8003E3E86008108031D7E2A6508A03E8600F0
:1004E8000108E10701300318E2070318E3070318BE
:1004F800E407BA2A6508A03E860001308700010893
:10050800D200D30165083E3E8600D0238231E62220
:10051800823150082100D50020004F082100D40066
:10052800262382315208D8005308C8238231E107B4
:100538005908E23D5A08E33D5B08E43D65083E3E44
:10054800860001308700D0238231E62282314F08AD
:100558002100D800200050082100C8238231DD077F
:100568005908DE3D5A08DF3D5B08E03DE50A5D2A93
:1005780060085F045E045D04031DC42A6108080066
:1005880060082000D20021005F082000D10021006F
:100598005E082000D00021005D082000CF00210067
:1005A80064082000D600210063082000D50021003F
:1005B80062082000D400210061082000D3004523F0
:1005C8004F080800D401D01FF02ACF09D009CF0A5C
:1005D8000319D00AD401D40AD21FF92AD109D209A1
:1005E800D10A0319D20A0130D406D501D601500820
:1005F8004F040319192BD301D30AD01B062BCF356F
:10060800D00D002BD535D60D50085202031D0E2BE8
:100618004F085102031C152B4F08D1025008D23B3A
:100628005514D036CF0CD30B062B54080319212BA5
:10063800D509D609D50A0319D60A5608D00055088F
:10064800CF0008002000D701D8012100521C332B0D
:1006580054082000D707210055082000D83D210064
:10066800D435D50DD336D20C53085204031D292B8B
:10067800200058082100D300200057082100D2008C
:1006880008002100D3012000D21F582BCF09D00920
:10069800D109D209CF0A0319D00A0319D10A0319BB
:1006A800D20A2100D301D30A2000D61F692BD3090F
:1006B800D409D509D609D30A0319D40A0319D50AC6
:1006C8000319D60A01302100D3062100D401D5012F
:1006D800D601D70120005208510450044F040319D1
:1006E800A92B2100D201D20A2000D21B812BCF35A1
:1006F800D00DD10DD20D2100772B2100D435D50D89
:10070800D60DD70D200052085602031D952B51080F
:100718005502031D952B50085402031D952B4F08B5
:100728005302031CA12B4F08D3025008D43B510895
:10073800D53B5208D63B210054142000D236D10CA8
:10074800D00CCF0C2100D20B812B210053080319A8
:10075800B82BD409D509D609D709D40A0319D50A5B
:100768000319D60A0319D70A57082000D200210016
:1007780056082000D100210055082000D000210093
:1007880054082000CF000800D9000030D91BFF30E2
:10079800DA00DB005808080001082000CF001430F8
:1007A800D001D100D20108000030F601F70100386D
:1007B800031DE22B003A0319122C0030003A0319EA
:1007C800E72B2000EE2B0030003A0319322C2000D2
:1007D8003B0B322C5B08B424833120005A08B42424
:1007E800833120005908B42483317D08B42483312F
:1007F800770820005B065A0659067D06323AF7004C
:100808000030B42483313230B42483310030B4242E
:100818008331E92483317D07323E312C20005B0887
:10082800B424833120005A08B424833120005908A5
:10083800B424833120002A08B42483317708E124C2
:100848008331B42483313230B42483314030B4242A
:100858008331E92483312A07723EF6000030003ADA
:100868000319592C2000BB08031D592C5B08B4241C
:10087800833120005A08B424833120005908B42455
:10088800833120002A08B42483317708E124833196
:10089800B42483313230B42483314030B4248331DA
:1008A800E92483312A07723EF600F80120002B085C
:1008B80078020318AF2C7808203E860001308700A4
:1008C8008108031D6B2C013000380319AD2C780802
:1008D8003E3EEF248331B42483317808203EEF2450
:1008E8008331B42483317808A03E86000230870023
:1008F8000108B42483317808203EBC24833175066E
:1009080074067306720671060106F7067808A03E9B
:1009180086000108B424833178083E3EF4248331EC
:10092800B42483317808203EBC24833175077407CA
:100938007307720771070107F6077808BE3E86003D
:100948000108B42483317808203EF4248331B42488
:100958008331F80A5A2C7708B42483317608B42CEA
:10096800F0002000111EB52C700823009A00080022
:100978008600013087007808BE3E8400013085007B
:100988000008F10078083E3E84000008F20078086C
:10099800A03E84000008F3007808A03E84000230DE
:1009A80085000008F4007808203E84000008F5005F
:1009B80078083E3E84000008080020005B065A06BE
:1009C80059062A06723AF7000034760820005B07B9
:1009D8005A075907080086000230870001080800F6
:1009E80086000130870001080800FB01FC01200097
:1009F8002108F1002008D1258B31E62384317108C4
:100A08007C02031D092D70087B02031808007B086F
:100A1800243E8C3151248431503A0319C02D7B086F
:100A28001F3E8C31582484315A06031D2A2D7B0819
:100A3800203E8C31582484315906031D2A2D7B0809
:100A48008C315E2484315B060319C02DF901FA014B
:100A580020002B08F700F80178087A02031D362DCC
:100A68007708790203188F2D79083E3E86000230F8
:100A780087007B081E3E840023300318243085003D
:100A880000080106031D8B2D7908203E86007B088F
:100A98001F3E840023300318890A850000080106D8
:100AA800031D8B2D7908A03E86007B08203EC525B6
:100AB80084310106031D8B2D7908203E8600013004
:100AC80087007B08243EC52584310106031D8B2D34
:100AD8002100CC01CC0ACB258431C5258431010203
:100AE800031C8B2D7908A03E86007B08213EC52576
:100AF80084318100CB258431C52584318100790872
:100B0800BE3E86007B08233EC52584318100F90A54
:100B18000319FA0A2C2D2100CC08031DBE2D7B08D1
:100B28001F3E8C3151248431F0007B08203E8C31EB
:100B380058248431F1007B08213E8C3158248431BB
:100B4800F2007B08223E8C3158248431F3007B0864
:100B5800233E8C3158248431F4007B08243E8C31A8
:100B680058248431F5007B088C315E2484318B3124
:100B7800B82384312100CC010730FB070318FC0A95
:100B8800FB2C840023300318890A00080800790820
:100B98003E3E86007B08223E0800F0000730F20047
:100BA800F3010800302E622E003021002302031DBD
:100BB800E72D00302202031DE72D00302102031D1E
:100BC800E72D14302002031C080020003208003AE8
:100BD8000319F22D013A0319FB2D3E2EB201B20A78
:100BE8002100A001A101A201A3018E31622EB20150
:100BF80012302100A000A101A201A3015F2E6430E0
:100C0800CF00D001652685313F26853150084F0435
:100C1800031D0800142EB201B20AF92DB201022EEA
:100C28003208003A03190F2E013A0319122E3E2EEC
:100C3800D030CF000730D000652685313F2685317A
:100C480050084F04031D08003208003A03190F2EFC
:100C5800013A0319122E3E2E3108003A0319D72DF6
:100C6800013A0319D82D033A0319032E013A03193F
:100C78001C2E3E2E080050084F0403195A2ED3018B
:100C8800D30AD01B4A2ECF35D00D442E500852021D
:100C9800031D502E4F085102031C562E4F08D10237
:100CA8005008D23BD036CF0CD30B4A2E5208D00076
:100CB8005108CF00080022000E140800B1018E313F
:100CC800622E21002B082000D20021002A082000D3
:100CD800D10008002100C908031D782E2000CF018B
:100CE800CF0AD001AC26863127082000D200210087
:100CF80026082000D100210025082000D00021006E
:100D080024082000CF004130D600C630D5004E3030
:100D1800D4006D30D300B82639304F072100A40025
:100D280030302000503D2100A50000302000513D0A
:100D38002100A60000302000523D2100A70027080E
:100D48002000D800210026082000D700D81308006A
:100D58004F082100A400200050082100A500A6018A
:100D6800A701C901C90A08002100D201D301D40191
:100D7800D50120004F1CCF2E53082100D207200098
:100D880054082100D33D200055082100D43D2000FF
:100D980056082100D53D2000D335D40DD50DD60DEC
:100DA800D236D10CD00CCF0C5208510450044F0449
:100DB800031DBD2E210055082000D2002100540833
:100DC8002000D100210053082000D0002100520843
:100DD8002000CF0008007008AA00102F22000E1370
:100DE8008E130E12080022000E178E130E12080022
:100DF80022000E138E170E12080022000E178E17EF
:100E08000E12080022000E138E130E160800220080
:100E18000E178E130E1608007108003A0319152FC5
:100E28001F2F700884000630040203180800873159
:100E38000435583E820008007108700403193B2FDE
:100E4800F401F40AF11B2B2FF035F10D252F710851
:100E58007302031D312F70087202031C372F7008AC
:100E6800F2027108F33BF136F00CF40B2B2F7308E8
:100E7800F1007208F00008006400800101310130BF
:100E8800FE020030FF3B7F087E0403190034412F27
:100E98008E31B02E8E31B52E8E31BA2E8E31BF2EB8
:100EA8008E31C42E8E31C92E8631F22E8631F72E20
:100EB8008631FC2E8731012F8731062F87310B2F82
:100EC80023001D1221009112692F21008D160800A0
:100ED800280095019714171417152100931408007A
:100EE80023009E1222001D1521008D1708008D1663
:100EF80023001D162100911608008D1322001D11D4
:100F080023009E16080021008D1220008D12080073
:100F1800BD018B12A801A90108008B152700121525
:100F280008001C1521009114080000340800003442
:040F3800013400344C
:1012D4002100A00A0319A10A0319A20A0319A30AE7
:1012E4000730F000F10120002408FE3EF200FF3038
:1012F400253DF300292489317108A1007008A0005C
:10130400FB238931003021021E3003192002031807
:101314000800DD08031D080024081D3E51248931FE
:101324005C06031D0800C901CA0121084A02031D05
:101334009D29200849020318C4294A08F1004908D4
:101344008531D1258931E62389317108C8007008B7
:10135400C700223E860023300318890A8700010A49
:10136400C4004708223EC50023300318890AC6007A
:10137400450886004608870044088100C90A031905
:10138400CA0A9729D6218431F92C732489318823F8
:101394008931C030F0001130F1001430F2001F30F8
:1013A4006023640001000800C001C101210841025A
:1013B400031DDE2920084002031808004108F1003B
:1013C40040088531D1258931E62389317108C3006C
:1013D4007008C2005E2489315B06031D2D2A420871
:1013E4001F3E512489315A06031D2D2A4208203EEE
:1013F400582489315906031D2D2A4208243E5824B5
:101404008931713A031D2D2AAE08031D2D2A420885
:10141400223E860023300318890A010B2D2AAE01CF
:10142400AE0A732489318823893166248931602383
:101434008931D030F0003F30F1006830F2001F30C5
:1014440060238931D1306D248931602389310230A0
:101454002000B1000100200042085E2489315B06AF
:10146400031D682A42081F3E512489315A06031D70
:10147400682A4208203E582489315906031D682AE7
:101484004208243E58248931903A031D682AB8083A
:10149400031D682A4208223E860023300318890A65
:1014A400010B682AB801B80A732489318823893169
:1014B4006624893160238931D1306D2489316023D8
:1014C4008931D0306D24893160238931200042086C
:1014D4005E2489315B06031D8D2A42081F3E512478
:1014E40089315A06031D8D2A4208203E5824893129
:1014F4005906031D8D2A4208213E582489317D3A1C
:10150400031D8D2A4208243E58248931623A031966
:101514002F080319AF2A42085E2489313D3A031D7E
:10152400E92A42081F3E51248931223A031DE92A3F
:101534004208203E58248931183A031DE92A4208FA
:10154400213E58248931DF3A031DE92A4208243E0A
:1015540058248931A13A031DE92AAF01AF0AAB012E
:10156400FD01A5238931AC238931B22389312800B7
:101574001E112500930128009D019C0120008E1559
:101584008E16FF302500910021009D0127001311C4
:1015940020009310911093110B138B1324009512B8
:1015A4002000BE01BF0120003F08803AFF008730C1
:1015B4007F02031DDF2AD0303E020318E72A2000F1
:1015C400BE0A0319BF0A6400D52AC7218931200045
:1015D4004208243E512489316F3A031D052BB0087B
:1015E400031D052B5A08F0005908F100C830F20118
:1015F400F20AF301F30AF4006F30F5005B08B82334
:101604008931B001B00A4208243E51248931753A27
:10161400031D1C2BB0015030F7004208243EF80093
:1016240023300318890AF9007808860079088700AE
:101634007708810042085E2489315B06031D5B2B19
:1016440042081F3E512489315A06031D5B2B420870
:10165400203E582489315906031D5B2B4208243E41
:1016640058248931863A031D3F2B4208213E5824D1
:101674008931B900BA01BA0A5B2B4208243E5124CD
:101684008931893A031D482BBA015B2B4208243E59
:1016940051248931873A031D522B4E2489315B2B07
:1016A4004208243E51248931883A031D5B2BA2232E
:1016B40089312000C00A0319C10AD829F3008B1309
:1016C40095171515151215139516700891007308C2
:1016D4009200720893007108940055309600AA3065
:1016E400960095140000000000000000230055300F
:1016F40095129600AA309600951400000000000090
:1017040000002300151195138B1708008B13700824
:101714002300910071089200553015139517151682
:1017240015159600AA3096009514000000000000DC
:10173400000023001511151A9D2B95138B17080013
:10174400B101B10A080020001C11210091102000F1
:101754009A0108008B112700121121000C150800B2
:10176400280095011711210093100800F6001E307F
:1017740020002B020318080006307402031C080022
:101784002B083E3E860002308700760881002B0835
:10179400203E8600700881002B08A03E8600710858
:1017A400E227720881002B083E3E86007308810000
:1017B4002B08BE3E8600740881002B08203E86005C
:1017C40075088100AB0A0800F401F501701CEE2BCA
:1017D4007208F4077308F53DF235F30DF136F00C99
:1017E40071087004031DE82B7508F1007408F000FB
:1017F4000800DD01DC0125082100B10020002408D7
:101804002100B000FE30B007FF30B13DF001F1011E
:10181400210031087102031D112C30087002700878
:101824000318252C1E3E860023300318243087001D
:1018340001082000DC0770085E248931DD06F00A07
:101844000319F10A0A2C5E242000DD060800F401C5
:10185400F501710870040319492CF601F60AF11B0D
:10186400362CF035F10D302CF435F50D710873027A
:10187400031D3E2C70087202031C452C7008F202F2
:101884007108F33B7414F136F00CF60B362C750822
:10189400F1007408F0000800B10178240800860003
:1018A40023300318890A87000108080086002330C2
:1018B4000318890A010808001E3E86002330031815
:1018C4002430870001080800C030F0002230F10005
:1018D4001430F2001F34F0003F30F1001F30F201E9
:1018E4000800C030F0001F30F100080022000E1480
:1018F40008001E30840023308500D230FE00003002
:10190400FF018731402789312030FD0184000030F8
:1019140085001E30FE000030FF01873140278931E9
:10192400A0308400003085003230FE000030FF011A
:1019340087314027893120308400013085003C30D4
:10194400FE000030FF01873140278931A030840038
:10195400013085003C30FE000030FF018731402714
:10196400893120308400023085003C30FE00003094
:10197400FF01873140278931A0308400023085007F
:101984001E30FE000030FF01873140278931DE30F0
:10199400DC00DD30DD0021000730E600DD30E7014A
:1019A400E8000130E9002000D72C703021009900B4
:1019B40064002000B7012100C001E0302000CF0006
:1019C4001F30D325893113082000DB00E130CF001C
:1019D4001F30D325893113082000DA00E230CF000C
:1019E4001F30D325893113082000D900D908031DDD
:1019F400192DDA08031D192DDB08031D192DEB30F1
:101A0400CF001C30D325893113082000DB00E930D6
:101A1400CF001C30D325893113082000DA00E630CA
:101A2400CF001C30D325893113082000D900BB0115
:101A3400B101B10AAF0165268931622689312000DE
:101A4400CF01D001AD268931FD012000AB01DE2696
:101A5400893120009A0102309B009C141C141C1331
:101A64009C121C129C111C152100911423009D171B
:101A740022009D131D11230007309F108D128D131A
:101A84001E159F159B009C0120301E1221009800FA
:101A940023000C1121000C158B1527001215192792
:101AA40089316400E2268931C0300B112000CF0057
:101AB4001F30D32589311408223A0319642D2100DB
:101AC400C001672D2100C001C00AD0302000CF0022
:101AD4001F30D32589311308683A031DBE2D200019
:101AE400AE01AE0AD130CF001F30D325893113089F
:101AF400C03003198D2D2000CF001F30D0001926CF
:101B04008931C0302000CF001130E9278931E82520
:101B140089310100BE2D2000CF001F30D0001926CE
:101B24008931C0302000CF002230E9278931E825EF
:101B34008931D1302000CF003F30D000FF30D100B8
:101B44001F30E8258931D0302000CF003F30D0004D
:101B54006830D1001F30E825893120005A08CF00B1
:101B64005908D0003230D101D201D20AD3007330E7
:101B7400D4005B08352689310B178B17AC278931C4
:101B8400C93020003302031CD02DB3010030003AC9
:101B94000319CE2DE6268931BB2789311A278931CD
:101BA400C02DD0008B134F08230091002000500853
:101BB400230092001513951715140000000000006F
:101BC40000002300151095138B170800D2008B1307
:101BD40023009517151515121513951620004F0897
:101BE4002300910020005208230092002000510895
:101BF40023009300200050082300940055309600E1
:101C0400AA30960095140000000000000000230094
:101C1400553095129600AA309600951400000000E5
:101C2400000000002300151195138B1708008B1377
:101C34004F082300910020005008230092005530E3
:101C440015139517151615159600AA3096009514B8
:101C5400000000000000000023001511151A302EAA
:101C640095138B170800D5001E302B0203180800AB
:101C740006305302031C08002B083E3E8600023047
:101C84008700550881002B08203E86004F088100FC
:101C94002B08A03E86005008E227510881002B083B
:101CA4003E3E8600520881002B08BE3E8600530843
:101CB40081002B08203E860054088100AB0A0800EE
:101CC40022000E10080023000E138E1321000E13A1
:101CD4008E130E1223008D120C118D1321008D16FC
:101CE4000C158D1723000E108E1021000E108E106F
:101CF40020008E1023000D1321000D1320000D135E
:101D040023000D1221000D1220000D1223000E15C8
:101D140021000E1523008E1121008E1120008E113A
:101D240021008E1220008E1221008C1220008C12B1
:101D340023000C1221000C1220000C1223000C10A2
:101D440021000C1020000C1023008C1021008C109A
:101D540020008C1008004F08AA00CE2E22000E137B
:101D64008E130E12080022000E178E130E12080096
:101D740022000E138E170E12080022000E178E1763
:101D84000E12080022000E138E130E1608002200F5
:101D94000E178E130E1608005008003A0319D32E9E
:101DA400DD2E4F0884000630040203180800873132
:101DB40004354C3E820008008B15270012150800DC
:101DC4001530210097000800BB01D101D2012B0876
:101DD400CF00D00150085202031DF22E4F085102C9
:101DE4000318080051083E3E8600023087000108AF
:101DF4005B06031D0B2F5108203E860001085A067E
:101E0400031D0B2F5108A03E860001085906031933
:101E1400152F5108203E8600013087008108031DDC
:101E2400152FBB01BB0AD10A0319D20AE92EBE2F12
:101E3400242786316E265708B500350807390F3E2A
:101E4400B6000800023021002902BD30031928021F
:101E5400031C0800A801A9012000D1012B0851028C
:101E6400031808005108BE3E860001308700810334
:101E74005108BE3E8600053001020318462F510862
:101E8400CF00D00148278931D10A302FAB034F0846
:101E94003E3E8600023087002B083E3E840002301E
:101EA4008500000881004F08203E86002B08203E54
:101EB4008400000881004F08A03E86002B08A03E45
:101EC4008400000881004F08A03E8600013087008E
:101ED4002B08A03E840001308500000881004F08D3
:101EE4003E3E86002B083E3E8400000881004F08D9
:101EF400BE3E86002B08BE3E8400000881004F08C9
:101F0400203E86002B08203E8400000881002B0818
:101F14003E3E8600023087007A3081002B08203E46
:101F240086007A3081002B08A03E86007A30E227B2
:101F34007A3081002B083E3E86007A3081002B08DF
:101F4400BE3E86007A3081002B08203E86007A301F
:101F5400810008002000B708031964002100AA0AC0
:101F64000319AB0A2000B30A3108031908008531AC
:101F7400D62DDD278931DB2F22001E1021008E1182
:101F84008E1222008E168E152100E901E90AFF3017
:101F940028009D000C3025009300FF3091009E1412
:101FA4001E102000931128009C019E141E141E155F
:101FB40008007D08ED2F003082314F22FD0008001B
:101FC40081002B08A03E8600013087000800D00065
:101FD4001430D1001F342000CF0011304F02031CF5
:101FE400CF012100690BFB2F20004F092500910030
:0C1FF400080020004F08250091000800A4
:020000040001F9
:02000E00DCCF45
:00000001FF
