:100200008231472A01340800813120007F08DC0058
:100210002700131D19298F311F2781318F31262780
:1002200081310430280096008B316823813127000A
:1002300013112000931843294D298F312C27813128
:100240008B31542381318731F62781318531B425B3
:1002500081310230280096002000C401C40A8B318D
:10026000682381314B298B315A2381312000C4010D
:100270008F312C278131013020009B009A018B3176
:10028000422381314B294408003A03191D29013AC0
:10029000031933294B2920009310911CC7292100F1
:1002A000C60A0319C70AB6298F31262781312000D3
:1002B0000630B10A31020318B1013108F000F10132
:1002C0008B319C2381318B314F23813101309B0055
:1002D000BC01BC0AC5298731FB27813102302000CF
:1002E0009B00BC00C52906309B000330BC008B314D
:1002F00061238131C5298731F62781318B31542320
:10030000813120002308A7002208A600A201A30132
:1003100040089B000730BC01F000F1012608FE3EBA
:10032000F200FF30273DF3008B317C2381317108CF
:100330002100ED007008EC006D086C04031DB2296B
:10034000003020002702093003192602031CB229BD
:100350008F311F2781318C31EA2481318B31422347
:100360008131C5298B3146238131C52920003C08C4
:10037000003A03195429013A03196B29033A031966
:100380007329013A03197B29C5292000911093197B
:100390009311911EE72900302302D2300319220263
:1003A0000318E729230019082000D90022081E3E5F
:1003B000DA00233003182430DB005A0886005B087B
:1003C000870059088100A20A0319A30A9A01490B60
:1003D000432A0B1D432AAA0A0319AB0A372A2B0802
:1003E000803AD9002908803A5902031DF9292808C2
:1003F0002A02031C422A200030088131FE292B08E2
:10040000803AD9002908803A5902031D092A280890
:100410002A020318132A422AB901B90A1C2AB9016F
:1004200030088231122A20003908003A03190C2AB8
:10043000013A03190F2A1C2A2000AA01AB01422A03
:100440002B08803AD9002908803A5902031D2A2A2C
:1004500028082A02031C422A01302100D200D301BD
:1004600064302000C8008B314A238131422A480879
:10047000003A0319EF29013A0319FF29033A031936
:10048000202A422A0B1120005C08FF000900880185
:1004900082314A2A1E30840023308500D230FE008B
:1004A0000030FF018B31702382312030FD01840048
:1004B000003085002C30FE000030FF018B317023AE
:1004C0008231A0308400003085004230FE000030D0
:1004D000FF018B3170238231203084000130850090
:1004E0003C30FE000030FF018B3170238231A030A0
:1004F0008400013085003C30FE000030FF018B316C
:100500007023823120308400023085003C30FE00B0
:100510000030FF018B3170238231DE30E000DD30AE
:10052000E10021000730EC00DD30ED01EE0001308C
:10053000EF0020009B2A7030210099006400200009
:10054000C1012100DA01E030E2001F309C2382313A
:1005500013082000DF00E1302100E2001F309C235F
:10056000823113082000DE00E2302100E2001F305B
:100570009C23823113082000DD00DD08031DE12AE1
:10058000DE08031DE12ADF08031DE12AEB3021000C
:10059000E2001C309C23823113082000DF00E93088
:1005A0002100E2001C309C23823113082000DE0071
:1005B000E6302100E2001C309C2382311308200029
:1005C000DD00C701B601B60AB3014C2482314924CB
:1005D00082312100E201E30194248231FD012000F7
:1005E000AF01C724823120009A0102309B009C1485
:1005F0001C141C139C121C129C111C15210091141C
:1006000023009D1722009D131D11230007309F100A
:100610008D128D131E159F159B009C0120301E12FC
:100620002100980023000C1121000C158B152700C8
:1006300012156400CB248231C0300B11E2001F3050
:100640009C2382311408223A0319292B2100DA0154
:100650002C2B2100DA01DA0AD030E2001F309C2373
:1006600082311308683A031D872B2000B201B20AB9
:10067000D1302100E2001F309C2382311308C030AA
:100680000319522B2100E2001F30E300E2238231E4
:10069000C0302100E2001130B0258231B123823117
:1006A0000100872B2100E2001F30E300E2238231AA
:1006B000C0302100E2002230B0258231B1238231E6
:1006C000D1302100E2003F30E300FF30E4001F3072
:1006D000B1238231D0302100E2003F30E3006830A6
:1006E000E4001F30B123823120005E082100E200C7
:1006F00020005D082100E3003230E401E501E50A55
:10070000E6007330E70020005F08FE2382310B17FC
:100710008B1740258231C93020003802031C992BE9
:10072000B8010130003A0319972BCF2482313F25BD
:1007300082310D258231892BE3008B13620823005F
:1007400091002100630823009200151395171514DA
:1007500000000000000000002300151095138B1707
:100760000800E5008B1323009517151515121513B6
:1007700095162100620823009100210065082300DE
:1007800092002100640823009300210063082300E5
:10079000940055309600AA30960095140000000091
:1007A000000000002300553095129600AA309600F4
:1007B000951400000000000000002300151195139F
:1007C0008B1708008B136208230091002100630837
:1007D0002300920055301513951715161515960020
:1007E000AA309600951400000000000000002300CD
:1007F0001511151AF92B95138B1708002100E80025
:100800001E3020002F020318080006302100660267
:10081000031C080020002F08BE3E86000130870020
:1008200021006808810020002F08A03E86002100DA
:100830006208810020002F08203E860002308700D9
:1008400021006308810020002F08203E860001302F
:10085000870021006408810020002F083E3E8600AA
:100860000230870021006508810020002F083E3EED
:1008700086000130870021006608810020002F08D3
:10088000A03E860087012100670881002000AF0A92
:10089000080022000E10080023000E138E13210002
:1008A0000E138E130E1223008D120C118D132100C6
:1008B0008D160C158D1723000E108E1021000E10B2
:1008C0008E1020008E1023000D1321000D13200028
:1008D0000D1323000D1221000D1220000D12230014
:1008E0000E1521000E1523008E1121008E112000FF
:1008F0008E1121008E1220008E1221008C122000F9
:100900008C1223000C1221000C1220000C12230068
:100910000C1021000C1020000C1023008C10210062
:100920008C1020008C10080062082000AD00B62C4E
:1009300022000E138E130E12080022000E178E13C3
:100940000E12080022000E138E170E12080022004D
:100950000E178E170E12080022000E138E130E169D
:10096000080022000E178E130E16080021006308DF
:10097000003A0319BC2CC62C62088400063004021D
:100980000318080088310435003E820008008B15EA
:100990002700121508001530210097000800C70134
:1009A0002100E401E50120002F082100E200E3011D
:1009B00063086502031DDE2C620864020318080048
:1009C0006408BE3E860001308700010820005F06F3
:1009D000031DFE2C21006408A03E860001082000B3
:1009E0005E06031DFE2C21006408203E86000230B6
:1009F0008700010820005D060319082D2100640806
:100A00008631CB268231031D082D2000C701C70A7D
:100A10002100E40A0319E50AD32C18258231782530
:100A20006A082000BF003F0807390F3EC0000800D9
:100A3000023021004702BD3003194602031C0800A2
:100A4000C601C701E40120002F0821006402031839
:100A5000080064083E3E8600013087008103640878
:100A60003E3E86000530010203183C2D6408E2007A
:100A7000E3018B31CD2382312100E40A232D4E2D59
:100A80002000C108031964002000A40A0319A50A64
:100A9000B80A3608031908008C314E2C0030522554
:100AA000FD0008002000460B572D450808002100D6
:100AB000E201E30120002F08210063020318762DD4
:100AC00063088631CB268231031D742D6308203ED6
:100AD000860001308700010862020318742D630844
:100AE000203E86000108E200E30A5A2D6208080051
:100AF0002000BD08031D812D2100E201E20AE3016F
:100B0000A62521004508E5004408E4004308E30069
:100B10004208E2004130E900C630E8004E30E7000C
:100B20006D30E6008731BF2739306207C2003030B0
:100B3000633DC3000030643DC4000030653DC50026
:100B40004508EB004408EA00EB1308006208C20005
:100B50006308C300C401C5012000BD01BD0A08002F
:100B6000E3001430E4001F340030F601F7010038D0
:100B7000031DBE2D0130003A0319EF2D0030003A5D
:100B80000319C42D2000CB2D0130003A03190F2E7C
:100B90002000470B0F2E5F088926853120005E0854
:100BA0008926853120005D08892685317D088926C2
:100BB0008531770820005F065E065D067D06323AC5
:100BC000F7000030892685313230892685310030A2
:100BD00089268531C52685317D07323E0E2E2000BF
:100BE0005F088926853120005E088926853120002E
:100BF0005D088926853120002D08892685317708F2
:100C0000BD268531892685313230892685314030AF
:100C100089268531C52685312D07723EF6000130C3
:100C2000003A0319362E2000C708031D362E5F0830
:100C30008926853120005E088926853120005D08DF
:100C40008926853120002D08892685317708BD2623
:100C50008531892685313230892685314030892693
:100C60008531C52685312D07723EF600F80120003A
:100C70002F0878020318842E7808CB268531031DAF
:100C8000452E003000380319822E7808BE3ED0264B
:100C90008531892685317808A03ED0268531892680
:100CA00085317808203ED5268531892685319126E3
:100CB0008531750674067306720671060106F7061D
:100CC0007808203EDA2685318926853178083E3E2F
:100CD000D52685318926853191268531750774079A
:100CE0007307720771070107F60778083E3EDA2698
:100CF0008531892685317808A03E86008701010864
:100D000089268531F80A372E7708892685317608B5
:100D1000892EF0002000111E8A2E700823009A00F0
:100D200008007808A03E8600870178083E3E8400CF
:100D3000013085000008F10078083E3E8400023052
:100D400085000008F2007808203E8400013085000C
:100D50000008F3007808203E840002308500000877
:100D6000F4007808A03E8400013085000008F500FA
:100D70007808BE3E84000008080020005F065E067A
:100D80005D062D06723AF7000034760820005F07F2
:100D90005E075D070800A03E860087018108080005
:100DA00086000130870001080800860002308700B5
:100DB0000108080086000130870001080800FB01D7
:100DC000FC012108F1002008BA278F313227863133
:100DD00071087C02031DEE2E70087B0203180800C8
:100DE0007B08243E8F31D6278631503A0319A22F33
:100DF0007B081F3E8F31DD2786315E06031D0F2FD6
:100E00007B08203E8F31DD2786315D06031D0F2FC5
:100E10007B088F31E32786315F060319A22FF90182
:100E2000FA012F08F700F80178087A02031D1A2F3B
:100E3000770879020318732F7908BE3E86000130C7
:100E400087007B081E3E8400233003182430850071
:100E500000080106031D6F2F7908A03E86007B085D
:100E60001F3E840023300318890A8500000801060C
:100E7000031D6F2F7908203E8600023087007B0813
:100E8000203EB42786310106031D6F2F7908A03E4E
:100E9000860087017B08243EB42786310106031DA6
:100EA0006F2FC201C20AA72786310102031C6F2FD0
:100EB0007908203E8600013087007B08213EB42758
:100EC00086318100A7278631810079083E3E860061
:100ED000013087007B08233EB42786318100F90A60
:100EE0000319FA0A112FC208031DA12F7B081F3E08
:100EF0008F31D6278631F0007B08203E8F31DD27E9
:100F00008631F1007B08213E8F31DD278631F200EA
:100F10007B08223E8F31DD278631F3007B08233E9C
:100F20008F31DD278631F4007B08243E8F31DD27A9
:100F30008631F5007B088F31E32786318F319A2780
:100F40008631C2010730FB070318FC0AE12E79083D
:100F50003E3E8600023087007B08223E840023301C
:100F60000318890A00080800840023300318890A3E
:100F700000080800F0000730F200F301080022002A
:100F8000DC01DD01DE01DF012100621CD62F6608D5
:100F90002200DC07210067082200DD3D21006808EF
:100FA0002200DE3D210069082200DF3D2100E635F8
:100FB000E70DE80DE90DE536E40CE30CE20C6508FD
:100FC000640463046204031DC42F22005F0821002F
:100FD000E50022005E082100E40022005D082100F7
:100FE000E30022005C082100E200080023001D123B
:100FF00021009112FB2F21008D16080001340800FA
:101000008431982C84319D2C8431A22C8431A72CDE
:101010008431AC2C8431B12C8B319F2B8B31A42BA0
:101020008B31A92B8B31AE2B8B31B32B8B31B82B62
:10168000003400341C152100911408008B1527002C
:1016900012150800C9018B12AA01AB010800210034
:1016A0008D1220008D1208008D1322001D112300C1
:1016B0009E16080023009E1222001D1521008D1782
:1016C000080021008D1623001D1621009116080028
:1016D000280095019714171417152100931408007A
:1016E0006400800101310130FE020030FF3B7F08C1
:1016F0007E0403190034712B710870040319972BB1
:10170000F401F40AF11B872BF035F10D812B7108E0
:101710007302031D8D2B70087202031C932B70083B
:10172000F2027108F33BF136F00CF40B872B7308CF
:10173000F1007208F00008007008AD00BD2B220017
:101740000E138E130E12080022000E178E130E12A7
:10175000080022000E138E170E12080022000E172A
:101760008E170E12080022000E138E130E1608009C
:1017700022000E178E130E1608007108003A031986
:10178000C22BCC2B7008840006300402031808001A
:10179000883104350C3E820008002000AF03210090
:1017A0006208BE3E86000130870020002F08BE3E42
:1017B000840001302E248B31A03E860020002F08AB
:1017C000A03E84000008810021006208203E4224DF
:1017D0008B31203E840002302E248B31203E482461
:1017E0008B31203E840001302E248B313E3E42243A
:1017F0008B313E3E840002302E248B313E3E482405
:101800008B313E3E840001302E248B31A03E860079
:10181000870120002F08A03E840085010008810078
:101820002F08BE3E8600013087007A3081002F08E5
:10183000A03E86007A3081002F08203E3B248B3169
:10184000203E34248B313E3E3B248B313E3E3424BB
:10185000A03E86007A3087018100080085000008DC
:1018600081002100620808008600013087007A307C
:1018700081002F0808008600023087007A3081003E
:101880002F08080086000230870020002F0808007B
:1018900086000130870020002F080800AC2CDE2CC9
:1018A000003021004102031D5F2C00304002031D67
:1018B0005F2C00303F02031D5F2C14303E02031CDE
:1018C000080020003708003A03196A2C013A03196E
:1018D000732CBA2CB701B70A2100BE01BF01C001A9
:1018E000C1018431492CB70112302100BE00BF0173
:1018F000C001C101DB2C64302100E200E301E124DE
:101900008C31BB248C3163086204031D08008D2CCC
:10191000B701B70A712CB7017A2C20003708003ABA
:101920000319882C013A03198B2CBA2CD0302100D2
:10193000E2000730E300E1248C31BB248C316308E2
:101940006204031D080020003708003A0319882CA0
:10195000013A03198B2CBA2C3608003A03194F2C84
:10196000013A0319502C033A03197B2C013A03194D
:10197000962CBA2C0800630862040319D62CE601E1
:10198000E60AE31BC62CE235E30DC02C63086502B2
:10199000031DCC2C62086402031CD22C6208E402F2
:1019A0006308E53BE336E20CE60BC62C6508E30072
:1019B0006408E200080022000E140800B601843119
:1019C000492C200025082100E500200024082100E2
:1019D000E40008002100BE0A0319BF0A0319C00A67
:1019E0000319C10A0730F000F10120002608FE3E6D
:1019F000F200FF30273DF30075278C317108A100FC
:101A00007008A00047278C31003021021E300319D6
:101A1000200203180800E108031D080026081D3EE7
:101A2000D6278C316006031D0800D701D801210894
:101A30005802031D1D2D200857020318442D580875
:101A4000F10057088731BA278C3132278C31710861
:101A5000D6007008D500223E860023300318890A7C
:101A60008700010AD2005508223ED3002330031814
:101A7000890AD40053088600540887005208810060
:101A8000D70A0319D80A172D56258631DF2EF827D5
:101A90008C3102278C31C030F0001130F10014304D
:101AA000F2001F30DA26640001000800CE01CF01E9
:101AB00021084F02031D5E2D20084E020318080066
:101AC0004F08F1004E088731BA278C3132278C310C
:101AD0007108D1007008D000E3278C315F06031D28
:101AE000AD2D50081F3ED6278C315E06031DAD2D4F
:101AF0005008203EDD278C315D06031DAD2D5008BA
:101B0000243EDD278C31713A031DAD2DB208031D33
:101B1000AD2D5008223E860023300318890A010BA0
:101B2000AD2DB201B20AF8278C3102278C31EB2798
:101B30008C31DA268C31D030F0003F30F100683043
:101B4000F2001F30DA268C31D130F2278C31DA26C0
:101B50008C3102302000B600010020005008E3273D
:101B60008C315F06031DE82D50081F3ED6278C31AF
:101B70005E06031DE82D5008203EDD278C315D06F2
:101B8000031DE82D5008243EDD278C31903A031DBB
:101B9000E82DC308031DE82D5008223E860023309F
:101BA0000318890A010BE82DC301C30AF8278C31F9
:101BB00002278C31EB278C31DA268C31D130F22799
:101BC0008C31DA268C31D030F2278C31DA268C3108
:101BD00020005008E3278C315F06031D0D2E5008AE
:101BE0001F3ED6278C315E06031D0D2E5008203E69
:101BF000DD278C315D06031D0D2E5008213EDD27AB
:101C00008C317D3A031D0D2E5008243EDD278C318A
:101C1000623A0319330803192F2E5008E3278C3139
:101C20003D3A031D632E50081F3ED6278C31223AC1
:101C3000031D632E5008203EDD278C31183A031D0A
:101C4000632E5008213EDD278C31DF3A031D632EC1
:101C50005008243EDD278C31A13A031D632EB301C9
:101C6000B30AAF01FD011F278C3126278C312C27A9
:101C70008C3128001E112500930128009D019C0134
:101C800021009D0127001311200093109110931142
:101C90000B138B13240095122000CC01CD012000E2
:101CA0004D08803AFF0087307F02031D592ED03047
:101CB0004C020318612E2000CC0A0319CD0A6400DF
:101CC0004F2E47258C3120005008243ED6278C31DA
:101CD0006F3A031D7F2EB508031D7F2E5E08F000AE
:101CE0005D08F100C830F201F20AF301F30AF400D2
:101CF0006F30F5005F089A278C31B501B50A50089E
:101D0000243ED6278C31753A031D962EB5015030EE
:101D1000F7005008243EF80023300318890AF90020
:101D20007808860079088700770881005008E32743
:101D30008C315F06031DD52E50081F3ED6278C31EF
:101D40005E06031DD52E5008203EDD278C315D0632
:101D5000031DD52E5008243EDD278C31863A031D05
:101D6000B92E5008213EDD278C31C500C601C60AB8
:101D7000D52E5008243ED6278C31893A031DC22E19
:101D8000C601D52E5008243ED6278C31873A031D34
:101D9000CC2ED3278C31D52E5008243ED6278C311B
:101DA000883A031DD52E1C278C312000CE0A03193A
:101DB000CF0A582DF3008B1395171515151215130F
:101DC00095167008910073089200720893007108CC
:101DD000940055309600AA3096009514000000003B
:101DE000000000002300553095129600AA3096009E
:101DF0009514000000000000000023001511951349
:101E00008B1708008B137008230091007108920053
:101E1000553015139517151615159600AA3096000E
:101E20009514000000000000000023001511151A91
:101E3000172F95138B170800B601B60A080020006B
:101E40001C112100911020009A0108008B1127001D
:101E5000121121000C15080028009501171121000E
:101E600093100800F401F501701C3A2F7208F40772
:101E70007308F53DF235F30DF136F00C710870047E
:101E8000031D342F7508F1007408F0000800E1010B
:101E9000E00127082100CD00200026082100CC0009
:101EA000FE30CC07FF30CD3DF001F10121004D089F
:101EB0007102031D5D2F4C08700270080318712F0A
:101EC0001E3E8600233003182430870001082000BE
:101ED000E0077008E3278C31E106F00A0319F10AE4
:101EE000562FE3272000E1060800F401F5017108F0
:101EF00070040319952FF601F60AF11B822FF035B5
:101F0000F10D7C2FF435F50D71087302031D8A2F36
:101F100070087202031C912F7008F2027108F33BE3
:101F20007414F136F00CF60B822F7508F10074086A
:101F3000F0000800F6001E302F02031808000630DB
:101F40007402031C08002F08BE3E86000130870083
:101F5000760881002F08A03E8600700881002F08B7
:101F6000203E860002308700710881002F08203E45
:101F7000860001308700720881002F083E3E8600EF
:101F800002308700730881002F083E3E8600013032
:101F90008700740881002F08A03E8600870175081D
:101FA0008100AF0A0800B601FD2708008600233033
:101FB0000318890A870001080800860023300318E7
:101FC000890A010808001E3E8600233003182430C9
:101FD000870001080800C030F0002230F100143002
:101FE000F2001F34F0003F30F1001F30F201080012
:101FF000C030F0001F30F100080022000E1408006D
:020000040001F9
:02000E00DCCF45
:00000001FF
