:0402000082314C2AD1
:10020800813120007F08CE002700131D19298B316A
:100218005B2381318B3162238131043028009600C1
:100228008631E726813127001311200093184229CF
:100238004D298B31682381318631FC268131863105
:10024800DF2681318331D82381310230280096009E
:100258002100CD01CD0A8631E72681314B2986312F
:10026800EF268131CD018B316823813101302000A7
:100278009B009A018731102781314B2921004D08B5
:10028800003A03191D29013A031933294B29200083
:100298009310911CCC292100A80A0319A90ABC298A
:1002A8008B316223813120000630AD0A2D020318FC
:1002B800AD012D08F000F10186316A2681318731C0
:1002C8000227813101309B002100C801C80ACA29D0
:1002D8008631E4268131023020009B002100C800CD
:1002E800CA29063020009B0003302100C80086314F
:1002F800F6268131CA298631DF2681318631FC26EE
:10030800813120002308A5002208A400A201A3012E
:1003180036089B0021000730C801F000F1012000D9
:100328002408FE3EF200FF30253DF30086319B266F
:10033800813171082100E7007008E600670866044B
:10034800031DB829003020002502093003192402B2
:10035800031CB8298B315B238131893126218131F6
:10036800873110278131CA2987310C278131CA2961
:100378004808003A03195429013A03196C29033A29
:1003880003197529013A03197F29CA2920009110F8
:1003980093199311911EEC2900302302D2300319CE
:1003A80022020318EC29230019082000CB00220898
:1003B8001E3ECC00233003182430CD004C088600A4
:1003C8004D0887004B088100A20A0319A30A9A0165
:1003D8003D0B482A0B1D482AA80A0319A90A3C2ADA
:1003E8002908803ACB002708803A4B02031DFE29D2
:1003F80026082802031C472A20002C088231032AD9
:100408002908803ACB002708803A4B02031D0E2AA0
:10041800260828020318182A472AB401B40A212AF0
:10042800B4012C088231172A20003408003A031935
:10043800112A013A0319142A212A2000A801A90126
:10044800472A2908803ACB002708803A4B02031D27
:100458002F2A26082802031C472A01302100B6004B
:10046800B70164302000BC00873107278131472A53
:100478003C08003A0319F429013A0319042A033AFB
:100488000319252A472A0B1120004E08FF000900EE
:1004980088018C31312C3A0B532A39080800210085
:1004A800E101E201E301E401DD01DE01DF01E00138
:1004B800E50120002B08210065020318BC2A650805
:1004C800203E8600013087008108031DBA2A65088E
:1004D8003E3E86008108031D7E2A6508A03E8600F0
:1004E8000108E10701300318E2070318E3070318BE
:1004F800E407BA2A6508A03E860001308700010893
:10050800D200D30165083E3E8600D0238231E62220
:10051800823150082100D50020004F082100D40066
:10052800262382315208D8005308C8238231E107B4
:100538005908E23D5A08E33D5B08E43D65083E3E44
:10054800860001308700D0238231E62282314F08AD
:100558002100D800200050082100C8238231DD077F
:100568005908DE3D5A08DF3D5B08E03DE50A5D2A93
:1005780060085F045E045D04031DC42A6108080066
:1005880060082000D20021005F082000D10021006F
:100598005E082000D00021005D082000CF00210067
:1005A80064082000D600210063082000D50021003F
:1005B80062082000D400210061082000D3004523F0
:1005C8004F080800D401D01FF02ACF09D009CF0A5C
:1005D8000319D00AD401D40AD21FF92AD109D209A1
:1005E800D10A0319D20A0130D406D501D601500820
:1005F8004F040319192BD301D30AD01B062BCF356F
:10060800D00D002BD535D60D50085202031D0E2BE8
:100618004F085102031C152B4F08D1025008D23B3A
:100628005514D036CF0CD30B062B54080319212BA5
:10063800D509D609D50A0319D60A5608D00055088F
:10064800CF0008002000D701D8012100521C332B0D
:1006580054082000D707210055082000D83D210064
:10066800D435D50DD336D20C53085204031D292B8B
:10067800200058082100D300200057082100D2008C
:1006880008002100D3012000D21F582BCF09D00920
:10069800D109D209CF0A0319D00A0319D10A0319BB
:1006A800D20A2100D301D30A2000D61F692BD3090F
:1006B800D409D509D609D30A0319D40A0319D50AC6
:1006C8000319D60A01302100D3062100D401D5012F
:1006D800D601D70120005208510450044F040319D1
:1006E800A92B2100D201D20A2000D21B812BCF35A1
:1006F800D00DD10DD20D2100772B2100D435D50D89
:10070800D60DD70D200052085602031D952B51080F
:100718005502031D952B50085402031D952B4F08B5
:100728005302031CA12B4F08D3025008D43B510895
:10073800D53B5208D63B210054142000D236D10CA8
:10074800D00CCF0C2100D20B812B210053080319A8
:10075800B82BD409D509D609D709D40A0319D50A5B
:100768000319D60A0319D70A57082000D200210016
:1007780056082000D100210055082000D000210093
:1007880054082000CF000800D9000030D91BFF30E2
:10079800DA00DB005808080001082000CF001430F8
:1007A800D001D100D20108000030F601F70100386D
:1007B800031DE22B003A0319122C0030003A0319EA
:1007C800E72B2000EE2B0030003A0319322C2000D2
:1007D8003B0B322C5B08B024833120005A08B0242C
:1007E800833120005908B02483317D08B024833137
:1007F800770820005B065A0659067D06323AF7004C
:100808000030B02483313230B02483310030B0243A
:100818008331E52483317D07323E312C20005B088B
:10082800B024833120005A08B024833120005908AD
:10083800B024833120002A08B02483317708DD24CE
:100848008331B02483313230B02483314030B02436
:100858008331E52483312A07723EF6000030003ADE
:100868000319592C2000BB08031D592C5B08B02420
:10087800833120005A08B024833120005908B0245D
:10088800833120002A08B02483317708DD2483319E
:10089800B02483313230B02483314030B0248331E6
:1008A800E52483312A07723EF600F80120002B0860
:1008B80078020318AB2C7808203E860001308700A8
:1008C80081080319003078083E3EEB248331B024B8
:1008D80083317808203EEB248331B02483317808B3
:1008E800A03E8600023087000108B02483317808D2
:1008F800203EB824833175067406730672067106A5
:100908000106F7067808A03E86000108B024833166
:1009180078083E3EF0248331B02483317808203EA5
:10092800B8248331750774077307720771070107C5
:10093800F6077808BE3E86000108B024833178089F
:10094800203EF0248331B0248331F80A5A2C7708EA
:10095800B02483317608B02CF0002000111EB12C91
:10096800700823009A000800860001308700780884
:10097800BE3E8400013085000008F10078083E3E44
:1009880084000008F2007808A03E84000008F30004
:100998007808A03E8400023085000008F40078083A
:1009A800203E84000008F50078083E3E84000008D8
:1009B800080020005B065A0659062A06723AF70014
:1009C8000034760820005B075A075907080086009C
:1009D80002308700010808008600013087000108FE
:1009E8000800FB01FC0120002108F1002008CD25AA
:1009F8008B319C23843171087C02031D052D7008FE
:100A08007B02031808007B08243E8C310A248431B9
:100A1800503A0319BC2D7B081F3E8C3111248431B8
:100A28005A06031D262D7B08203E8C311124843163
:100A38005906031D262D7B088C31172484315B064B
:100A48000319BC2DF901FA0120002B08F700F80161
:100A580078087A02031D322D7708790203188B2D46
:100A680079083E3E8600023087007B081E3E8400DF
:100A7800233003182430850000080106031D872D44
:100A88007908203E86007B081F3E84002330031827
:100A9800890A850000080106031D872D7908A03EF4
:100AA80086007B08203EC12584310106031D872D61
:100AB8007908203E8600013087007B08243EC12546
:100AC80084310106031D872D2100CC01CC0AC725DE
:100AD8008431C12584310102031C872D7908A03E89
:100AE80086007B08213EC12584318100C7258431D9
:100AF800C125843181007908BE3E86007B08233EEB
:100B0800C12584318100F90A0319FA0A282D210028
:100B1800CC08031DBA2D7B081F3E8C310A24843172
:100B2800F0007B08203E8C3111248431F1007B08D1
:100B3800213E8C3111248431F2007B08223E8C3115
:100B480011248431F3007B08233E8C311124843135
:100B5800F4007B08243E8C3111248431F5007B0895
:100B68008C31172484318B316E2384312100CC01E0
:100B78000730FB070318FC0AF72C840023300318FE
:100B8800890A0008080079083E3E86007B08223E54
:100B98000800F0000730F200F30108002C2E5E2E4A
:100BA800003021002302031DE32D00302202031D23
:100BB800E32D00302102031DE32D14302002031C15
:100BC800080020003208003A0319EE2D013A0319F3
:100BD800F72D3A2EB201B20A2100A001A101A2010B
:100BE800A3018E31162EB20112302100A000A101FE
:100BF800A201A3015B2E6430CF00D00161268531AC
:100C08003B26853150084F04031D0800102EB20101
:100C1800B20AF52DB201FE2D3208003A03190B2E47
:100C2800013A03190E2E3A2ED030CF000730D000EB
:100C3800612685313B26853150084F04031D080085
:100C48003208003A03190B2E013A03190E2E3A2ED8
:100C58003108003A0319D32D013A0319D42D033A68
:100C68000319FF2D013A0319182E3A2E08005008CF
:100C78004F040319562ED301D30AD01B462ECF3565
:100C8800D00D402E50085202031D4C2E4F08510221
:100C9800031C522E4F08D1025008D23BD036CF0C3D
:100CA800D30B462E5208D0005108CF00080022006E
:100CB8000E140800B1018E31162E21002B082000D9
:100CC800D20021002A082000D10008007008AA00DC
:100CD8008B2E22000E138E130E12080022000E1700
:100CE8008E130E12080022000E138E170E12080023
:100CF80022000E178E170E12080022000E138E13F4
:100D08000E16080022000E178E130E160800710822
:100D1800003A0319902E9A2E7008840006300402B7
:100D28000318080086310435D33E82000800710894
:100D380070040319B62EF401F40AF11BA62EF0353F
:100D4800F10DA02E71087302031DAC2E70087202FB
:100D5800031CB22E7008F2027108F33BF136F00C56
:100D6800F40BA62E7308F1007208F0000800640066
:100D7800800101310130FE020030FF3B7F087E0414
:100D880003190034BC2E8E31642E8E31692E8E31BB
:100D98006E2E8E31732E8E31782E8E317D2E8631C9
:100DA8006D2E8631722E8631772E86317C2E8631D5
:100DB800812E8631862E23001D1221009112E42EE9
:100DC80021008D160800280095019714171417158F
:100DD80021009314080023009E1222001D152100F3
:100DE8008D1708008D1623001D1621009116080086
:100DF8008D1322001D1123009E16080021008D125C
:100E080020008D120800BD018B12A801A90108005D
:100E18008B152700121508001C15210091140800D5
:0C0E2800003408000800003400340034DE
:10124C002100A00A0319A10A0319A20A0319A30A6F
:10125C000730F000F10120002408FE3EF200FF30C0
:10126C00253DF300DF2389317108A1007008A0002F
:10127C00B1238931003021021E30031920020318DA
:10128C000800DD08031D080024081D3E0A248931CE
:10129C005C06031D0800C901CA0121084A02031D8E
:1012AC00592920084902031880294A08F1004908E5
:1012BC008531CD2589319C2389317108C80070088E
:1012CC00C700223E860023300318890A8700010AD2
:1012DC00C4004708223EC50023300318890AC60003
:1012EC00450886004608870044088100C90A03198E
:1012FC00CA0A532992218431F52C2C2489313E239E
:10130C008931C030F0001130F1001430F2001F3080
:10131C001623640001000800C001C101210841022C
:10132C00031D9A2920084002031808004108F10007
:10133C0040088531CD2589319C2389317108C30042
:10134C007008C200172489315B06031DE929420885
:10135C001F3E0A2489315A06031DE9294208203E02
:10136C00112489315906031DE9294208243E112410
:10137C008931713A031DE929AE08031DE929420898
:10138C00223E860023300318890A010BE929AE019D
:10139C00AE0A2C2489313E2389311F24893116232E
:1013AC008931D030F0003F30F1006830F2001F304E
:1013BC0016238931D1302624893116238931023004
:1013CC002000B100010020004208172489315B067F
:1013DC00031D242A42081F3E0A2489315A06031D84
:1013EC00242A4208203E112489315906031D242A3F
:1013FC004208243E11248931903A031D242AB8084E
:10140C00031D242A4208223E860023300318890A31
:10141C00010B242AB801B80A2C2489313E238931C6
:10142C001F24893116238931D13026248931162382
:10143C008931D03026248931162389312000420885
:10144C00172489315B06031D492A42081F3E0A24D2
:10145C0089315A06031D492A4208203E112489313C
:10146C005906031D492A4208213E112489317D3A2F
:10147C00031D492A4208243E11248931623A03197A
:10148C002F0803196B2A4208172489313D3A031D92
:10149C009F2A42081F3E0A248931223A031D9F2AA3
:1014AC004208203E11248931183A031D9F2A420814
:1014BC00213E11248931DF3A031D9F2A4208243E24
:1014CC0011248931A13A031D9F2AAF01AF0AAB0148
:1014DC00FD015B238931622389316823893128001E
:1014EC001E112500930128009D019C0121009D01E6
:1014FC002700131120009310911093110B138B13D1
:10150C00240095122000BE01BF0120003F08803A44
:10151C00FF0087307F02031D952AD0303E0203184E
:10152C009D2A2000BE0A0319BF0A64008B2A83215E
:10153C00893120004208243E0A2489316F3A031D68
:10154C00BB2AB008031DBB2A5A08F0005908F10049
:10155C00C830F201F20AF301F30AF4006F30F5001F
:10156C005B086E238931B001B00A4208243E0A247C
:10157C008931753A031DD22AB0015030F700420868
:10158C00243EF80023300318890AF90078088600F5
:10159C0079088700770881004208172489315B0697
:1015AC00031D112B42081F3E0A2489315A06031DC4
:1015BC00112B4208203E112489315906031D112B91
:1015CC004208243E11248931863A031DF52A42082B
:1015DC00213E11248931B900BA01BA0A112B4208F3
:1015EC00243E0A248931893A031DFE2ABA01112BA3
:1015FC004208243E0A248931873A031D082B04240F
:10160C008931112B4208243E0A248931883A031D62
:10161C00112B582389312000C00A0319C10A9429BF
:10162C00F3008B13951715151512151395167008D5
:10163C009100730892007208930071089400553061
:10164C009600AA30960095140000000000000000DF
:10165C002300553095129600AA3096009514000080
:10166C000000000000002300151195138B170800D3
:10167C008B137008230091007108920055301513DC
:10168C009517151615159600AA309600951400009E
:10169C0000000000000023001511151A532B9513A0
:1016AC008B170800B101B10A080020001C112100A1
:1016BC00911020009A0108008B11270012112100B3
:1016CC000C15080028009501171121009310080033
:1016DC00F6001E3020002B0203180800063074029E
:1016EC00031C08002B083E3E86000230870076085B
:1016FC0081002B08203E8600700881002B08A03E3C
:10170C00860071087427720881002B083E3E860003
:10171C00730881002B08BE3E8600740881002B08DC
:10172C00203E860075088100AB0A0800F401F50123
:10173C00701CA42B7208F4077308F53DF235F30DF9
:10174C00F136F00C71087004031D9E2B7508F10026
:10175C007408F0000800DD01DC0125082100B1004F
:10176C00200024082100B000FE30B007FF30B13D4E
:10177C00F001F101210031087102031DC72B300863
:10178C00700270080318DB2B1E3E860023300318F2
:10179C002430870001082000DC07700817248931E9
:1017AC00DD06F00A0319F10AC02B17242000DD0610
:1017BC000800F401F501710870040319FF2BF60100
:1017CC00F60AF11BEC2BF035F10DE62BF435F50D8B
:1017DC0071087302031DF42B70087202031CFB2B9F
:1017EC007008F2027108F33B7414F136F00CF60B2E
:1017FC00EC2B7508F1007408F0000800B101072407
:10180C00080022000E140800860023300318890AF1
:10181C00870001080800860023300318890A010894
:10182C0008001E3E86002330031824308700010870
:10183C000800C030F0002230F1001430F2001F34E8
:10184C00F0003F30F1001F30F2010800C030F00012
:10185C001F30F10008001E30840023308500D23088
:10186C00FE000030FF018631BB2689312030FD019E
:10187C008400003085001E30FE000030FF018631F0
:10188C00BB268931A0308400003085003230FE0048
:10189C000030FF018631BB268931203084000130B5
:1018AC0085003C30FE000030FF018631BB268931BB
:1018BC00A0308400013085003C30FE000030FF0178
:1018CC008631BB26893120308400023085003C30C3
:1018DC00FE000030FF018631BB268931A030840028
:1018EC00023085001E30FE000030FF018631BB2621
:1018FC008931DE30DC00DD30DD0021000730E60010
:10190C00DD30E701E8000130E90020008D2C70305B
:10191C002100990064002000B7012100C001E030D3
:10192C002000CF001F308725893113082000DB00F1
:10193C00E130CF001F308725893113082000DA00F1
:10194C00E230CF001F308725893113082000D900E1
:10195C00D908031DCF2CDA08031DCF2CDB08031D7F
:10196C00CF2CEB30CF001C30872589311308200099
:10197C00DB00E930CF001C308725893113082000AB
:10198C00DA00E630CF001C3087258931130820009F
:10199C00D900BB01B101B10AAF0119268931162654
:1019AC0089312000CF01D00161268931FD01200051
:1019BC00AB019226893120009A0102309B009C14C5
:1019CC001C141C139C121C129C111C15210091142C
:1019DC0023009D1722009D131D11230007309F101B
:1019EC008D128D131E159F159B009C0120301E120D
:1019FC002100980023000C1121000C158B152700D9
:101A0C001215640096268931C0300B112000CF00CE
:101A1C001F30872589311408223A0319182D21000B
:101A2C00C0011B2D2100C001C00AD0302000CF0006
:101A3C001F30872589311308683A031D722D200049
:101A4C00AE01AE0AD130CF001F3087258931130883
:101A5C00C0300319412D2000CF001F30D000CD2500
:101A6C008931C0302000CF0011307B2789319C2573
:101A7C0089310100722D2000CF001F30D000CD2500
:101A8C008931C0302000CF0022307B2789319C2542
:101A9C008931D1302000CF003F30D000FF30D10051
:101AAC001F309C258931D0302000CF003F30D00032
:101ABC006830D1001F309C25893120005A08CF0096
:101ACC005908D0003230D101D201D20AD300733080
:101ADC00D4005B08E92589310B178B175F278931F7
:101AEC00C93020003302031C842DB3010030003AAE
:101AFC000319822D9A2689316E278931CD26893199
:101B0C00742DD0008B134F08230091002000500837
:101B1C002300920015139517151400000000000007
:101B2C0000002300151095138B170800D2008B139F
:101B3C0023009517151515121513951620004F082F
:101B4C00230091002000520823009200200051082D
:101B5C002300930020005008230094005530960079
:101B6C00AA3096009514000000000000000023002D
:101B7C00553095129600AA3096009514000000007E
:101B8C00000000002300151195138B1708008B1310
:101B9C004F0823009100200050082300920055307C
:101BAC0015139517151615159600AA309600951451
:101BBC00000000000000000023001511151AE42D90
:101BCC0095138B170800D5001E302B020318080044
:101BDC0006305302031C08002B083E3E86000230E0
:101BEC008700550881002B08203E86004F08810095
:101BFC002B08A03E860050087427510881002B0842
:101C0C003E3E8600520881002B08BE3E86005308DB
:101C1C0081002B08203E860054088100AB0A080086
:101C2C0022000E10080023000E138E1321000E1339
:101C3C008E130E1223008D120C118D1321008D1694
:101C4C000C158D1723000E108E1021000E108E1007
:101C5C0020008E1023000D1321000D1320000D13F6
:101C6C0023000D1221000D1220000D1223000E1561
:101C7C0021000E1523008E1121008E1120008E11D3
:101C8C0021008E1220008E1221008C1220008C124A
:101C9C0023000C1221000C1220000C1223000C103B
:101CAC0021000C1020000C1023008C1021008C1033
:101CBC0020008C1008004F08AA00822E22000E1360
:101CCC008E130E12080022000E178E130E1208002F
:101CDC0022000E138E170E12080022000E178E17FC
:101CEC000E12080022000E138E130E16080022008E
:101CFC000E178E130E1608005008003A0319872E83
:101D0C00912E4F0884000630040203180800863117
:101D1C000435C73E820008008B15270012150800F9
:101D2C001530210097000800BB01D101D2012B080E
:101D3C00CF00D00150085202031DA62E4F085102AD
:101D4C000318080051083E3E860002308700010847
:101D5C005B06031DBF2E5108203E860001085A0663
:101D6C00031DBF2E5108A03E860001085906031919
:101D7C00C92E5108203E8600013087008108031DC2
:101D8C00C92EBB01BB0AD10A0319D20A9D2ED72634
:101D9C0089317F275708B500350807390F3EB60043
:101DAC000800023021002902BD3003192802031C4F
:101DBC000800A801A9012000D1012B085102031829
:101DCC0008005108BE3E860001308700810351088F
:101DDC00BE3E8600053001020318F92E5108CF00D3
:101DEC00D001FB268931D10AE32EAB034F083E3ECE
:101DFC008600023087002B083E3E840002308500AE
:101E0C00000881004F08203E86002B08203E8400ED
:101E1C00000881004F08A03E86002B08A03E8400DD
:101E2C00000881004F08A03E8600013087002B0877
:101E3C00A03E840001308500000881004F083E3E22
:101E4C0086002B083E3E8400000881004F08BE3EF1
:101E5C0086002B08BE3E8400000881004F08203EFF
:101E6C0086002B08203E8400000881002B083E3E93
:101E7C008600023087007A3081002B08203E8600D5
:101E8C007A3081002B08A03E86007A3074277A3095
:101E9C0081002B083E3E86007A3081002B08BE3E26
:101EAC0086007A3081002B08203E86007A30810033
:101EBC0008002000B708031964002100AA0A0319BE
:101ECC00AB0A2000B30A3108031908008531D22D62
:101EDC006F2F003082314F22FD00080081002B084B
:101EEC00A03E8600013087000800D0001430D100DD
:101EFC001F342100C908031D892F2000CF01CF0AF0
:101F0C00D001BD27893127082000D20021002608E6
:101F1C002000D100210025082000D0002100240839
:101F2C002000CF004130D600C630D5004E30D40052
:101F3C006D30D300C92739304F072100A400303051
:101F4C002000503D2100A50000302000513D210013
:101F5C00A60000302000523D2100A70027082000D9
:101F6C00D800210026082000D700D81308004F08FD
:101F7C002100A400200050082100A500A601A70103
:101F8C00C901C90A08002100D201D301D401D5012D
:101F9C0020004F1CE02F53082100D20720005408CA
:101FAC002100D33D200055082100D43D20005608C7
:101FBC002100D53D2000D335D40DD50DD60DD2360C
:101FCC00D10CD00CCF0C5208510450044F04031DFB
:101FDC00CE2F210055082000D200210054082000EB
:101FEC00D100210053082000D0002100520820000D
:041FFC00CF0008000A
:020000040001F9
:02000E00DCCF45
:00000001FF
