:040200008231662AB7
:10020800813120007F08CE002700131D19298B316A
:100218009B2381318B31A223813104302800960041
:1002280087319E2781312700131120009318422916
:100238004D298B31A82381318731B327813187310B
:10024800962781318331F2238131023028009600CC
:100258002100CF01CF0A87319E2781314B29873171
:10026800A6278131CF018B31A823813101302000AD
:100278009B009A018731C72781314B2921004F08FC
:10028800003A03191D29013A031933294B29200083
:100298009310911CCC292100A80A0319A90ABC298A
:1002A8008B31A223813120000630AC0A2C020318BE
:1002B800AC012C08F000F101873109278131873121
:1002C800B927813101309B002100CA01CA0ACA2915
:1002D80087319B278131023020009B002100CA0012
:1002E800CA29063020009B0003302100CA0087314C
:1002F800AD278131CA298731962781318731B327C4
:10030800813120002308A5002208A400A201A3012E
:1003180035089B0021000730CA01F000F1012000D8
:100328002408FE3EF200FF30253DF30087313A27CE
:10033800813171082100E8007008E7006808670447
:10034800031DB829003020002502093003192402B2
:10035800031CB8298B319B23813189316621813176
:100368008731C7278131CA298731C3278131CA29F3
:100378004A08003A03195429013A03196C29033A27
:1003880003197529013A03197F29CA2920009110F8
:10039800931DE7292100BF0A3F08643A031DD829A5
:1003A80020003A0BD8298E1521003F08963A031DE4
:1003B800E2298731CB2781312100BF0187315A27B4
:1003C800813120009311911E052A00302302D2307A
:1003D800031922020318052A230019082000CB005C
:1003E80022081E3ECC00233003182430CD004C08D0
:1003F80086004D0887004B088100A20A0319A30A4A
:100408009A013D0B622A0B1D622AA80A0319A90A40
:10041800562A2908803ACB002708803A4B02031D48
:10042800172A26082802031C612A21004008823165
:100438001C2A2908803ACB002708803A4B02031D62
:10044800272A260828020318322A612AB301B30A88
:100458003B2AB301210040088231312A20003308A9
:10046800003A03192A2A013A03192D2A3B2A2000A7
:10047800A801A901612A2908803ACB002708803AF7
:100488004B02031D492A26082802031C612A013051
:100498002100B600B70164302000BC008731BE27B8
:1004A8008131612A3C08003A03190D2A013A0319DF
:1004B8001D2A033A03193F2A612A0B1120004E080E
:1004C800FF00090088018C31712C390B6D2A38081E
:1004D80008002100E201E301E401E501DE01DF019A
:1004E800E001E101E60120002B0821006602031863
:1004F800D62A6608203E8600013087008108031D41
:10050800D42A66083E3E86008108031D982A66089C
:10051800A03E86000108E20701300318E30703182C
:10052800E4070318E507D42A6608A03E86000130D0
:1005380087000108D300D40166083E3E8600EA23FE
:1005480082310023823150082100D60020004F0854
:100558002100D500402382315308D9005408E223F2
:100568008231E2075A08E33D5B08E43D5C08E53D5B
:1005780066083E3E860001308700EA238231002368
:1005880082314F082100D900200050082100E223C1
:100598008231DE075A08DF3D5B08E03D5C08E13D3B
:1005A800E60A772A610860045F045E04031DDE2AF8
:1005B8006208080061082000D200210060082000BD
:1005C800D10021005F082000D00021005E08200033
:1005D800CF00210065082000D60021006408200013
:1005E800D500210063082000D40021006208200003
:1005F800D3005F234F080800D401D01F0A2BCF096E
:10060800D009CF0A0319D00AD401D40AD21F132B58
:10061800D109D209D10A0319D20A0130D406D50169
:10062800D60150084F040319332BD301D30AD01B2A
:10063800202BCF35D00D1A2BD535D60D50085202A8
:10064800031D282B4F085102031C2F2B4F08D102E2
:100658005008D23B5514D036CF0CD30B202B54085E
:1006680003193B2BD509D609D50A0319D60A56080A
:10067800D0005508CF0008002000D701D80121007C
:10068800531C4D2B55082000D70721005608200081
:10069800D83D2100D535D60DD436D30C5408530493
:1006A800031D432B200058082100D40020005708C0
:1006B8002100D30008002100D4012000D21F722B92
:1006C800CF09D009D109D209CF0A0319D00A0319D1
:1006D800D10A0319D20A2100D401D40A2000D61F56
:1006E800832BD309D409D509D609D30A0319D40A07
:1006F8000319D50A0319D60A01302100D4062100AE
:10070800D501D601D701D801200052085104500460
:100718004F040319C32B2100D301D30A2000D21B95
:100728009B2BCF35D00DD10DD20D2100912B21005F
:10073800D535D60DD70DD80D200052085602031D09
:10074800AF2B51085502031DAF2B50085402031D4F
:10075800AF2B4F085302031CBB2B4F08D302500882
:10076800D43B5108D53B5208D63B210055142000F4
:10077800D236D10CD00CCF0C2100D30B9B2B2100EF
:1007880054080319D22BD509D609D709D809D50A8F
:100798000319D60A0319D70A0319D80A58082000DA
:1007A800D200210057082000D1002100560820005F
:1007B800D000210055082000CF000800DA000030E2
:1007C800DA1BFF30DB00DC005908080001082000B4
:1007D800CF001430D001D100D20108000030F6015A
:1007E800F7010038031DFC2B003A03192C2C0030AC
:1007F800003A0319012C2000082C0030003A031994
:100808004C2C20003B0B4C2C5B08CE248331200061
:100818005A08CE24833120005908CE2483317D081C
:10082800CE248331770820005B065A0659067D06D8
:10083800323AF7000030CE2483313230CE2483316F
:100848000030CE248331032583317D07323E4B2C83
:1008580020005B08CE24833120005A08CE2483313F
:1008680020005908CE24833120002A08CE24833161
:100878007708FB248331CE2483313230CE24833170
:100888004030CE248331032583312A07723EF60097
:100898000030003A0319732C2000BB08031D732C89
:1008A8005B08CE24833120005A08CE2483312000EF
:1008B8005908CE24833120002A08CE2483317708B2
:1008C800FB248331CE2483313230CE24833140302F
:1008D800CE248331032583312A07723EF600F801BE
:1008E80020002B0878020318C92C7808203E8600BF
:1008F800013087008108031D852C01300038031959
:10090800C72C78083E3E09258331CE2483317808E8
:10091800203E09258331CE2483317808A03E860005
:10092800023087000108CE2483317808203ED6247F
:100938008331750674067306720671060106F7069A
:100948007808A03E86000108CE24833178083E3E10
:100958000E258331CE2483317808203ED624833176
:10096800750774077307720771070107F607780898
:10097800BE3E86000108CE2483317808203E0E252D
:100988008331CE248331F80A742C7708CE2483313E
:100998007608CE2CF0002000111ECF2C7008230002
:1009A8009A0008008600013087007808BE3E84005F
:1009B800013085000008F10078083E3E84000008F8
:1009C800F2007808A03E84000008F3007808A03EF2
:1009D8008400023085000008F4007808203E840076
:1009E8000008F50078083E3E840000080800200052
:1009F8005B065A0659062A06723AF700003476084A
:100A080020005B075A075907080086000230870054
:100A18000108080086000130870001080800FB0172
:100A2800FC0120002108F1002008EB258B31DC2394
:100A3800853171087C02031D232D70087B02031881
:100A480008007B08243E8C314A248531503A03192A
:100A5800DA2D7B081F3E8C31512485315A06031D3F
:100A6800442D7B08203E8C31512485315906031DC5
:100A7800442D7B088C31572485315B060319DA2D08
:100A8800F901FA0120002B08F700F80178087A022A
:100A9800031D502D770879020318A92D79083E3EC9
:100AA8008600023087007B081E3E8400233003182E
:100AB8002430850000080106031DA52D7908203E75
:100AC80086007B081F3E840023300318890A8500AE
:100AD80000080106031DA52D7908A03E86007B08A5
:100AE800203EDF2585310106031DA52D7908203E0E
:100AF8008600013087007B08243EDF25853101060A
:100B0800031DA52D2100CE01CE0AE5258531DF255F
:100B180085310102031CA52D7908A03E86007B08BB
:100B2800213EDF2585318100E5258531DF258531A9
:100B380081007908BE3E86007B08233EDF2585318B
:100B48008100F90A0319FA0A462D2100CE08031D6F
:100B5800D82D7B081F3E8C314A248531F0007B0854
:100B6800203E8C3151248531F1007B08213E8C31A7
:100B780051248531F2007B08223E8C315124853185
:100B8800F3007B08233E8C3151248531F4007B0827
:100B9800243E8C3151248531F5007B088C31572453
:100BA80085318B31AE2385312100CE010730FB071B
:100BB8000318FC0A152D840023300318890A00083D
:100BC800080079083E3E86007B08223E0800F000B7
:100BD8000730F200F30108004A2E7C2E0030210075
:100BE8002302031D012E00302202031D012E0030B6
:100BF8002102031D012E14302002031C08002000CE
:100C08003108003A03190C2E013A0319152E582EF3
:100C1800B101B10A2100A001A101A201A3018E31F5
:100C2800582EB10112302100A000A101A201A30198
:100C3800792E6430CF00D0017F2685315926853141
:100C480050084F04031D08002E2EB101B10A132EBF
:100C5800B1011C2E3108003A0319292E013A031953
:100C68002C2E582ED030CF000730D0007F2685316B
:100C78005926853150084F04031D08003108003AF1
:100C88000319292E013A03192C2E582E3008003A40
:100C98000319F12D013A0319F22D033A03191D2EF8
:100CA800013A0319362E582E080050084F0403192C
:100CB800742ED301D30AD01B642ECF35D00D5E2EEF
:100CC80050085202031D6A2E4F085102031C702E51
:100CD8004F08D1025008D23BD036CF0CD30B642E2C
:100CE8005208D0005108CF00080022000E14080056
:100CF800B0018E31582E21002B082000D20021008F
:100D08002A082000D10008002100CB08031D922EDC
:100D18002000CF01CF0AD001C6268631270820003F
:100D2800D200210026082000D1002100250820003B
:100D3800D000210024082000CF004130D600C63062
:100D4800D5004E30D4006D30D300D22639304F074D
:100D58002100A40030302000503D2100A5000030C3
:100D68002000513D2100A60000302000523D210006
:100D7800A70027082000D800210026082000D70057
:100D8800D81308004F082100A400200050082100B3
:100D9800A500A601A701CB01CB0A08002100D301B9
:100DA800D401D501D60120004F1CE92E530821009B
:100DB800D307200054082100D43D20005508210005
:100DC800D53D200056082100D63D2000D335D40D4E
:100DD800D50DD60DD236D10CD00CCF0C52085104FB
:100DE80050044F04031DD72E210056082000D200BE
:100DF800210055082000D100210054082000D0000F
:100E0800210053082000CF0008007008AA002A2FEC
:100E180022000E138E130E12080022000E178E13D6
:100E28000E12080022000E138E170E120800220060
:100E38000E178E170E12080022000E138E130E16B0
:100E4800080022000E178E130E1608007108003ACB
:100E580003192F2F392F7008840006300402031855
:100E68000800873104358A3E820008007108700442
:100E78000319552FF401F40AF11B452FF035F10D34
:100E88003F2F71087302031D4B2F70087202031C59
:100E9800512F7008F2027108F33BF136F00CF40B95
:100EA800452F7308F1007208F00008006F2787319A
:100EB8008E126F2787318E126F2787318E126F2718
:100EC80087318E126F2787318E126F2787318E12E6
:100ED8006F278E12080022008E1608006400800119
:100EE80001310130FE020030FF3B7F087E04031908
:100EF8000034732F8E31A62E8E31AB2E8E31B02E4C
:100F08008E31B52E8E31BA2E8E31BF2E87310C2FF1
:100F18008731112F8731162F87311B2F8731202FCB
:100F28008731252F23001D12210091129B2F2100AC
:100F38008D1608002800950197141714171521001D
:100F48009314080023009E1222001D1521008D17FE
:100F580008008D1623001D162100911608008D1318
:100F680022001D1123009E16080021008D1220006A
:100F78008D120800BD018B12A801A90108008B156C
:100F88002700121508001C152100911408002000E4
:100F98008E1108008E1508008E1208000034080013
:060FA800003401340034A6
:1012CC002100A00A0319A10A0319A20A0319A30AEF
:1012DC000730F000F10120002408FE3EF200FF3040
:1012EC00253DF3001F2489317108A1007008A0006E
:1012FC00F1238931003021021E300319200203181A
:10130C000800DD08031D080024081D3E4A2489310D
:10131C005C06031D0800C901CA0121084A02031D0D
:10132C009929200849020318C0294A08F1004908E4
:10133C008531EB258931DC2389317108C8007008AF
:10134C00C700223E860023300318890A8700010A51
:10135C00C4004708223EC50023300318890AC60082
:10136C00450886004608870044088100C90A03190D
:10137C00CA0A9329D2218531132D6C2489317E23FD
:10138C008931C030F0001130F1001430F2001F3000
:10139C005623640001000800C001C101210841026C
:1013AC00031DDA2920084002031808004108F10047
:1013BC0040088531EB258931DC2389317108C30064
:1013CC007008C200572489315B06031D292A420884
:1013DC001F3E4A2489315A06031D292A4208203E01
:1013EC00512489315906031D292A4208243E5124CF
:1013FC008931713A031D292AAD08031D292A420897
:10140C00223E860023300318890A010B292AAD01DC
:10141C00AD0A6C2489317E2389315F2489315623AE
:10142C008931D030F0003F30F1006830F2001F30CD
:10143C0056238931D13066248931562389310230C3
:10144C002000B000010020004208572489315B06BF
:10145C00031D642A42081F3E4A2489315A06031D83
:10146C00642A4208203E512489315906031D642AFE
:10147C004208243E51248931903A031D642AB7084E
:10148C00031D642A4208223E860023300318890A71
:10149C00010B642AB701B70A6C2489317E23893188
:1014AC005F24893156238931D13066248931562302
:1014BC008931D03066248931562389312000420885
:1014CC00572489315B06031D892A42081F3E4A2492
:1014DC0089315A06031D892A4208203E512489313C
:1014EC005906031D892A4208213E512489317D3A2F
:1014FC00031D892A4208243E51248931623A03197A
:10150C002E080319AB2A4208572489313D3A031D92
:10151C00DF2A42081F3E4A248931223A031DDF2A62
:10152C004208203E51248931183A031DDF2A420813
:10153C00213E51248931DF3A031DDF2A4208243E23
:10154C0051248931A13A031DDF2AAE01AE0AAB0149
:10155C00FD019B238931A2238931A82389312800DD
:10156C001E112500930128009D019C0121009D0165
:10157C002700131120009310911093110B138B1350
:10158C00240095122000BE01BF0120003F08803AC4
:10159C00FF0087307F02031DD52AD0303E0203188E
:1015AC00DD2A2000BE0A0319BF0A6400CB2AC3211E
:1015BC00893120004208243E4A2489316F3A031DA8
:1015CC00FB2AAF08031DFB2A5A08F0005908F1004A
:1015DC00C830F201F20AF301F30AF4006F30F5009F
:1015EC005B08AE238931AF01AF0A4208243E4A247E
:1015FC008931753A031D122BAF015030F7004208A8
:10160C00243EF80023300318890AF9007808860074
:10161C0079088700770881004208572489315B06D6
:10162C00031D512B42081F3E4A2489315A06031DC3
:10163C00512B4208203E512489315906031D512B50
:10164C004208243E51248931863A031D352B420829
:10165C00213E51248931B800B901B90A512B4208F5
:10166C00243E4A248931893A031D3E2BB901512B62
:10167C004208243E4A248931873A031D482B4424CE
:10168C008931512B4208243E4A248931883A031D62
:10169C00512B982389312000C00A0319C10AD4297F
:1016AC00F3008B1395171515151215139516700855
:1016BC0091007308920072089300710894005530E1
:1016CC009600AA309600951400000000000000005F
:1016DC002300553095129600AA3096009514000000
:1016EC000000000000002300151195138B17080053
:1016FC008B1370082300910071089200553015135C
:10170C009517151615159600AA309600951400001D
:10171C0000000000000023001511151A932B9513DF
:10172C008B170800B001B00A080020001C11210022
:10173C00911020009A0108008B1127001211210032
:10174C000C150800280095011711210093100800B2
:10175C00F6001E3020002B0203180800063074021D
:10176C00031C08002B083E3E8600023087007608DA
:10177C0081002B08203E8600700881002B08A03EBB
:10178C0086007108CC27720881002B083E3E86002B
:10179C00730881002B08BE3E8600740881002B085C
:1017AC00203E860075088100AB0A0800F401F501A3
:1017BC00701CE42B7208F4077308F53DF235F30D39
:1017CC00F136F00C71087004031DDE2B7508F10066
:1017DC007408F0000800DD01DC0125082100B100CF
:1017EC00200024082100B000FE30B007FF30B13DCE
:1017FC00F001F101210031087102031D072C3008A2
:10180C007002700803181B2C1E3E86002330031830
:10181C002430870001082000DC0770085724893128
:10182C00DD06F00A0319F10A002C57242000DD060E
:10183C000800F401F5017108700403193F2CF6013E
:10184C00F60AF11B2C2CF035F10D262CF435F50D88
:10185C0071087302031D342C70087202031C3B2C9C
:10186C007008F2027108F33B7414F136F00CF60BAD
:10187C002C2C7508F1007408F0000800B001472406
:10188C00080022000E140800860023300318890A71
:10189C00870001080800860023300318890A010814
:1018AC0008001E3E860023300318243087000108F0
:1018BC000800C030F0002230F1001430F2001F3468
:1018CC00F0003F30F1001F30F2010800C030F00092
:1018DC001F30F10008001E30840023308500D23008
:1018EC00FE000030FF018731722789312030FD0165
:1018FC008400003085001E30FE000030FF0187316F
:10190C0072278931A0308400003085003330FE000E
:10191C000030FF018731722789312030840001307B
:10192C0085003C30FE000030FF0187317227893181
:10193C00A0308400013085003C30FE000030FF01F7
:10194C0087317227893120308400023085003C3089
:10195C00FE000030FF01873172278931A0308400EE
:10196C00023085001E30FE000030FF0187317227E7
:10197C008931DE30DC00DD30DD0021000730E7008E
:10198C00DD30E801E9000130EA002000CD2C703098
:10199C002100990064002000B6012100C201E03052
:1019AC002000CF001F30C925893113082000DB002F
:1019BC00E130CF001F30C925893113082000DA002F
:1019CC00E230CF001F30C925893113082000D9001F
:1019DC00D908031D0F2DDA08031D0F2DDB08031D7D
:1019EC000F2DEB30CF001C30C92589311308200096
:1019FC00DB00E930CF001C30C925893113082000E9
:101A0C00DA00E630CF001C30C925893113082000DC
:101A1C00D900BB01B001B00AAE015B268931582652
:101A2C0089312000CF01D001A3268931FD0120008E
:101A3C00AB01D426893120009A0102309B009C1402
:101A4C001C141C139C121C129C111C1521009114AB
:101A5C0023009D1722009D131D11230007309F109A
:101A6C008D128D131E159F159B009C0120301E128C
:101A7C002100980023000C1121000C158B15270058
:101A8C001215A12789316400D8268931C0300B1179
:101A9C002000CF001F30C92589311408223A0319C0
:101AAC005A2D2100C2015D2D2100C201C20AD03085
:101ABC002000CF001F30C92589311308683A031D57
:101ACC00B42D2000AD01AD0AD130CF001F30C92597
:101ADC0089311308C0300319832D2000CF001F302B
:101AEC00D0000F268931C0302000CF001130D32711
:101AFC008931DE2589310100B42D2000CF001F3043
:101B0C00D0000F268931C0302000CF002230D327DF
:101B1C008931DE258931D1302000CF003F30D00013
:101B2C00FF30D1001F30DE258931D0302000CF00AE
:101B3C003F30D0006830D1001F30DE2589312000C5
:101B4C005A08CF005908D0003230D101D201D20A44
:101B5C00D3007330D4005B082B2689310B178B17FD
:101B6C00A2278931C93020003202031CC62DB201D4
:101B7C000030003A0319C42DDC268931B127893194
:101B8C000F278931B62DD0008B134F0823009100FD
:101B9C00200050082300920015139517151400000F
:101BAC000000000000002300151095138B1708008F
:101BBC00D2008B13230095171515151215139516B6
:101BCC0020004F08230091002000520823009200AF
:101BDC00200051082300930020005008230094009B
:101BEC0055309600AA3096009514000000000000B5
:101BFC0000002300553095129600AA3096009514DB
:101C0C0000000000000000002300151195138B1735
:101C1C0008008B134F08230091002000500823006C
:101C2C009200553015139517151615159600AA30F8
:101C3C009600951400000000000000002300151110
:101C4C00151A262E95138B170800D5001E302B0263
:101C5C000318080006305302031C08002B083E3EF4
:101C6C00860002308700550881002B08203E860034
:101C7C004F0881002B08A03E86005008CC27510845
:101C8C0081002B083E3E8600520881002B08BE3E88
:101C9C008600530881002B08203E860054088100E2
:101CAC00AB0A080022000E10080023000E138E133E
:101CBC0021000E138E130E1223008D120C118D1396
:101CCC0021008D160C158D1723000E108E1021007F
:101CDC000E108E1020008E1023000D1321000D13FA
:101CEC0020000D1323000D1221000D1220000D12E7
:101CFC0023000E1521000E1523008E1121008E11CC
:101D0C0020008E1121008E1220008E1221008C12C8
:101D1C0020008C1223000C1221000C1220000C123B
:101D2C0023000C1021000C1020000C1023008C1030
:101D3C0021008C1020008C1008004F08AA00C42E23
:101D4C0022000E138E130E12080022000E178E1393
:101D5C000E12080022000E138E170E12080022001D
:101D6C000E178E170E12080022000E138E130E166D
:101D7C00080022000E178E130E1608005008003AA9
:101D8C000319C92ED32E4F08840006300402031801
:101D9C000800873104357E3E820008008B15270031
:101DAC00121508001530210097000800BB01D10165
:101DBC00D2012B08CF00D00150085202031DE82E8F
:101DCC004F0851020318080051083E3E86000230AD
:101DDC00870001085B06031D012F5108203E860079
:101DEC0001085A06031D012F5108A03E8600010868
:101DFC00590603190B2F5108203E8600013087002D
:101E0C008108031D0B2FBB01BB0AD10A0319D20A8F
:101E1C00DF2E1927863188265708B4003408073975
:101E2C000F3EB5000800023021002902BD30031915
:101E3C002802031C0800A801A9012000D1012B08CD
:101E4C005102031808005108BE3E8600013087007D
:101E5C0081035108BE3E86000530010203183B2F5A
:101E6C005108CF00D0013D278931D10A252FAB0372
:101E7C004F083E3E8600023087002B083E3E840011
:101E8C0002308500000881004F08203E86002B0898
:101E9C00203E8400000881004F08A03E86002B08DD
:101EAC00A03E8400000881004F08A03E860001304F
:101EBC0087002B08A03E84000130850000088100BB
:101ECC004F083E3E86002B083E3E840000088100F1
:101EDC004F08BE3E86002B08BE3E840000088100E1
:101EEC004F08203E86002B08203E8400000881000D
:101EFC002B083E3E8600023087007A3081002B088A
:101F0C00203E86007A3081002B08A03E86007A3075
:101F1C00CC277A3081002B083E3E86007A30810037
:101F2C002B08BE3E86007A3081002B08203E8600AE
:101F3C007A3081000800B42F2000B6080319640021
:101F4C002100AA0A0319AB0A2000B20A30080319AF
:101F5C0008008531F02DC5278931CA2F21008E123A
:101F6C008E1128009C0196309D009E141E149E1507
:101F7C001E1521009315C22F20008E15080000306D
:101F8C0082316922FD0008007D08D72F81002B08C3
:101F9C00A03E8600013087000800D0001430D1002C
:101FAC001F342000CF00E7304F02031CDF2FE63038
:101FBC00CF004F0928009D00073020004F02031866
:101FCC00EF2FBA01FA278931FD2789312100CD0184
:101FDC00CD0A073020004F02031C08002100CD0160
:101FEC002000BA01BA0A080022008E120800200054
:041FFC008E1108003A
:020000040001F9
:02000E00DCCF45
:00000001FF
