:100200008231532A08000034813120007F08B00079
:100210002700131D19298431B62481318431BD246E
:10022000813104302800960089311921813127005D
:1002300013112000931842294D298431C3248131A0
:100240008931062181318931212181318531612531
:1002500081310230280096002100D601D60A89316A
:10026000192181314B29893112218131D601843103
:10027000C3248131013020009B009A018831F6208F
:1002800081314B2921005608003A03191D29013AF2
:10029000031933294B2920009310911CCE292100EA
:1002A000A80A0319A90ABE298431BD24813120007E
:1002B0000630DA0A5A020318DA015A08F000F1018E
:1002C0008731A32781318831FB20813101309B00A8
:1002D0002100CE01CE0ACC2989312621813102307C
:1002E00020009B002100CE00CC29063020009B007E
:1002F00003302100CE0089310C218131CC29893194
:100300002121813189310621813120005108D3001A
:100310005008D200D001D1012100520820009B00DA
:1003200021000730CE01F000F10120005208FE3E0E
:10033000F200FF30533DF3008731D427813171083B
:100340002100E0007008DF0060085F04031DBA2987
:10035000003020005302093003195202031CBA294D
:100360008431B62481318231562281318831F620A0
:100370008131CC298831F2208131CC294E08003AD4
:1003800003195429013A03196C29033A03197529F1
:10039000013A03197F29CC29200091109319931158
:1003A000911EEE2900305102D23003195002031879
:1003B000EE29230019082000AD0050081E3EAE00B3
:1003C000233003182430AF002E0886002F08870042
:1003D0002D088100D00A0319D10A9A0121005C0B73
:1003E0004F2A0B1D4F2A2000D60A0319D70A422A8A
:1003F00020005708803AAD005508803A2D02031DB1
:10040000032A54085602031C4E2A21003F08823159
:10041000082A20005708803AAD005508803A2D027E
:10042000031D142A5408560203181E2A4E2ACA0114
:10043000CA0A272ACA013F0882311D2A21004A0818
:10044000003A0319172A013A03191A2A272A200009
:10045000D601D7014E2A20005708803AAD00550832
:10046000803A2D02031D362A54085602031C4E2AD8
:1004700001302100B600B7016430DB008931002172
:1004800081314E2A21005B08003A0319F829013A0C
:100490000319092A033A03192B2A4E2A0B112000AB
:1004A0003008FF0009008801893129292100A00AAC
:1004B0000319A10A0319A20A0319A30A0730F000BD
:1004C000F10120005208FE3EF200FF30533DF300E0
:1004D0000B2582317108CF007008CE00DE248231F6
:1004E000003020004F021E3003194E02031808008E
:1004F0002100E208031D0800200052081D3E362599
:10050000823121006106031D08002000AB01AC010F
:100510004F082C02031D8E2A4E082B020318B52A01
:100520002C08F1002B0887319E278231C9248231A3
:100530007108AA007008A900223E86002330031823
:10054000890A8700010AA6002908223EA700233055
:100550000318890AA80027088600280887002608AB
:100560008100AB0A0319AC0A882AC7228631892E7A
:100570005825823199248231C030F0001130F100C9
:100580001430F2001F307124640001000800A20141
:10059000A3014F082302031DCF2A4E08220203188D
:1005A00008002308F100220887319E278231C924E0
:1005B00082317108A5007008A40043258231210012
:1005C0006D06031D252B200024081F3E3625823191
:1005D00021006C06031D252B20002408203E3D250C
:1005E000823121006B06031D252B20002408243EA8
:1005F0003D258231713A031D252B2100C208031DC0
:10060000252B20005D2582310318890A010B252B3B
:100610002100C201C20A58258231992482314B251A
:10062000823171248231D030F0003F30F1006830E7
:10063000F2001F3071248231D13052258231712471
:10064000823102302000DB00010020002408432515
:10065000823121006D06031D672B200024081F3EF8
:100660003625823121006C06031D672B20002408EB
:10067000203E3D25823121006B06031D672B2000A3
:100680002408243E3D258231903A031D672B21002A
:10069000D508031D672B20005D2582310318890AC8
:1006A000010B672B2100D501D50A582582319924E9
:1006B00082314B25823171248231D13052258231F1
:1006C00071248231D0305225823171248231200050
:1006D00024084325823121006D06031D942B200040
:1006E00024081F3E3625823121006C06031D942B01
:1006F00020002408203E3D25823121006B06031D89
:10070000942B20002408213E3D2582317D3A031D93
:10071000942B2408243E3D258231623A031D942BFC
:10072000210043080319B72B2000240843258231F8
:100730003D3A031DED2B24081F3E36258231223A17
:10074000031DED2B2408203E3D258231183A031D60
:10075000ED2B2408213E3D258231DF3A031DED2B90
:100760002408243E3D258231A13A031DED2B2100B2
:10077000C301C30AFD012000D901B6248231BD2482
:100780008231C324823128001E11250093012800E4
:100790009D019C0121009D01270013112000931051
:1007A000911093110B138B13240095122000A001BC
:1007B000A10120002108803AFF0087307F02031D3D
:1007C000E32BD03020020318EB2B2000A00A0319E2
:1007D000A10A6400D92BB822823120002408243ECB
:1007E000362582316F3A031D0B2C2100C508031DED
:1007F0000B2C6C08F0006B08F100C830F201F20A13
:10080000F301F30AF4006F30F5006D0887315F27BC
:100810008231C501C50A20002408243E36258231D4
:10082000753A031D252C2100C5015030F70020002A
:100830002408243EF80023300318890AF9007808B8
:1008400086007908870077088100240843258231D3
:1008500021006D06031D6C2C200024081F3E362548
:10086000823121006C06031D6C2C20002408203EE0
:100870003D25823121006B06031D6C2C20002408CD
:10088000243E3D258231863A031D4F2C2408213E0B
:100890003D2582312100D700D801D80A6C2C2408CC
:1008A000243E36258231893A031D592C2100D80176
:1008B0006C2C2408243E36258231873A031D632C94
:1008C000302582316C2C2408243E36258231883A2A
:1008D000031D6C2CB32482312000A20A0319A30A41
:1008E000C92AF3008B1395171515151215139516B4
:1008F00070089100730892007208930071089400C8
:1009000055309600AA3096009514000000000000B3
:1009100000002300553095129600AA3096009514D9
:1009200000000000000000002300151195138B1734
:1009300008008B1370082300910071089200553055
:1009400015139517151615159600AA3096009514CF
:10095000000000000000000023001511151AAE2C45
:1009600095138B170800DB01DB0A080020001C111F
:100970002100911020009A0108008B11270012110C
:1009800021000C1508002800950117112100931073
:100990000800F401F501701CD12C7208F4077308EB
:1009A000F53DF235F30DF136F00C71087004031DBE
:1009B000CB2C7508F1007408F00008002100E2015A
:1009C000E101200053082100B1002000520821005D
:1009D000B000FE30B007FF30B13DF001F101310849
:1009E0007102031DF52C3008700270080318082DE1
:1009F0001E3E860023300318243087000108E107DB
:100A0000700843258231E206F00A0319F10AEF2C3F
:100A10004325E2060800F401F5017108700403198A
:100A20002B2DF601F60AF11B182DF035F10D122DC4
:100A3000F435F50D71087302031D202D7008720244
:100A4000031C272D7008F2027108F33B7414F13671
:100A5000F00CF60B182D7508F1007408F000080072
:100A6000DB013325080022000E1408008600233025
:100A70000318890A8700010808008600233003183C
:100A8000890A010808001E3E86002330031824301E
:100A9000870001080800C030F0002230F100143057
:100AA000F2001F34F0003F30F1001F30F201080067
:100AB000C030F0001F30F10008002408223E8600FC
:100AC00023340130F601F7010038031D6B2D00308F
:100AD000003A0319992D0130003A031D772D00309B
:100AE000003A0319B92D20005E0BB92D21006D08C5
:100AF0003E26853121006C083E26853121006B0899
:100B00003E268531200059083E26853174268531E0
:100B10005906323AF70000303E26853132303E2603
:100B2000853100303E2685316D2685315907323EAC
:100B3000B82D6D083E26853121006C083E26853192
:100B400021006B083E268531200058083E2685315D
:100B500074268531852685313E26853132303E2604
:100B6000853140303E2685316D2685315807723EED
:100B7000F6000030003A0319E22D2000DE08031DC4
:100B8000E22D21006D083E26853121006C083E26AD
:100B9000853121006B083E268531200058083E260D
:100BA000853174268531852685313E268531323062
:100BB0003E26853140303E2685316D2685315807E9
:100BC000723EF600F8017D0878020318392E780885
:100BD000203E8600013087008108031DF32D003080
:100BE00000380319372E7808BE3E7B2685313E2615
:100BF00085317808A03E7B2685313E2685317808F0
:100C0000203E802685313E2685317808203E4626C6
:100C10008531750674067306720671060106F706BD
:100C20007808A03E86000230870001083E26853104
:100C300078083E3E802685313E2685317808203E64
:100C40004626853175077407730772077107010718
:100C5000F60778083E3E860001083E268531780872
:100C6000203E86000130870001083E268531F80AC3
:100C7000E32D77083E26853176083E2EF0002000D1
:100C8000111E3F2E700823009A00080086000130D4
:100C9000870078083E3E8400013085000008F1009E
:100CA00078083E3E8400023085000008F200780893
:100CB000A03E84000008F3007808203E840000086D
:100CC000F4007808A03E8400013085000008F5009B
:100CD0007808BE3E840000080800760821006D07F1
:100CE0006C076B0720000800770821006D066C0672
:100CF0006B0620000800860001308700010808000C
:100D0000860002308700010808005806723AF70092
:100D10000034FB01FC0120004F08F1004E089E2723
:100D20008431C924863171087C02031D992E700814
:100D30007B02031808007B08243E85313625863166
:100D4000503A03195A2F7B081F3E85313D258631C5
:100D500021006C06031DBB2E7B08203E85313D25FE
:100D600086316B06031DBB2E7B08853143258631FA
:100D70006D0603195A2FF901FA017D08F700F801F1
:100D800078087A02031DC62E7708790203182B2FE4
:100D90007908BE3E8600013087007B081E3E840035
:100DA000233003182430850000080106031D272F77
:100DB0007908A03E86007B081F3E8400233003187C
:100DC000890A850000080106031D272F7908203EA7
:100DD0008600023087007B08203E8A278631010684
:100DE000031D272F7908203E8600013087007B08ED
:100DF000243E8A2786310106031D272F2100D401B6
:100E0000D40A79083E3E8600023087007B08223EE5
:100E10008A2786310102031C272F7908A03E86000D
:100E20007B08213E8A278631810079083E3E860074
:100E30007B08223E8A278631810079083E3E860063
:100E4000013087007B08233E8A2786318100F90A1A
:100E50000319FA0ABD2E2100D408031D592F7B085F
:100E60001F3E853136258631F0007B08203E8531D6
:100E70003D258631F1007B08213E85313D258631B7
:100E8000F2007B08223E85313D258631F3007B0848
:100E9000233E85313D258631F4007B08243E853193
:100EA0003D258631F5007B088531432586315F2756
:100EB0008631D4010730FB070318FC0A8B2EF6009D
:100EC0001E307D020318080006307402031C08005F
:100ED0007D08BE3E860001308700760881007D08CF
:100EE000A03E8600700897278631710881007D0832
:100EF000A03E8600720881007D083E3E8600730891
:100F00009027740881007D08203E860075088100C6
:100F1000FD0A0800840023300318890A000808002D
:100F200081007D083E3E8600013087000800810078
:100F30007D08203E8600023087000800F000073060
:100F4000F200F30108007008D800C42F22000E132D
:100F50008E130E12080022000E178E130E120800B8
:100F600022000E138E170E12080022000E178E1785
:100F70000E12080022000E138E130E160800220017
:100F80000E178E130E1608007108003A0319C92FA8
:100F9000D32F70088400063004020318080088313B
:100FA00004350C3E82000800710870040319EF2F0D
:100FB000F401F40AF11BDF2FF035F10DD92F710880
:100FC0007302031DE52F70087202031CEB2F7008DB
:100FD000F2027108F33BF136F00CF40BDF2F7308CB
:100FE000F1007208F0000800640080010131013056
:100FF000FE020030FF3B7F087E0403190034F52F0A
:101000008B316A2B8B316F2B8B31742B8B31792B7E
:101010008B317E2B8B31832B8731A62F8731AB2FE2
:101020008731B02F8731B52F8731BA2F8731BF2F46
:1011DE000134003400348B1527001215080020004E
:1011EE001C1521009114080021008D1220008D1273
:1011FE000800DC018B122000D601D70108008D13E8
:10120E0022001D1123009E1608008D1623001D16A8
:10121E0021009116080023009E1222001D152100A8
:10122E008D17080028009501971417141715210023
:10123E009314080023001D1221009112262921006B
:10124E008D1608001E30840023308500D230FE003B
:10125E000030FF018731F42789314E30FD018400C3
:10126E00003085001130FE000030FF018731F42779
:10127E008931A0308400003085003F30FE00003000
:10128E00FF018731F4278931203084000130850039
:10129E003C30FE000030FF018731F4278931A03049
:1012AE008400013085003C30FE000030FF018731A4
:1012BE00F427893120308400023085003C30FE0056
:1012CE000030FF018731F4278931A03084000230CD
:1012DE0085001E30FE000030FF018731F427893172
:1012EE0021000730DF00DE30E001E100DD30E200FA
:1012FE00E3000130E40020008429703021009900C1
:10130E0064002000DD012100C101E0302000B100A9
:10131E001F308C22893113082100ED00E1302000AE
:10132E00B1001F308C22893113082100EC00E2300D
:10133E002000B1001F308C22893113082100EB00F0
:10134E00EB08031DCB29EC08031DCB29ED08031D6B
:10135E00CB29EB302000B1001C308C2289311308D0
:10136E002100ED00E9302000B1001C308C228931C3
:10137E0013082100EC00E6302000B1001C308C2256
:10138E00893113082100EB002000DE01DB01DB0AAE
:10139E002100C3011F2389311C2389312000B10193
:1013AE00B201672389312000D901FD0198238931CB
:1013BE0020009A0102309B009C141C141C139C12DA
:1013CE001C129C111C152100911423009D17220044
:1013DE009D131D11230007309F108D128D131E15A6
:1013EE009F159B009C0120301E12210098002300A7
:1013FE000C1121000C158B1527001215DD238931D8
:10140E0064009C238931C0300B112000B1001F30C5
:10141E008C2289311408223A0319182A2100C1019D
:10142E001B2A2100C101C10AD0302000B1001F309B
:10143E008C2289311308683A031D772A2100C201D4
:10144E00C20AD1302000B1001F308C22893113081E
:10145E00C0300319422A2000B1001F30B200D22240
:10146E008931C0302000B1001130F8278931A12216
:10147E0089310100772A2000B1001F30B200D2223C
:10148E008931C0302000B1002230F8278931A122E5
:10149E008931D1302000B1003F30B200FF30B300AF
:1014AE001F30A1228931D0302000B1003F30B20070
:1014BE006830B3001F30A122893121006C08200052
:1014CE00B10021006B082000B2003230B301B4012C
:1014DE00B40AB5007330B60021006D08EE228931D2
:1014EE000B178B1773248931C93021004902031C55
:1014FE00892AC9010030003A0319872AA0238931AD
:10150E0081248931DE238931792AB2008B13310887
:10151E002300910020003208230092001513951726
:10152E001514000000000000000023001510951394
:10153E008B170800B4008B13230095171515151281
:10154E001513951620003108230091002000340851
:10155E00230092002000330823009300200032085D
:10156E002300940055309600AA3096009514000082
:10157E000000000000002300553095129600AA309E
:10158E0096009514000000000000000023001511C5
:10159E0095138B1708008B13310823009100200040
:1015AE003208230092005530151395171516151590
:1015BE009600AA309600951400000000000000006E
:1015CE0023001511151AE92A95138B170800200010
:1015DE00B7001E307D020318080006303502031CCA
:1015EE0008007D08BE3E8600013087003708810066
:1015FE007D08A03E86003108873197278931320851
:10160E0081007D08A03E8600330881007D083E3EA5
:10161E008600340887319027350881007D08203EEA
:10162E00860036088100FD0A080022000E10080010
:10163E0023000E138E1321000E138E130E12230091
:10164E008D120C118D1321008D160C158D17230084
:10165E000E108E1021000E108E1020008E10230002
:10166E000D1321000D1320000D1323000D12210068
:10167E000D1220000D1223000E1521000E15230051
:10168E008E1121008E1120008E1121008E1220004D
:10169E008E1221008C1220008C1223000C122100BD
:1016AE000C1220000C1223000C1021000C10200034
:1016BE000C1023008C1021008C1020008C100800C0
:1016CE003108D800882B22000E138E130E1208003C
:1016DE0022000E178E130E12080022000E138E1704
:1016EE000E12080022000E178E170E12080022008E
:1016FE000E138E130E16080022000E178E130E16E2
:10170E0008003208003A03198D2B972B31088400FC
:10171E00063004020318080088310435003E8200AA
:10172E0008008B15270012150800153021009700B0
:10173E0008002000DE01B301B4017D08B100B20142
:10174E0032083402031DAD2B310833020318080092
:10175E003308BE3E860001308700010821006D0669
:10176E00031DCD2B20003308A03E8600010821006A
:10177E006C06031DCD2B20003308203E8600023060
:10178E008700010821006B060319D82B20003308AF
:10179E00203E8600013087008108031DD82BDE0114
:1017AE00DE0A2000B30A0319B40AA42B822CE92303
:1017BE008931DA263D082100D100510807390F3E44
:1017CE00D2000800023021002902BD300319280280
:1017DE00031C0800A801A9012000B3017D083302F3
:1017EE000318080033083E3E86000130870081034F
:1017FE0033083E3E86000530010203180B2C3308D9
:10180E00B100B2010D248931B30AF52BFD03310865
:10181E00BE3E8600013087007D08BE3E840001304A
:10182E008500000881003108A03E86007D08A03E9C
:10183E008400000881003108203E860002308700B7
:10184E007D08203E840002308500000881003108AA
:10185E00A03E86007D08A03E84000008810031086D
:10186E003E3E86007D083E3E840000088100310821
:10187E003E3E8600013087007D083E3E84000130EA
:10188E008500000881003108203E86007D08203E3C
:10189E008400000881007D08BE3E86007A308100FB
:1018AE007D08A03E86007A308731972789317A30BD
:1018BE0081007D08A03E86007A3081007D083E3E84
:1018CE0086007A30873190277A3081007D08203E5D
:1018DE0086007A30810008002000DD0803196400BC
:1018EE002100AA0A0319AB0AC90A20005B080319D2
:1018FE000800492F8C2C193021009D009E131E17B5
:10190E009E161E129E101E10080090242000D90054
:10191E0008002100580B952C570808001C082000C1
:10192E00C600C701BF26893146082100E800200005
:10193E0047082100E900200048082100EA00CD30C8
:10194E00E5006C30E6004030E70006268931650878
:10195E002200E500210066082200E600210067084B
:10196E002200E700AF30E201E300C330E40044257B
:10197E00893162082000B900220063082000BA00F5
:10198E00220064082000BB00EF2489313A082100B0
:10199E00B900200039082100B8003908803AFF004C
:1019AE0081307F02031DDD2C00303802031CE12C38
:1019BE00FF30E82C2100B91FE72C2000CD01EA2CC6
:1019CE0038082000CD0021009D1420004D0808008D
:1019DE00F127893103103E0D3F0DC500C508031DCB
:1019EE00FD2CB901BA01BB01BC010800F1278931F8
:1019FE001730BF36BE0CBD0C890B002D3D08C00044
:101A0E00BA17BB013908C1003A08C2003B08C3002F
:101A1E008E30C401C502C51F202D4508803A8F3E69
:101A2E00031CF82CC436C30CC20CC10CC50F192DE7
:101A3E002D2D183045020318F82CC50803192D2D2D
:101A4E00C135C20DC30DC40DC503242D40080319A5
:101A5E003B2DC109C209C309C409C10A0319C20A2F
:101A6E000319C30A0319C40A4408BC004308BB0087
:101A7E004208BA004108B90008006208E80063088D
:101A8E00E9006408EA000310690D6A0DED006508AF
:101A9E00E8006608E9006708EA000310690D6A0DA0
:101AAE00EC006D080319672D6C086D026C080318A5
:101ABE006F2DE8006D08E80219306802031C6E2DC8
:101ACE006508E2006608E3006708E40008006C0899
:101ADE00031908006D086C0203187D2D6D08E800CF
:101AEE006C08E80219306802031808000630EB0093
:101AFE00E41BEB17E71B6B17E317E401E617E7018F
:101B0E006C086D020318A22DE535E60DE70DEC030A
:101B1E006C086D0603199D2DEB036B08073903192D
:101B2E009D2D8B2DE436E30CE20CED0A6D086C0650
:101B3E000319BC2D992D6D086C020318BC2DE235CE
:101B4E00E30DE40DED036C086D060319B82DEB03E0
:101B5E006B0807390319B82DA62DE736E60CE50CF0
:101B6E00EC0A6D086C06031DB42DEB1FC72DFF305C
:101B7E00E206E306E406E20A0319E30A0319E40A9D
:101B8E006B1FD22DFF30E506E606E706E50A0319C0
:101B9E00E60A0319E70AEB016208E5076308E63D6A
:101BAE006408E73DE71FE62DFF30E506E606E7068B
:101BBE00E50A0319E60A0319E70AEB01EB0A6508C1
:101BCE002000B100220066082000B2002200670843
:101BDE002000B30022006D082000B40022006B0824
:101BEE002000B500852631082200E20020003208D0
:101BFE002200E300200033082200E40008006508FC
:101C0E002000CA00210066082000CB0021006708D2
:101C1E00EA278931DC00DC08031D172E2100FC2F7A
:101C2E00210068082000CA00210069082000CB00AE
:101C3E0021006A08EA278931E100E108031D292EF7
:101C4E002100FC2F61087B3EDC0721006708220083
:101C5E00E10021006A082200E1068030E105210042
:101C6E00FF30E617E917E805E905EA01220007301B
:101C7E00DD01DE01DF01E0002100651C492E680850
:101C8E00D62789312100E736E60CE50CE835E90D5B
:101C9E00EA0D2200E00B432E0930E0002100651C06
:101CAE005B2E6808D62789312100E736E60CE50C55
:101CBE002200DF36DE0CDD0CE00B552E5D08200019
:101CCE00B10022005E082000B20022005F08200052
:101CDE00B30022005C082000B4002200610820003E
:101CEE00B500852631082100E500200032082100CC
:101CFE00E600200033082100E7000800340803192D
:101D0E008D2E330832043104031D952EB101B2011C
:101D1E00B3010800B40AB336B20CB10CFE30330571
:101D2E000319A32E912EB40AB10A0319B20A03198C
:101D3E00B30AB336B20CB10CFF3033050319AC2E17
:101D4E009A2EB403B135B20DB30DB21FA82E341CAA
:101D5E00B213B4363408B800B701B6013608B10470
:101D6E003708B2043808B3043508031DB31708004A
:101D7E00C901C71FC92EC609C709C60A0319C70A52
:101D8E00C901C90A4608B1004708B2008E30B30136
:101D9E00B4004908B50085263108C6003208C700D0
:101DAE003308C80008002100CF08031DE42E2000D0
:101DBE00B101B10AB2011827893127082000B400F9
:101DCE00210026082000B300210025082000B200C3
:101DDE00210024082000B1004130B800C630B70001
:101DEE004E30B6006D30B500242739303107210052
:101DFE00A40030302000323D2100A500003020002C
:101E0E00333D2100A60000302000343D2100A70004
:101E1E0027082000BE00210026082000BD00BE13AA
:101E2E00080031082100A400200032082100A5007E
:101E3E00A601A701CF01CF0A0800B901BA01BB0163
:101E4E00BC01311C322F3508B9073608BA3D3708A8
:101E5E00BB3D3808BC3DB535B60DB70DB80DB43623
:101E6E00B30CB20CB10C3408330432043104031D2C
:101E7E00282F3C08B4003B08B3003A08B2003908DA
:101E8E00B1000800A22FD42F003021002302031D21
:101E9E005A2F00302202031D5A2F00302102031D3B
:101EAE005A2F14302002031C080020005C08003A50
:101EBE000319652F013A03196D2FB02FDC01DC0ACF
:101ECE002100A001A101A201A3011C2BDC011230F3
:101EDE002100A000A101A201A301D12F6430B10005
:101EEE00B201E1278931B127893132083104031D4E
:101EFE000800862FDC01DC0A6C2FDC01742F5C08D5
:101F0E00003A0319812F013A0319842FB02FD030D4
:101F1E00B1000730B200E1278931B127893132088B
:101F2E003104031D08005C08003A0319812F013AA1
:101F3E000319842FB02F5B08003A03194A2F013A78
:101F4E0003194B2F033A0319752F013A03198E2FDC
:101F5E00B02F0800320831040319CC2FB501B50A91
:101F6E00B21BBC2FB135B20DB62F32083402031D91
:101F7E00C22F31083302031CC82F3108B3023208B6
:101F8E00B43BB236B10CB50BBC2F3408B2003308DB
:101F9E00B100080022000E140800DB011C2B2200E9
:101FAE00DD07210069082200DE3D21006A082200BB
:101FBE00DF3D080021002B082000B40021002A0874
:101FCE002000B30008002000CC0003104B0D4C0D78
:101FDE00220008003908BD003A08BE003B08BF00C9
:101FEE000800B2001430B3001F34E501E601E7012A
:021FFE000800D9
:020000040001F9
:02000E00DCCF45
:00000001FF
