:1000000037C0000052C0000050C000004EC00000C9
:100010004CC0000012C3000048C000002CC6000005
:1000200044C0000042C00000B0C400003EC0000058
:100030003CC000000C946B0A38C0000036C00000C1
:10004000C3C3000032C0000030C00000C7C20000BF
:10005000D5C100002AC0000028C0000026C0000052
:1000600024C0000022C0000020C000001EC000000C
:1000700011241FBECFEFD4E0DEBFCDBF11E0A0E062
:10008000B1E0EEE4F0E302C005900D92AC31B107AF
:10009000D9F713E0ACE1B1E001C01D92A338B1077C
:1000A000E1F70E94750C0C942518AACFDC01139679
:1000B0008C911397882311F4E0E016C08C9114966C
:1000C000ED91FC911597E80FF11DE0818F5F8C9306
:1000D00012969C911297981708F41C9213968C9183
:1000E0001397815013968C938E2F0895159BFECFF6
:1000F00083B908958091ED02882309F062C0F894D5
:100100008CE390E0F3DF8EE690E0F0DF85E190E0B5
:10011000EDDF8EE390E0EADF80911F0190E0E6DF03
:1001200080911E0190E0E2DF80911D0190E0DEDF12
:100130008091D50290E0DADF8091D60290E0D6DFA0
:100140008091D70290E0D2DF8091D90290E0CEDF9B
:100150008091DA0290E0CADF8091DB0290E0C6DF96
:100160008091DD0290E0C2DF8091DE0290E0BEDF90
:100170008091DF0290E0BADF8091E10290E0B6DF8B
:100180008091E20290E0B2DF8091E30290E0AEDF86
:100190008091E50290E0AADF8091E60290E0A6DF80
:1001A0008091E70290E0A2DF8091E90290E09EDF7B
:1001B0008091EA0290E09ADF8091EB0290E096DF76
:1001C00078940895C49885E08FB9779BFECF8FB15E
:1001D000809319039FEF0CC09FB9779BFECF8FB11F
:1001E00080931A0380911A0380FD02C010920B01C4
:1001F00080910B01813081F381E080930B01C49ADF
:100200000895382F20E015C0822F90E0FC01EE0FFA
:10021000FF1FE80FF91FE759FC4F8081831741F456
:100220008181861729F48281841711F4822F06C0F8
:100230002F5F8091D402281738F38FEF282F30E0FA
:100240008091D40290E001972817390789F18091B5
:10025000D40290E00197FC01EE0FFF1FE80FF91F99
:10026000E759FC4F8081D901AA0FBB1FA20FB31F12
:10027000A759BC4F8C938091D40290E00197FC0168
:10028000EE0FFF1FE80FF91FE759FC4F8181119610
:100290008C9311978091D40290E00197FC01EE0FAE
:1002A000FF1FE80FF91FE759FC4F828112968C93CC
:1002B0008091D40290E00197FC01EE0FFF1FE80F40
:1002C000F91FE759FC4F10828091D40290E001970A
:1002D000FC01EE0FFF1FE80FF91FE759FC4F1182D9
:1002E0008091D40290E00197FC01EE0FFF1FE80F10
:1002F000F91FE759FC4F12828091D40281508093FC
:10030000D4020895DF93CF9300D00F92CDB7DEB71C
:100310006983272F382F492F55272A83BC01882727
:1003200099276B83C4988BE08FB9779BFECF8FB1F1
:10033000809319038B818FB9779BFECF8FB1809308
:1003400019038A818FB9779BFECF8FB180931903F0
:1003500089818FB9779BFECF8FB18093190383E694
:100360008FB9779BFECF8FB18093190320E030E0E7
:100370009FEF9FB9779BFECF8FB1F901E25DFC4FF4
:1003800080832F5F3F4F2430310599F7C49A0F9037
:100390000F900F90CF91DF91089580935B0383308E
:1003A0009105C9F08430910530F48130910571F0E8
:1003B000029778F409C08530910599F08530910550
:1003C00070F00697D1F411C0939801C0939A949855
:1003D00004C0939801C0939A949A9598089593981D
:1003E00001C0939A9498959A08955398899854982F
:1003F0008898A6989398949A959A08951F920F9228
:100400000FB60F9211242F938F939F93AF93BF93A7
:10041000EF93FF93DF93CF9300D00F92CDB7DEB76A
:1004200023B180915003863579F4293559F4F89435
:1004300028E088E190E00FB6F894A89581BD0FBE42
:1004400021BDFFCF10925003E0915003F0E0E15F37
:10045000FE4F8081281789F4809150038F5F80932D
:10046000500380915003873051F486E58093500308
:10047000159BFECF8FE383B902C010925003809189
:100480000D03813009F082C0809110039091110317
:100490000196909311038093100380911503820FAE
:1004A0008093150380911603822780931603809111
:1004B0000E0390910F03A0E0B0E08983892F9A2F5B
:1004C000AB2FBB278A831B82C49886E08FB9779BAA
:1004D000FECF8FB180931903C49AC49882E08FB97C
:1004E000779BFECF8FB1809319038B818FB9779B58
:1004F000FECF8FB1809319038A818FB9779BFECF8E
:100500008FB18093190389818FB9779BFECF8FB10B
:10051000809319032FB9779BFECF8FB18093190376
:10052000C49A80910E0390910F03019690930F034C
:1005300080930E03209107012130C9F480911003AC
:10054000909111038F3F910591F410921103109235
:10055000100380911403882319F0813041F404C002
:1005600020931403AA9A03C010921403AA9888E057
:100570008093390388EB9BE09BBD8ABD8DE08EBDE7
:100580001DBC1CBC89B7806489BF17C080917A03E9
:10059000E0917D03F0917E03E80FF11D20838F5FD2
:1005A00080937A0390917B03981710F410927A034A
:1005B00080917C038F5F80937C030F900F900F904E
:1005C000CF91DF91FF91EF91BF91AF919F918F916B
:1005D0002F910F900FBE0F901F9018951F920F92A2
:1005E0000FB60F9211248F939F93EF93FF938CB1CB
:1005F0008093020112BE8091C5029091C602823D95
:10060000910590F4E091C502F091C602809102013B
:10061000ED50FE4F80838091C5029091C6020196F5
:100620009093C6028093C502FF91EF919F918F91A5
:100630000F900FBE0F901F9018951F920F920FB63C
:100640000F9211248F93EF93FF939E991AC080917C
:1006500053038823B1F41BBE10926C0084E082BD6A
:1006600087B5846087BD89B7806189BF13BC89B7AE
:100670008E7F89BFE0910A01F0E0E950FD4F81E0F3
:100680008083FF91EF918F910F900FBE0F901F907D
:100690001895AF92BF92CF92DF92EF92FF920F9395
:1006A0001F93DC01809165038150809365038091E5
:1006B000650301E2A02E01E0B02EF501E80FF11D67
:1006C0008081F501EA0FFB1F8083809165031FE3A2
:1006D000C12E11E0D12EF601E80FF11D8081F60147
:1006E000EA0FFB1F808380916503FDE5EF2EF1E0AB
:1006F000FF2EF701E80FF11D8081F701EA0FFB1FC4
:100700008083809165030BE711E0F801E80FF11D8C
:100710008081F801EA0FFB1F80838091650369E9FE
:1007200071E0FB01E80FF11D8081FB01EA0FFB1F67
:1007300080838091650347EB51E0FA01E80FF11DDA
:100740008081FA01EA0FFB1F80838091650325ED0C
:1007500031E0F901E80FF11D8081A20FB31F8C93E6
:1007600080916503A80EB11C9AE7F50190838091F2
:100770006503C80ED11CF601908380916503E80ED5
:10078000F11CF701908380916503080F111DF8019A
:10079000908380916503680F711DFB0190838091A8
:1007A0006503480F511DFA01908380916503280F5E
:1007B000311DF90190831F910F91FF90EF90DF9011
:1007C000CF90BF90AF9008951F920F920FB60F92E7
:1007D00011240F931F932F933F934F935F936F9326
:1007E0007F938F939F93AF93BF93CF93DF93EF93B9
:1007F000FF9380916603909167030196909367033E
:100800008093660380915C038130D9F0813030F0B1
:100810008230E1F0833009F0A3C01FC01BBE1092EC
:100820006C00809157039091580380930A01809146
:100830000A0190E0B2DD889A9098A69AAE9881E07D
:1008400003C08898A69882E081BF04C0549A86E0CD
:1008500081BF83E080935C0383C054988898A698F6
:10086000539A0091C5021091C60210935F03009342
:100870005E031092C6021092C502809159039091B6
:100880005A0381BF80916603909167038D5B92400C
:10089000E8F11092670310926603C0E0D0E00CC04C
:1008A000FE01E954FE4F8081815080838081853034
:1008B00010F4CE01EEDE21968091650390E0C8171A
:1008C000D90770F38091ED02882301F580914D03E3
:1008D0008F5F80934D0380914D038230B8F010926A
:1008E0004D03E5EDF2E091E08381882351F08150E2
:1008F0008383853030F410821182128213829093A8
:100900004B03349682E0ED3EF80771F7C801029779
:1009100067E070E00E94AF1690930401809303019A
:100920008091030190910401892B99F409301105FC
:1009300080F090910E01913061F489B78E7F89BF6C
:10094000909352038CE081BF10926703109266036C
:1009500005C080E18BBF80E480936C0010925C0343
:10096000FF91EF91DF91CF91BF91AF919F918F91C7
:100970007F916F915F914F913F912F911F910F91B7
:100980000F900FBE0F901F9018951F920F920FB6E9
:100990000F921124AF92BF92CF92DF92EF92FF920B
:1009A0000F931F932F933F934F935F936F937F9377
:1009B0008F939F93AF93BF93CF93DF93EF93FF9367
:1009C00080915D03882321F0813009F0F5C0DDC0FE
:1009D00013BC89B78F7E89BF87B58B7F87BD539A3C
:1009E00054988898A69813BC89B78F7E89BF87B51D
:1009F0008B7F87BD80913E03882309F481C080915D
:100A00003E03813009F085C090910C0180910A016C
:100A1000981709F07EC074C0C42FD0E0FE01EF5DCE
:100A2000FE4FE0815D9BFECFECB9FE01E15CFE4F25
:100A3000E0815D9BFECFECB9FE01E35AFE4FE08101
:100A40005D9BFECFECB9FE01EF5DFE4F3081FE01F4
:100A5000E15CFE4FB080FE01E35AFE4FA080DE0154
:100A6000A558BE4FCC90FE01E756FE4FD080FE0148
:100A7000E954FE4FE080FE01EB52FE4FF080AC9156
:100A80005D9BFECFACB9FE01E756FE4FE0815D9B5A
:100A9000FECFECB9FE01EF5DFE4F8081FE01E15C0F
:100AA000FE4F1081FE01E35AFE4F0081FE01E55822
:100AB000FE4F7081FE01E756FE4F6081DE01A954B2
:100AC000BE4F5C91FE01EB52FE4FE081AC915D9B0D
:100AD000FECFACB9CB52DE4FA8815D9BFECF3B254C
:100AE00023272A252C252D252E252F25810F980FEC
:100AF000900F970F960F950F9E0FACB94F5F03C0E5
:100B000040E020E090E080916503481708F484CF2E
:100B100029C050911F015D9BFECF5CB990911E01D1
:100B20005D9BFECF9CB940911D015D9BFECF4CB9F2
:100B300030915B035D9BFECF3CB95D9BFECF1CB843
:100B40005D9BFECF82E38CB95D9BFECF252F2927CD
:100B500082E728272427232780E48CB9950F9E5805
:100B6000940F930F5D9BFECF2CB95D9BFECF9CB97C
:100B700082E082BD81E080935D0387B5846087BD9C
:100B800089B7806189BF13BC17C05398899880E1E9
:100B90008BBF80E480936C0013BC89B78F7E89BFC4
:100BA00087B58B7F87BD10925D0384E082BD85E0B1
:100BB00081BF89B7816089BFFF91EF91DF91CF91AC
:100BC000BF91AF919F918F917F916F915F914F9165
:100BD0003F912F911F910F91FF90EF90DF90CF9059
:100BE000BF90AF900F900FBE0F901F901895CF92AF
:100BF000EF920F93982F3E2D8091D202882311F00F
:100C0000CC20A9F1809165038E3188F5363078F1DA
:100C1000E0916503F0E0EF5DFE4F9083E0916503A6
:100C2000F0E0E15CFE4F6083E0916503F0E0E35AA1
:100C3000FE4F4083E0916503F0E0E558FE4F2083CE
:100C4000E0916503F0E0E756FE4F0083E091650315
:100C5000F0E0E954FE4F3083E0916503F0E0EB52A1
:100C6000FE4FC082809165038F5F809365030F9173
:100C7000EF90CF9008951F920F920FB60F9211240C
:100C80008F929F92AF92BF92CF92DF92EF92FF929C
:100C90000F931F932F933F934F935F936F937F9384
:100CA0008F939F93AF93BF93EF93FF93DF93CF9374
:100CB00000D00F92CDB7DEB78091ED02882309F006
:100CC00075C0809151038F5F809351038A3008F47F
:100CD000CFC31092510340E050E08CE3B82E02E6FF
:100CE000C02E14E0D12E7EE349C0D7018C91A62FEF
:100CF000B0E0FD01E35AFE4F90818917B9F5F80184
:100D00008081FD01E15CFE4F9081891779F5F90141
:100D10008081FD01EF5DFE4F9081891739F5FD015E
:100D2000EB52FE4F8081882309F5A558BE4FEC9108
:100D3000159BFECFB3B8159BFECFC3B8159BFECF56
:100D4000D3B8159BFECF73B9D9018C91159BFECFFB
:100D500083B9D8018C91159BFECF83B9D7018C91B3
:100D6000159BFECF83B9159BFECFE3B96F5F8091D2
:100D70006503681708F4B9CF4F5F5F4F8091D402C5
:100D800090E0481759070CF073C360E09A01220FF6
:100D9000331F240F351F27593C4FA2E0EA2EF12CB8
:100DA000E20EF31E89010F5F1F4FE1CF8091080112
:100DB000882309F4ACC1813009F05AC3909107012E
:100DC000913071F480913703882319F0813041F418
:100DD00004C090933703AA9A03C010923703AA98CD
:100DE00081E08093F102609132037091330380912E
:100DF00034039091350386DA80912F038093360374
:100E000080912F0390E09093F3028093F2028091FF
:100E1000300390E09093080380930703809131039F
:100E200090E090930A0380930903809107039091C7
:100E300008032091090330910A03982F8827820F15
:100E4000931F9695879590930C0380930B03809145
:100E50000B0390910C039093F50280910B039091FA
:100E60000C038093F6028091320390913303A0919A
:100E70003403B09135030596A11DB11D6091360371
:100E80008B83292F3A2F4B2F55272A83CD01AA2751
:100E9000BB278983C4988BE08FB9779BFECF8FB136
:100EA0008093190389818FB9779BFECF8FB180938F
:100EB00019038A818FB9779BFECF8FB18093190375
:100EC0008B818FB9779BFECF8FB18093190383E617
:100ED0008FB9779BFECF8FB18093190390E02FEFEE
:100EE00010C090FD03C0E92FEF5F02C0E92FE15071
:100EF0002FB9779BFECF8FB1F0E0E55EFC4F80838A
:100F00009F5F961770F3C49A80913C038F5F809324
:100F10003C0380913C038431E1F410923C038091C6
:100F20003D038F5F80933D03159BFECF8CE383B918
:100F3000159BFECF85E583B9159BFECF81E083B974
:100F4000159BFECF8EE383B980913D03159BFECFA9
:100F500083B98091F502882329F48091F6028730C5
:100F600009F452C08091F502882329F48091F60299
:100F7000882309F449C08091F2029091F3025D9BAD
:100F8000FECF8E5F8CB98091F5025D9BFECF8CB950
:100F90008091F6025D9BFECF8CB98091F202909118
:100FA000F3022091F5025091F60252278E5F5827E6
:100FB0002091F2023091F3024091F5028091F60205
:100FC000480F4E5F420F20E030E010C0F901E55EAF
:100FD000FC4FE0815D9BFECFECB9F901E55EFC4F73
:100FE000808158278081480F2F5F3F4F8091F20208
:100FF0009091F3022817390748F35D9BFECF5CB947
:101000005D9BFECF4CB969C010928A001092890096
:1010100010928800109287001092860080917D00C7
:101020008F7E80937D0083E190E09093F302809324
:10103000F2028FE48093F5028093F6028091F2022F
:101040009091F3025D9BFECF8E5F8CB98091F5028B
:101050005D9BFECF8CB98091F6025D9BFECF8CB973
:101060008091F2029091F3022091F5025091F602E4
:1010700052278E5F58272091F2023091F30240915F
:10108000F5028091F602480F4E5F420F20E030E0FB
:1010900061E107C05D9BFECF6CB956274F5E2F5FA5
:1010A0003F4F8091F2029091F3022817390790F395
:1010B0005D9BFECF5CB95D9BFECF4CB982E0809317
:1010C000390384EF91E09BBD8ABD8DE08EBD1DBCD0
:1010D0001CBC89B7806489BFAA9880913203909123
:1010E0003303A0913403B091350320913603089661
:1010F000A11DB11D820F911DA11DB11D8093320351
:1011000090933303A0933403B0933503B1C181E0CE
:101110008093F10210920E016091320370913303BB
:101120008091340390913503EDD880912F03809303
:1011300036038091320390913303A0913403B09130
:1011400035030596A11DB11D609136038983292FB2
:101150003A2F4B2F55272A83CD01AA27BB278B83F4
:10116000C4988BE08FB9779BFECF8FB18093190322
:101170008B818FB9779BFECF8FB1809319038A81C2
:101180008FB9779BFECF8FB18093190389818FB977
:10119000779BFECF8FB18093190383E68FB9779B3E
:1011A000FECF8FB18093190320E030E09FEF0AC09B
:1011B0009FB9779BFECF8FB1F901E55EFC4F80832D
:1011C0002F5F3F4F2617A0F3C49A80E395E701975E
:1011D000F1F7D0904303AD2CBB240894A11CB11CA3
:1011E000F09042031091410324ED822E20E3922ED1
:1011F0009DC0FF20D9F41092650380913F0390E0D9
:10120000A816B90639F40091400380E060E041E09F
:101210002D2D05C080E060E040E02D2D00E098EC31
:10122000E92EB7E6CB2EE3DC10924A03E0914903A6
:10123000F0E0E55EFC4F8081E12FF0E0EC5BFC4FDD
:10124000808390914A03E0914903F0E0E55EFC4F12
:101250008081890F80934A031F5FF394153021F03A
:10126000B0E8FB1609F05DC080914403609145032E
:10127000409146032091470300914803ADECEA2ECC
:10128000FCE6CF2EB4DCC4010197F1F710924403C1
:1012900010924503109246031092470310924803A0
:1012A000E0E8FE16E9F51092410320914A0380E040
:1012B00060E040E00D2DE8E6CE2E99DC81E08093E1
:1012C0000E0190910701913071F4809137038823CA
:1012D00019F0813041F404C090933703AA9A03C0F7
:1012E00010923703AA98D394D092430310924203EA
:1012F00081E080930D0110928A0010928900109273
:101300008800109287001092860080917D008F7E69
:1013100080937D00809149038F5F80934903A8C02B
:1013200010E0809149038F5F8093490390914903B6
:1013300080913603981708F45CCFF0924203109323
:10134000410380913F0390E0A816B90609F050C010
:1013500080914003F81609F04BC0AA9A1123D9F0E6
:1013600080914403609145034091460320914703D7
:10137000009148037DECE72E5CE6C52E38DC109228
:1013800044031092450310924603109247031092B3
:1013900048031092410320914A0380E060E040E05E
:1013A0000D2D3DECE32E98E6C92E21DC1092420370
:1013B0001092ED0210928A0010928900109288001B
:1013C000109287001092860080917D008F7E80931E
:1013D0007D0089E0809339038CED95E09BBD8ABD4B
:1013E0008DE08EBD1DBC1CBC89B7806489BFAA98E6
:1013F000109249038091320390913303A0913403FA
:10140000B0913503209136030896A11DB11D820FBE
:10141000911DA11DB11D8093320390933303A093BE
:101420003403B093350380913C038F5F80933C037A
:1014300080913C038431E1F410923C0380913D03A0
:101440008F5F80933D03159BFECF8CE383B9159B83
:10145000FECF85E583B9159BFECF81E083B9159B4F
:10146000FECF8EE383B980913D03159BFECF83B9F8
:101470000F900F900F90CF91DF91FF91EF91BF915F
:10148000AF919F918F917F916F915F914F913F911C
:101490002F911F910F91FF90EF90DF90CF90BF9011
:1014A000AF909F908F900F900FBE0F901F90189548
:1014B000D29AA29AAA98A79AAF9AA6988B9A8C9A2F
:1014C0008D9AB99A329ABC9889988898BB9ABA989A
:1014D000C298A59808951F920F920FB60F921124EB
:1014E000CF92EF920F931F932F933F934F935F935E
:1014F0006F937F938F939F93AF93BF93CF93DF931C
:10150000EF93FF931EBC1DBC1CBC1BBC1ABC89B74F
:101510008F7B89BF80913903853009F42BC18630D8
:1015200078F4823069F1833020F4813009F0C6C14B
:1015300014C0833009F42DC1843009F0BFC1BBC190
:10154000873009F447C1873008F433C1883009F483
:1015500089C1893009F0B2C1EAC08DE080938A0068
:10156000109289001092880080EA90E090938700A2
:101570008093860080917D00806180937D009EC174
:10158000109215031092160310921703109218036D
:10159000A29AAA980F9A119A89E180B916E81CBFFD
:1015A0000B9A0C9A85DF81E090E00E94CD0180E1EA
:1015B0008BBF80E480936C008BE083BF82E381BFAC
:1015C00012BE89B7816089BF88E087BD84E082BD93
:1015D00080910801813011F480930901599A579A3A
:1015E00019B810BD809108018130E1F41092F30226
:1015F0001092F2021092F7021092F8021092F90281
:101600001092FA021092FB021092FC021092FD025C
:101610001092FE021092FF0210920003109201033A
:1016200010920203109265031092F0021092F102E0
:101630008DED809305018EED8093060110925F037E
:1016400010925E0310926303109262031092610382
:101650001092600387E090E090930401809303016F
:10166000109267031092660310925C0310925D0360
:10167000109258031092570310925A031092590374
:1016800010926403109256031092780310921C017A
:1016900010924F031092EF021092EE021092F0029D
:1016A0001092F1021092C7021092C8021092C90261
:1016B0001092CA0281E08093CB02809308011092BD
:1016C000F3021092F2021092F4021092F5021092BC
:1016D000F6028093090110920303109208031092FE
:1016E000070310920A031092090310920C03109240
:1016F0000B0388E080930A0110920D0310920F03F0
:1017000010920E031092110310921003AA98AA9837
:10171000159BFECF8CE383B9159BFECF88E583B97B
:10172000159BFECF13B8159BFECF8EE3BBC0109266
:10173000F10210923E031092650380E060E040E009
:1017400020E000E0BAEAEB2EA0E6CA2E50DAAA9A10
:10175000159BFECF8CE383B9159BFECF88E583B93B
:10176000159BFECF13B8159BFECF8EE383B9109265
:101770000801A4C0109265038091040360910503E1
:101780004091060320E000E0F5E2EF2EE1E7CE2EE7
:101790000EC010926503809104036091050340918F
:1017A000060320E000E079E3E72E50E9C52E1FDABA
:1017B00085C01092650380910403609105034091F8
:1017C000060321E001E03CE0E32E92E7C92E0FDAA8
:1017D00087E03AC089B78E7F89BF13BC89B78F7EF7
:1017E00089BF87B58B7F87BD109209011BBE109200
:1017F0006C0054988898A698539A10926503C5ED8A
:10180000D2E000E010E0909104038881891769F428
:10181000909105038981891741F4909106038A818B
:10182000891719F4C8010E94CD010F5F1F4F24963C
:101830000630110541F7599A579A88E089B986E828
:1018400080BD1092F40281E08093390388EB9BE025
:101850009BBD8ABD8DE08EBD1DBC1CBC89B780645C
:1018600089BF2CC01092380310920D031092F00221
:10187000109212031092130310921103109210038E
:10188000C49A0E94E2009091150380911703981763
:1018900059F49091160380911803981729F4159B19
:1018A000FECF89E583B90AC0AA9880911503159BDC
:1018B000FECF83B9A89581E080932001FF91EF913D
:1018C000DF91CF91BF91AF919F918F917F916F9158
:1018D0005F914F913F912F911F910F91EF90CF907A
:1018E0000F900FBE0F901F9018952F923F924F921E
:1018F0005F926F927F928F929F92AF92BF92CF92A0
:10190000DF92EF92FF920F931F93DF93CF93CDB7A8
:10191000DEB728970FB6F894DEBF0FBECDBF84E0C8
:101920008093680381E08093CC02F89411E01093D7
:101930000E0110930D012FE088E190E00FB6F894AE
:10194000A89581BD0FBE21BDA895A29AAA980F9A0D
:10195000119A89E180B906E80CBF0B9A0C9AA8DDB0
:10196000EAEFFFE3E491E0931D01ECEFFFE3E49184
:10197000E0931E01EEEFFFE3E491E0931F0181E0AD
:1019800090E00E94CD0180E18BBF80E480936C00E9
:101990008BE083BF82E381BF12BE89B7816089BFBC
:1019A00088E087BD84E082BD10930E0110930D0185
:1019B00080910801813011F480930901599A579A56
:1019C00019B800BD80910801813091F41092F302A2
:1019D0001092F20280E090E0FC01E950FD4F10828D
:1019E000FC01E350FD4F1082019686309105A1F76E
:1019F000BC9AC49ABE98BD9ABF9A8CE58DB9C4981A
:101A000086E08FB9779BFECF8FB180931903C49A7C
:101A1000C49889E38FB9779BFECF8FB18093190368
:101A20001FB8779BFECF8FB1809319031FB8779BA8
:101A3000FECF8FB1809319031FB8779BFECF8FB174
:101A400080931903C49A109220013A9A7894809155
:101A50001F0160911E0140911D0122E600E0E0EAB5
:101A6000EE2E72E9C72EC3D882ED90E00E941317C4
:101A700080937D0390937E031092790310927A03F2
:101A800081ED80937B0310927C039D9B03C081E0DA
:101A900080934E0380910801882341F080910801D2
:101AA000813069F580910901813049F580915403B5
:101AB0009091550301969093550380935403843677
:101AC000910529F49D9B02C03A9801C03A9A209151
:101AD00056032F5F20935603822F66E00E94A316C1
:101AE000892F90E0909358038093570330E02F7034
:101AF00030702B5F3F4F30935A03209359038091EE
:101B00002001882309F4A8958091CF029091D002FA
:101B100001969093D0028093CF028091D1028F5F83
:101B20008093D1028091CC02882309F469C020916E
:101B3000CC02213059F0213030F02230B1F1233085
:101B400009F05EC044C01092CC0255C08091C7021B
:101B50009091C802A091C902B091CA024497A10510
:101B6000B10508F44DC08091CB02882321F081306B
:101B700009F046C00BC02093CB021092C70210920E
:101B8000C8021092C9021092CA0235C01092CB024C
:101B900082E190E0A0E0B0E08093C7029093C80299
:101BA000A093C902B093CA022AC08091CF0290913B
:101BB000D00264E670E00E94AF16892B09F580918F
:101BC000CB02882391F491E09093CB0214C08091D2
:101BD000CF029091D00260ED77E00E94AF16892B82
:101BE00079F48091CB02882319F0813049F405C043
:101BF000A1E0A093CB02AA9803C01092CB02AA9AAC
:101C00008091CD02813041F0AA24BB24650140E0DF
:101C1000EE24FF24870146C02091CE0255C0242F18
:101C200030E0F901EB52FE4F80818823D1F559E96C
:101C3000852E51E0952E820E931EF4018081F901CC
:101C4000E558FE4F882331F48081E80EF11C011D18
:101C5000111D27C02081D4016C9184E190E070E0D7
:101C60000E94C31630E0629FC001639F900D729F77
:101C7000900D1124AA2797FDA095BA2FE80EF91E02
:101C80000A1F1B1FF401608184E190E070E00E9454
:101C9000C316882777FD8095982FA60EB71EC81EFD
:101CA000D91E4F5F80916503481708F4B8CFA1147F
:101CB000B104C104D10411F42E2D06C0C801B7012E
:101CC000A60195010E94D6162093D302909152034B
:101CD000913021F480910801882369F080910801F6
:101CE000813009F014C3913009F011C380910901CA
:101CF000813009F00CC38091C7029091C802A09175
:101D0000C902B091CA020196A11DB11D8093C702FC
:101D10009093C802A093C902B093CA0220915E03B7
:101D200030915F0322503040C90167E070E00E94AB
:101D3000AF167093610360936003109205011092D7
:101D40000601309363032093620320E030E00EC06D
:101D5000909106018081890F809306019091050181
:101D600080818927809305012F5F3F4F8091620317
:101D700090916303F901ED50FE4F2817390740F3A6
:101D8000809105019081982790930501109205019B
:101D900080916003909161034E9708F0ACC28091EE
:101DA0000501882309F0A7C280910601E0915E0336
:101DB000F0915F03EE50FE4F9081891709F09BC2AE
:101DC000E0910A01F0E0E350FD4F81E0808340E0C4
:101DD00050E026E030E013C0F901ED50FE4F808165
:101DE00087FF03C08081863830F0F901EF50FE4F45
:101DF00080818F5F80834F5F5F4F295F3F4F80916E
:101E00006003909161034817590730F38091F701FF
:101E1000813009F05CC08091F901803449F08091F3
:101E2000F901882329F08091F901813009F04FC030
:101E300080915B03E82FF0E0EE0FFF1FEE0FFF1F16
:101E40009091F301EB52FD4F8081891731F0809121
:101E5000F301808391E090934B0380915B03E82F23
:101E6000F0E0EE0FFF1FEE0FFF1F9091F401EA521A
:101E7000FD4F8081891731F08091F4018083A1E0CA
:101E8000A0934B0380915B03E82FF0E0EE0FFF1F60
:101E9000EE0FFF1F9091F501E952FD4F80818917E8
:101EA00031F08091F5018083B1E0B0934B03E09174
:101EB0005B03F0E0EE0FFF1FEE0FFF1FEB52FD4F35
:101EC0008BE083838091F7018F5F8093F70180918E
:101ED000F901803419F4E0E5E093F901B2E0AB2EAA
:101EE000B12CA1E04A2E512CF3E06F2E712CFAC0D8
:101EF000E4E02E2E312C2A0C3B1CF101ED50FE4F5C
:101F00008081833739F580913A03813019F5109239
:101F10003A0380910403609105034091060320E099
:101F200000E075E2E72E50E9C52E0E94F705159BEB
:101F3000FECFFAE5F3B9AA9A84E080933903A8E8C2
:101F4000B3E1BBBDAABDBDE0BEBD1DBC1CBC89B715
:101F5000806489BFF101ED50FE4F8081813071F5C1
:101F600080E58083F301ED50FE4F808180934F0325
:101F700080910A0180930C0120914F0330E0809101
:101F8000430390E0019728173907C1F480910D01B0
:101F90008130A1F49DE090938A0010928900109204
:101FA0008800AAEFB0E0B0938700A09386008091EC
:101FB0007D00806180937D0010920D01F101ED5054
:101FC000FE4F8081873619F08081893611F4109296
:101FD0006503F101ED50FE4F8081873619F0808155
:101FE0008A3619F4B1E0B0935303F101ED50FE4F7E
:101FF00080818D3611F410925303D101AD50BE4F44
:102000008C918B3641F4F301ED50FE4F808180932B
:102010007803E0E5EC93F101ED50FE4F80818236CC
:10202000F1F410E013C0F901EB52FE4F808187FFFD
:1020300003C08081863830F0F901EB52FE4F808179
:102040008E3619F4C9010E9449031F5F212F30E029
:1020500080916003909161032817390720F3F40100
:10206000ED50FE4F908180911F01981781F4F2018D
:10207000ED50FE4F908180911E01981741F4F501BB
:10208000ED50FE4F908180911D01981719F183EF5B
:1020900091E0280E391ED1018C918336D9F4E3EFFB
:1020A000F1E08E0E9F1ED4018C91F201ED50FE4F97
:1020B0006081F501ED50FE4F408123E700E038ECF0
:1020C000E32E94E6C92E0E94F70580E5F101808396
:1020D00010925303A7E0B0E0AA0EBB1E4A0E5B1E8F
:1020E0006A0E7B1E8EEF882E8FEF982E8A0C9B1C1B
:1020F0002091600330916103C90103E0880F991FAB
:102100000A95E1F7821B930B8816990608F4F0CE26
:10211000E2E0F0E0F887EF8313E0612E712CB4E089
:102120008B2E912CA5E0AA2EB12CD1C0F4E0CF2E9D
:10213000D12C8F819885C80ED91EF601ED50FE4F27
:102140008081803509F4B6C06F8178856150704018
:10215000FB01ED50FE4F908180911E01981709F010
:1021600054C0EF81F885ED50FE4F908180911D01A4
:10217000981709F04AC0FA01ED50FE4F9081809106
:102180001F01981709F041C095C0A981BA818C91AF
:10219000F901EF5DFE4F90818917A1F5EB81FC817C
:1021A0008081F901E15CFE4F9081891759F5AD817D
:1021B000BE818C91F901E35AFE4F9081891711F588
:1021C000F1018081F901EB52FE4F90818917D1F422
:1021D000F1E0F0936403D8019C91D901A756BE4F5A
:1021E0008C91891778F0F2018081F901E558FE4F52
:1021F0008083F80180818C93D7018C91F901E95497
:10220000FE4F80832F5F3F4F27C020E030E0FA0170
:10221000ED50FE4FFA83E983CB018D509E4F9C8396
:102220008B83AF81B885AD50BE4FBE83AD83E3EFE6
:102230002E2EE1E03E2E2C0C3D1C84010D501E4F35
:1022400093EF492E91E0592E460C571C83EFE82E50
:1022500081E0F82EEA0CFB1C8091650390E02817C2
:10226000390708F492CF80916403882309F54D5013
:102270005E4FFA0180816D507E4FDB016C91EF81E2
:10228000F885ED50FE4F4081F301ED50FE4F208167
:10229000F401ED50FE4F0081F501ED50FE4FE0805E
:1022A000E3EFF1E0CE0EDF1ED601CC900E94F705E1
:1022B00010926403EF81F8853796F887EF8387E003
:1022C00090E0680E791E880E991EA80EB91E4F81E7
:1022D0005885425050402091600330916103C901FC
:1022E00003E0880F991F0A95E1F7821B930B4817AB
:1022F000590708F41BCFF89489B7816089BF90E132
:102300009BBFA0E4A0936C0010925203789480913C
:102310004B03813061F480914C03882341F4809118
:102320004E03813021F410924B030E947A00909169
:102330007C03992309F4AECB80917903E0917D036E
:10234000F0917E03E80FF11DE081E332F9F4809112
:10235000F002882309F0EDC48091F102882309F08E
:10236000E8C489E793E00E94560085E290E00E946D
:102370007600AA9A8EE190E061E05AD682E390E07E
:102380009FBB8EBBB1E0B0934E0384CBE33309F027
:1023900044C08091F002882309F0CBC48091F102FF
:1023A000882309F0C6C480910D03882309F0C1C4B5
:1023B000E1E0E0934C0389E793E00E945600F1E0EE
:1023C000F0930801C49886E08FB9779BFECF8FB158
:1023D00080931903C49AC49882E58FB9779BFECF86
:1023E0008FB1809319031FB8779BFECF8FB1809375
:1023F00019031FB8779BFECF8FB1809319031FB8C5
:10240000779BFECF8FB180931903C49A0E94E2009C
:1024100084E390E00E9476003DCBE53391F4809117
:10242000F002882309F085C48091F102882309F025
:1024300080C480910D03882309F07BC410924E0361
:102440007CC4E135B1F48091F002882309F071C4B5
:102450008091F102882309F06CC489E793E00E941F
:1024600056001092080181E08093ED0280934C03A6
:1024700011CBE43509F049C08091F002882309F0BE
:1024800058C48091F102882309F053C480910D0350
:10249000882309F04EC4A1E0A093F102943008F41F
:1024A00010C489E793E00E94560089E793E00E94F8
:1024B000560090911F01891709F003C489E793E042
:1024C0000E94560090911E01891709F0FAC389E70E
:1024D00093E00E94560090911D01891709F0F1C305
:1024E0008AE090E061E0A4D582E390E09FBB8EBBE0
:1024F000F8948EE190E060E09BD582E390E09FBB92
:102500008EBBB1E0B0932001DCC3E03601F58091D1
:10251000F002882309F00DC48091F102882309F0AC
:1025200008C489E793E00E94560080910801813039
:1025300009F0B0CA8091040360910503409106033D
:1025400020E000E01FE0E12EB1E9CB2ED5C3E1335E
:10255000D1F58091F002882309F0EBC38091F1025C
:10256000882309F0E6C389E793E00E945600809132
:102570000801813069F48091040360910503409162
:10258000060320E000E0A5E2EA2EF1E7CF2EB4C377
:102590001092650380910403609105034091060346
:1025A00020E000E0EBE6EE2E74E6C72E0E94F70571
:1025B0008AE590E00E94760010924C03A895E1E035
:1025C000E093200167CAE83309F04AC08091F00225
:1025D000882309F0AEC38091F102882309F0A9C3D2
:1025E00080910D03882309F0A4C3F1E0F093F10278
:1025F00080917C03833008F464C389E793E00E94F0
:10260000560081E08093ED0289E793E00E94560036
:102610008093180389E793E00E9456008093170384
:1026200010921103109210031EBC1DBC1CBC1BBCDD
:102630001ABC89B78F7B89BF10920F0310920E03CB
:1026400091E090930D039093F1029093F002109219
:1026500015031092160382E590E00E94760031C3C4
:10266000E13609F58091F002882309F062C3809178
:10267000F102882309F05DC389E793E00E945600C8
:10268000F8948CE390E00E9476008CE690E00E9443
:10269000760080E090E00E9476008EE390E00E9459
:1026A00076007894F7C9ED36A1F48091F002882382
:1026B00009F03FC38091F102882309F03AC389E70A
:1026C00093E00E945600A1E0A0934E030E947A007E
:1026D000E1C9E33771F58091F002882309F029C33D
:1026E000B1E0B093F10280917C03853008F4D2C947
:1026F00089E793E00E94560089E793E00E94560024
:10270000F82E89E793E00E945600082F89E793E0AE
:102710000E945600182F89E793E00E945600482F28
:10272000802F612F2F2D00E05AE0E52E36E8C32ED2
:1027300035C1E23609F05EC08091F002882309F0CD
:10274000F8C28091F102882309F0F3C2E1E0E0933E
:10275000F10280917C03843008F4B3C289E793E0EE
:102760000E9456000091D40210E089E793E00E9495
:102770005600F801EE0FFF1FE00FF11FE759FC4F65
:1027800080830091D40210E089E793E00E94560014
:10279000F801EE0FFF1FE00FF11FE759FC4F818397
:1027A0000091D40210E089E793E00E945600F801FE
:1027B000EE0FFF1FE00FF11FE759FC4F828380915E
:1027C000D4028F5F8093D4028091D402813009F0CB
:1027D00078C2FDE0F0938A00109289001092880080
:1027E00080EA90E0909387008093860080917D003E
:1027F000806156C0E53769F58091F002882309F0C1
:1028000098C28091F102882309F093C281E08093FD
:10281000F10280917C03843008F453C289E793E08D
:102820000E94560089E793E00E945600082F89E72E
:1028300093E00E945600182F89E793E00E9456000B
:10284000482F802F90E0612F70E050E00E9401013E
:1028500038C2E13741F58091F002882309F069C25E
:102860008091F102882309F064C291E09093F10213
:1028700089E793E00E9456001092D4028091ED0205
:10288000882309F01EC210928A00109289001092CB
:102890008800109287001092860080917D008F7EC4
:1028A00080937D000EC2E43769F58091F0028823A1
:1028B00009F03FC2A1E0A093F10280917C03853032
:1028C00008F4E8C889E793E00E94560089E793E09E
:1028D0000E94560089E793E00E945600082F89E77E
:1028E00093E00E945600182F89E793E00E9456005B
:1028F000482F802F612F20E000E0EAE0EE2E79E8FB
:10290000C72E4CC0E53609F04CC08091F0028823F8
:1029100009F00FC2B1E0B093F10280917C038530E1
:1029200008F4B8C889E793E00E94560089E793E06D
:102930000E9456008637C1F489E793E00E94560052
:10294000082F89E793E00E945600182F89E793E04B
:102950000E945600482F802F612F21E000E05AE0AE
:10296000E52E37E8C32E1AC08A3709F0AAC189E7D5
:1029700093E00E945600082F89E793E00E945600DA
:10298000182F89E793E00E945600482F802F612F6F
:1029900021E000E09AE0E92E18E8C12E0E94F70538
:1029A00090C1E936D9F48091F002882309F0C1C1C1
:1029B0008091F102882309F0BCC189E793E00E946D
:1029C000560080911F0160911E0140911D0121E080
:1029D00000E0BAEFEB2EAFE6CA2E8EC1EB3609F05F
:1029E00065C08091F002882309F0A3C18091F102B3
:1029F000882309F09EC189E793E00E945600F8946D
:102A0000159BFECF8CE383B9159BFECF8AE683B975
:102A100080916503282F30E0159BFECFC901F3E0BC
:102A2000880F991FFA95E1F7821B930B83B9159BC9
:102A3000FECF8EE383B980E031C0FD01EF5DFE4F34
:102A4000E081159BFECFE3B9FD01E15CFE4FE08123
:102A5000159BFECFE3B9FD01E35AFE4FE081159BC4
:102A6000FECFE3B9FD01E558FE4FE081159BFECF97
:102A7000E3B9FD01E756FE4FE081159BFECFE3B9B8
:102A8000FD01E954FE4FE081159BFECFE3B9AB5247
:102A9000BE4FEC91159BFECFE3B98F5FA82FB0E03E
:102AA000A217B30750F278940C944A0DEC3409F055
:102AB0005DC08091F002882309F03BC18091F10252
:102AC000882309F036C1E1E0E093F102E093ED02E2
:102AD00010923C0310923D0380917C03843008F4F3
:102AE000F0C089E793E00E945600109265031092AF
:102AF000F7021092F8021092F9021092FA02109264
:102B0000FB021092FC0289E793E00E94560080933A
:102B1000040389E793E00E9456008093050389E748
:102B200093E00E9456008093060380910403609115
:102B30000503409106032DE701E0E6E1EE2E72E683
:102B4000C72E0E94F70586E08093390388EB9BE04F
:102B50009BBD8ABDFDE0FEBD1DBC1CBC89B7806469
:102B600089BF00933A0300933B03ABC0E73509F0FC
:102B700040C08091F002882309F0DBC08091F1020F
:102B8000882309F0D6C081E08093F10280917C0314
:102B9000843008F496C089E793E00E9456001092B2
:102BA000650389E793E00E9456008093040389E758
:102BB00093E00E9456008093050389E793E00E940A
:102BC0005600809306031092650380910403609180
:102BD00005034091060320E000E052E3E52E31E6D4
:102BE000C32E0E94F70582E590E00E947600AA9A23
:102BF00068C0ED3409F069C08091F002882309F0C3
:102C000098C08091F102882309F093C010920801C6
:102C100091E09093F1029093ED0210923C03109298
:102C20003D0310924A0380917C03863008F449C02A
:102C300089E793E00E945600A1E0A093D202A093FE
:102C40003E031092650389E793E00E94560080934B
:102C5000040389E793E00E9456008093050389E707
:102C600093E00E9456008093060389E793E00E9458
:102C7000560080933F0389E793E00E9456008093BB
:102C800040031092410310924203109243031092AA
:102C90004903B1E0B0933A03B0933B03EDE0E09316
:102CA0008A0010928900109288008AEF90E0909339
:102CB00087008093860080917D00806180937D00F5
:102CC000AA981092F1020C944A0DE235C9F4809151
:102CD000F002882371F58091F102882351F589E78C
:102CE00093E00E9456008DE362E248E12FED01E09F
:102CF00097E3E92E11EAC12E0E94F7050C944A0DC4
:102D0000E837B9F48091F002882399F48091F102B8
:102D1000882379F489E793E00E945600F89428E02C
:102D200088E190E00FB6F894A89581BD0FBE21BD53
:102D3000FFCF992311F40C944A0D89E793E00E9488
:102D400056000C944A0D991B79E004C0991F961700
:102D500008F0961B881F7A95C9F780950895AA1BDD
:102D6000BB1B51E107C0AA1FBB1FA617B70710F076
:102D7000A61BB70B881F991F5A95A9F780959095A8
:102D8000BC01CD01089597FB092E07260AD077FDD7
:102D900004D0E5DF06D000201AF4709561957F4FCE
:102DA0000895F6F7909581959F4F089597FB092E0A
:102DB00005260ED057FD04D014D00AD0001C38F4DC
:102DC00050954095309521953F4F4F4F5F4F089557
:102DD000F6F790958095709561957F4F8F4F9F4F37
:102DE0000895A1E21A2EAA1BBB1BFD010DC0AA1F4C
:102DF000BB1FEE1FFF1FA217B307E407F50720F064
:102E0000A21BB30BE40BF50B661F771F881F991FDE
:102E10001A9469F760957095809590959B01AC0127
:102E2000BD01CF010895CF93DF93BC01823091059E
:102E300010F462E070E0A0918103B0918203ED0193
:102E4000E0E0F0E040E050E021C088819981861701
:102E5000970769F48A819B81309719F09383828365
:102E600004C09093820380938103FE0134C06817ED
:102E7000790738F44115510519F08417950708F4BE
:102E8000AC01FE018A819B819C01E9012097E9F652
:102E900041155105A9F1CA01861B970B049708F447
:102EA000BA01E0E0F0E02AC08D919C91119784175F
:102EB0009507F9F46417750781F412968D919C912A
:102EC0001397309719F09383828304C09093820301
:102ED00080938103FD0132964FC0CA01861B970B78
:102EE000FD01E80FF91F6193719302978D939C93F5
:102EF00043C0FD01828193819C01D9011097A1F605
:102F000080917F0390918003892B41F48091180177
:102F1000909119019093800380937F0340911A014F
:102F200050911B014115510541F44DB75EB7809199
:102F3000160190911701481B590B20917F03309186
:102F4000800324173507B0F4CA01821B930B861740
:102F5000970780F0AB014E5F5F4F8417950750F0E5
:102F6000420F531F5093800340937F03F9016193F5
:102F7000719302C0E0E0F0E0CF01DF91CF910895BE
:102F8000CF93DF93009709F450C0EC0122971B8286
:102F90001A82A0918103B0918203109709F140E059
:102FA00050E0AC17BD0708F1BB83AA83FE01219155
:102FB0003191E20FF31FAE17BF0779F48D919C9109
:102FC0001197280F391F2E5F3F4F398328831296A0
:102FD0008D919C9113979B838A834115510571F4C0
:102FE000D0938203C093810320C012968D919C914F
:102FF0001397AD01009711F0DC01D3CFFA01D38311
:10300000C28321913191E20FF31FCE17DF0769F4DC
:1030100088819981280F391F2E5F3F4FFA01318334
:1030200020838A819B8193838283DF91CF9108954E
:10303000262FE199FECF9FBB8EBB2DBB0FB6F89418
:0E304000E29AE19A0FBE01960895F894FFCF30
:10304E00001CDD0700DDDE01010108010A0101158A
:0C305E003A9568C19A84200083030000AA
:00000001FF
